{
  "contractName": "Act",
  "abi": [
    {
      "constant": true,
      "inputs": [],
      "name": "name",
      "outputs": [
        {
          "name": "",
          "type": "bytes32"
        }
      ],
      "payable": false,
      "stateMutability": "view",
      "type": "function"
    },
    {
      "constant": true,
      "inputs": [],
      "name": "symbol",
      "outputs": [
        {
          "name": "",
          "type": "bytes32"
        }
      ],
      "payable": false,
      "stateMutability": "view",
      "type": "function"
    },
    {
      "constant": true,
      "inputs": [],
      "name": "act",
      "outputs": [
        {
          "name": "",
          "type": "string"
        }
      ],
      "payable": false,
      "stateMutability": "view",
      "type": "function"
    },
    {
      "inputs": [],
      "payable": false,
      "stateMutability": "nonpayable",
      "type": "constructor"
    },
    {
      "constant": true,
      "inputs": [],
      "name": "getAct",
      "outputs": [
        {
          "name": "",
          "type": "string"
        }
      ],
      "payable": false,
      "stateMutability": "view",
      "type": "function"
    }
  ],
  "bytecode": "0x6060604052606060405190810160405280602e81526020017f516d62516570566f5164617742637a384139386e41705448355361464748714b81526020017f3670544b693265594b334476416d00000000000000000000000000000000000081525060029080516100749291602001906100cd565b50341561008057600080fd5b7f41435400000000000000000000000000000000000000000000000000000000006000557f4163746f4f66496e646570656e64656e63654f664c69746875616e6961000000600155610168565b828054600181600116156101000203166002900490600052602060002090601f016020900481019282601f1061010e57805160ff191683800117855561013b565b8280016001018555821561013b579182015b8281111561013b578251825591602001919060010190610120565b5061014792915061014b565b5090565b61016591905b808211156101475760008155600101610151565b90565b6102cb806101776000396000f3006060604052600436106100615763ffffffff7c010000000000000000000000000000000000000000000000000000000060003504166306fdde03811461006657806395d89b411461008b578063bb8982331461009e578063ee42b10b14610128575b600080fd5b341561007157600080fd5b61007961013b565b60405190815260200160405180910390f35b341561009657600080fd5b610079610141565b34156100a957600080fd5b6100b1610147565b60405160208082528190810183818151815260200191508051906020019080838360005b838110156100ed5780820151838201526020016100d5565b50505050905090810190601f16801561011a5780820380516001836020036101000a031916815260200191505b509250505060405180910390f35b341561013357600080fd5b6100b16101ef565b60015481565b60005481565b61014f61028d565b60028054600181600116156101000203166002900480601f0160208091040260200160405190810160405280929190818152602001828054600181600116156101000203166002900480156101e55780601f106101ba576101008083540402835291602001916101e5565b820191906000526020600020905b8154815290600101906020018083116101c857829003601f168201915b5050505050905090565b60028054600181600116156101000203166002900480601f0160208091040260200160405190810160405280929190818152602001828054600181600116156101000203166002900480156102855780601f1061025a57610100808354040283529160200191610285565b820191906000526020600020905b81548152906001019060200180831161026857829003601f168201915b505050505081565b602060405190810160405260008152905600a165627a7a72305820dbb2d54f5d55f9e03977d6905ff5f2fc2d1d2283c952d71916c411c19119d5450029",
  "source": "pragma solidity ^0.4.21;\r\n\r\n\r\ncontract Act {\r\n\r\n    bytes32 public symbol;\r\n    bytes32 public  name;\r\n    string public act = \"QmbQepVoQdawBcz8A98nApTH5SaFGHqK6pTKi2eYK3DvAm\";\r\n\r\n    function Act() public {\r\n        symbol = \"ACT\";\r\n        name = \"ActoOfIndependenceOfLithuania\";\r\n    }\r\n\r\n    function getAct() public view returns (string) {\r\n        return act;\r\n    }\r\n\r\n}\r\n",
  "sourcePath": "C:\\Users\\DXenu\\Desktop\\box\\independenceact\\contracts\\Act.sol",
  "compiler": {
    "name": "solc",
    "version": "0.4.21+commit.dfe3193c.Emscripten.clang"
  },
  "schemaVersion": "2.0.0",
  "updatedAt": "2018-04-24T11:10:34.120Z"
}