{
  "contractName": "Basic",
  "abi": [
    {
      "constant": true,
      "inputs": [],
      "name": "_totalSupply",
      "outputs": [
        {
          "name": "",
          "type": "uint256"
        }
      ],
      "payable": false,
      "stateMutability": "view",
      "type": "function"
    },
    {
      "anonymous": false,
      "inputs": [
        {
          "indexed": true,
          "name": "from",
          "type": "address"
        },
        {
          "indexed": true,
          "name": "to",
          "type": "address"
        },
        {
          "indexed": false,
          "name": "value",
          "type": "uint256"
        }
      ],
      "name": "Transfer",
      "type": "event"
    },
    {
      "anonymous": false,
      "inputs": [
        {
          "indexed": true,
          "name": "owner",
          "type": "address"
        },
        {
          "indexed": true,
          "name": "spender",
          "type": "address"
        },
        {
          "indexed": false,
          "name": "value",
          "type": "uint256"
        }
      ],
      "name": "Approval",
      "type": "event"
    },
    {
      "constant": true,
      "inputs": [
        {
          "name": "_tokenOwner",
          "type": "address"
        }
      ],
      "name": "balanceOf",
      "outputs": [
        {
          "name": "balance",
          "type": "uint256"
        }
      ],
      "payable": false,
      "stateMutability": "view",
      "type": "function"
    },
    {
      "constant": true,
      "inputs": [
        {
          "name": "_tokenOwner",
          "type": "address"
        },
        {
          "name": "_spender",
          "type": "address"
        }
      ],
      "name": "allowance",
      "outputs": [
        {
          "name": "remaining",
          "type": "uint256"
        }
      ],
      "payable": false,
      "stateMutability": "view",
      "type": "function"
    },
    {
      "constant": false,
      "inputs": [
        {
          "name": "_to",
          "type": "address"
        },
        {
          "name": "_tokens",
          "type": "uint256"
        }
      ],
      "name": "transfer",
      "outputs": [
        {
          "name": "success",
          "type": "bool"
        }
      ],
      "payable": false,
      "stateMutability": "nonpayable",
      "type": "function"
    },
    {
      "constant": false,
      "inputs": [
        {
          "name": "_spender",
          "type": "address"
        },
        {
          "name": "_tokens",
          "type": "uint256"
        }
      ],
      "name": "approve",
      "outputs": [
        {
          "name": "success",
          "type": "bool"
        }
      ],
      "payable": false,
      "stateMutability": "nonpayable",
      "type": "function"
    },
    {
      "constant": false,
      "inputs": [
        {
          "name": "_from",
          "type": "address"
        },
        {
          "name": "_to",
          "type": "address"
        },
        {
          "name": "_tokens",
          "type": "uint256"
        }
      ],
      "name": "transferFrom",
      "outputs": [
        {
          "name": "success",
          "type": "bool"
        }
      ],
      "payable": false,
      "stateMutability": "nonpayable",
      "type": "function"
    },
    {
      "constant": true,
      "inputs": [],
      "name": "totalSupply",
      "outputs": [
        {
          "name": "",
          "type": "uint256"
        }
      ],
      "payable": false,
      "stateMutability": "view",
      "type": "function"
    }
  ],
  "bytecode": "0x6060604052341561000f57600080fd5b6105478061001e6000396000f3006060604052600436106100825763ffffffff7c0100000000000000000000000000000000000000000000000000000000600035041663095ea7b3811461008757806318160ddd146100bd57806323b872dd146100e25780633eaaf86b1461010a57806370a082311461011d578063a9059cbb1461013c578063dd62ed3e1461015e575b600080fd5b341561009257600080fd5b6100a9600160a060020a0360043516602435610183565b604051901515815260200160405180910390f35b34156100c857600080fd5b6100d06101ef565b60405190815260200160405180910390f35b34156100ed57600080fd5b6100a9600160a060020a0360043581169060243516604435610220565b341561011557600080fd5b6100d061038d565b341561012857600080fd5b6100d0600160a060020a0360043516610393565b341561014757600080fd5b6100a9600160a060020a03600435166024356103ae565b341561016957600080fd5b6100d0600160a060020a03600435811690602435166104c2565b600160a060020a03338116600081815260016020908152604080832094871680845294909152808220859055909291907f8c5be1e5ebec7d5bd14f71427d1e84f3dd0314c0f7b2291e5b200ac8c7c3b9259085905190815260200160405180910390a350600192915050565b60008080526020527fad3228b676f7d3cd4284a5443f17f1962b36e491b30a40b2405849e597ba5fb5546002540390565b6000600160a060020a038316151561023757600080fd5b600160a060020a03841660009081526020819052604090205482111561025c57600080fd5b600160a060020a038085166000908152600160209081526040808320339094168352929052205482111561028f57600080fd5b600160a060020a0384166000908152602081905260409020546102b290836104ed565b600160a060020a0380861660009081526020818152604080832094909455600181528382203390931682529190915220546102ed90836104ed565b600160a060020a0380861660009081526001602090815260408083203385168452825280832094909455918616815290819052205461032c9083610502565b600160a060020a03808516600081815260208190526040908190209390935591908616907fddf252ad1be2c89b69c2b068fc378daa952ba7f163c4a11628f55a4df523b3ef9085905190815260200160405180910390a35060019392505050565b60025481565b600160a060020a031660009081526020819052604090205490565b6000600160a060020a03831615156103c557600080fd5b600160a060020a03331660009081526020819052604090205482118015906103ed5750600082115b15156103f857600080fd5b600160a060020a03331660009081526020819052604090205461041b90836104ed565b600160a060020a03338116600090815260208190526040808220939093559085168152205461044a9083610502565b60008085600160a060020a0316600160a060020a031681526020019081526020016000208190555082600160a060020a031633600160a060020a03167fddf252ad1be2c89b69c2b068fc378daa952ba7f163c4a11628f55a4df523b3ef8460405190815260200160405180910390a350600192915050565b600160a060020a03918216600090815260016020908152604080832093909416825291909152205490565b6000828211156104fc57600080fd5b50900390565b60008282018381101561051457600080fd5b93925050505600a165627a7a723058205f9d8f72f9ab91bf4a1070eaf2202d0363ffeda9d623c6b16ab0d73f38912d0d0029",
  "source": "pragma solidity ^0.4.21;\r\n\r\nimport \"./SafeMath.sol\";\r\nimport \"./ERC20.sol\";\r\n\r\n\r\ncontract Basic is ERC20 {\r\n\r\n    modifier onlyTokenholder() {\r\n        require(balances[msg.sender] > 0);\r\n        _;\r\n    }\r\n\r\n    function balanceOf(address _tokenOwner) public view returns (uint balance) {\r\n        return balances[_tokenOwner];\r\n    }\r\n\r\n    function allowance(address _tokenOwner, address _spender) public view returns (uint remaining) {\r\n        return allowed[_tokenOwner][_spender];\r\n    }\r\n\r\n    function transfer(address _to, uint _tokens) public returns (bool success) {\r\n        require(_to != address(0));\r\n        require(_tokens <= balances[msg.sender] && _tokens > 0);\r\n\r\n        balances[msg.sender] = SafeMath.sub(balances[msg.sender], _tokens);\r\n        balances[_to] = SafeMath.add(balances[_to], _tokens);\r\n        emit Transfer(msg.sender, _to, _tokens);\r\n        return true;\r\n    }\r\n\r\n    function approve(address _spender, uint _tokens) public returns (bool success) {\r\n        allowed[msg.sender][_spender] = _tokens;\r\n        emit Approval(msg.sender, _spender, _tokens);\r\n        return true;\r\n    }\r\n\r\n    function transferFrom(address _from, address _to, uint _tokens) public returns (bool success) {\r\n        require(_to != address(0));\r\n        require(_tokens <= balances[_from]);\r\n        require(_tokens <= allowed[_from][msg.sender]);\r\n\r\n        balances[_from] = SafeMath.sub(balances[_from], _tokens);\r\n        allowed[_from][msg.sender] = SafeMath.sub(allowed[_from][msg.sender], _tokens);\r\n        balances[_to] = SafeMath.add(balances[_to], _tokens);\r\n        emit Transfer(_from, _to, _tokens);\r\n        return true;\r\n    }\r\n\r\n    function totalSupply() public view returns (uint) {\r\n        return _totalSupply - balances[address(0)];\r\n    }\r\n\r\n}\r\n",
  "sourcePath": "C:\\Users\\DXenu\\Desktop\\box\\demo_contract\\contracts\\templates\\Basic.sol",
  "compiler": {
    "name": "solc",
    "version": "0.4.21+commit.dfe3193c.Emscripten.clang"
  },
  "schemaVersion": "2.0.0",
  "updatedAt": "2018-04-21T04:13:53.931Z"
}