{
  "contractName": "Certificates",
  "abi": [
    {
      "constant": true,
      "inputs": [],
      "name": "validate",
      "outputs": [
        {
          "name": "",
          "type": "bool"
        }
      ],
      "payable": false,
      "stateMutability": "view",
      "type": "function"
    },
    {
      "constant": true,
      "inputs": [],
      "name": "reserves",
      "outputs": [
        {
          "name": "",
          "type": "uint256"
        }
      ],
      "payable": false,
      "stateMutability": "view",
      "type": "function"
    },
    {
      "constant": true,
      "inputs": [],
      "name": "owner",
      "outputs": [
        {
          "name": "",
          "type": "address"
        }
      ],
      "payable": false,
      "stateMutability": "view",
      "type": "function"
    },
    {
      "constant": false,
      "inputs": [
        {
          "name": "newOwner",
          "type": "address"
        }
      ],
      "name": "transferOwnership",
      "outputs": [],
      "payable": false,
      "stateMutability": "nonpayable",
      "type": "function"
    },
    {
      "anonymous": false,
      "inputs": [
        {
          "indexed": true,
          "name": "previousOwner",
          "type": "address"
        },
        {
          "indexed": true,
          "name": "newOwner",
          "type": "address"
        }
      ],
      "name": "OwnershipTransferred",
      "type": "event"
    },
    {
      "constant": false,
      "inputs": [
        {
          "name": "_url",
          "type": "bytes32"
        },
        {
          "name": "_amount",
          "type": "uint256"
        }
      ],
      "name": "addCertificate",
      "outputs": [],
      "payable": false,
      "stateMutability": "nonpayable",
      "type": "function"
    },
    {
      "constant": true,
      "inputs": [],
      "name": "getCertificatesLength",
      "outputs": [
        {
          "name": "",
          "type": "uint256"
        }
      ],
      "payable": false,
      "stateMutability": "view",
      "type": "function"
    },
    {
      "constant": true,
      "inputs": [
        {
          "name": "_index",
          "type": "uint256"
        }
      ],
      "name": "getCertificate",
      "outputs": [
        {
          "name": "",
          "type": "bytes32"
        },
        {
          "name": "",
          "type": "uint256"
        },
        {
          "name": "",
          "type": "uint256"
        }
      ],
      "payable": false,
      "stateMutability": "view",
      "type": "function"
    },
    {
      "constant": false,
      "inputs": [
        {
          "name": "_index",
          "type": "uint256"
        }
      ],
      "name": "deleteCertificate",
      "outputs": [],
      "payable": false,
      "stateMutability": "nonpayable",
      "type": "function"
    }
  ],
  "bytecode": "0x6060604052600060018190558054600160a060020a033316600160a060020a0319909116179055610584806100356000396000f30060606040526004361061008d5763ffffffff7c010000000000000000000000000000000000000000000000000000000060003504166347c9e356811461009257806351640fee146100ad5780636901f668146100e757806375172a8b1461010e578063883eeb6e146101335780638da5cb5b14610149578063c503b4da14610178578063f2fde38b1461018b575b600080fd5b341561009d57600080fd5b6100ab6004356024356101aa565b005b34156100b857600080fd5b6100c360043561024d565b60405192835260208301919091526040808301919091526060909101905180910390f35b34156100f257600080fd5b6100fa6102d5565b604051901515815260200160405180910390f35b341561011957600080fd5b6101216102eb565b60405190815260200160405180910390f35b341561013e57600080fd5b6100ab6004356102f1565b341561015457600080fd5b61015c6103e1565b604051600160a060020a03909116815260200160405180910390f35b341561018357600080fd5b6101216103f0565b341561019657600080fd5b6100ab600160a060020a0360043516610413565b6101b26104dc565b60005433600160a060020a039081169116146101cd57600080fd5b6060604051908101604052808460001916815260200183815260200142815250905061020681602001516001549063ffffffff6104ae16565b6001908155600280549091810161021d83826104fc565b60009283526020909220839160030201815181556020820151816001015560408201518160020155505050505050565b600080600061025a6104dc565b60005433600160a060020a0390811691161461027557600080fd5b600280548690811061028357fe5b9060005260206000209060030201606060405190810160409081528254825260018301546020830152600290920154918101919091529050805181602001518260400151935093509350509193909250565b60005433600160a060020a039081169116145b90565b60015481565b60005433600160a060020a0390811691161461030c57600080fd5b600060028281548110151561031d57fe5b9060005260206000209060030201600101541015151561033c57600080fd5b61037160028281548110151561034e57fe5b9060005260206000209060030201600101546001546104c790919063ffffffff16565b60015560028054600019810190811061038657fe5b90600052602060002090600302016002828154811015156103a357fe5b60009182526020909120825460039092020190815560018083015490820155600291820154908201558054906103dd9060001983016104fc565b5050565b600054600160a060020a031681565b6000805433600160a060020a0390811691161461040c57600080fd5b5060025490565b60005433600160a060020a0390811691161461042e57600080fd5b600160a060020a038116151561044357600080fd5b600054600160a060020a0380831691167f8be0079c531659141344cd1fd0a4f28419497f9722a3daafe3b4186f6b6457e060405160405180910390a36000805473ffffffffffffffffffffffffffffffffffffffff1916600160a060020a0392909216919091179055565b6000828201838110156104c057600080fd5b9392505050565b6000828211156104d657600080fd5b50900390565b606060405190810160409081526000808352602083018190529082015290565b81548183558181151161052857600302816003028360005260206000209182019101610528919061052d565b505050565b6102e891905b80821115610554576000808255600182018190556002820155600301610533565b50905600a165627a7a72305820a60d6a43679c73f263dbbe5e1c94ca1a07c27cd11d55ed6859f66eee65a14a320029",
  "source": "pragma solidity ^0.4.21;\r\n\r\nimport \"./zeppelin/Ownable.sol\";\r\nimport \"./zeppelin/SafeMath.sol\";\r\n// import \"zeppelin-solidity/contracts/ownership/Ownable.sol\";\r\n// import \"zeppelin-solidity/contracts/math/SafeMath.sol\";\r\n\r\n\r\ncontract Certificates is Ownable {\r\n    using SafeMath for uint;\r\n\r\n    struct Certificate {\r\n        bytes32 url;\r\n        uint amount;\r\n        uint timestamp;\r\n    }\r\n\r\n    uint public reserves = 0;\r\n\r\n    Certificate[] certificates;\r\n\r\n    function addCertificate(bytes32 _url, uint _amount) public onlyOwner {\r\n        Certificate memory certificate = Certificate({\r\n            url: _url,\r\n            amount: _amount,\r\n            timestamp: now\r\n        });\r\n\r\n        reserves = reserves.add(certificate.amount);\r\n\r\n        certificates.push(certificate);\r\n    }\r\n\r\n    function getCertificatesLength() public constant onlyOwner returns (uint) {\r\n        return certificates.length;\r\n    }\r\n\r\n    function getCertificate(uint _index) public constant onlyOwner returns (bytes32, uint, uint) {\r\n        Certificate memory certificate = certificates[_index];\r\n        return (\r\n            certificate.url,\r\n            certificate.amount,\r\n            certificate.timestamp\r\n        );\r\n    }\r\n\r\n    function deleteCertificate(uint _index) public onlyOwner {\r\n        require(certificates[_index].amount >= 0);\r\n\r\n        reserves = reserves.sub(certificates[_index].amount);\r\n\r\n        certificates[_index] = certificates[certificates.length-1];\r\n        certificates.length--;\r\n    }\r\n\r\n}\r\n",
  "sourcePath": "C:\\Users\\DXenu\\Desktop\\box\\demo_contract\\contracts\\Certificate.sol",
  "compiler": {
    "name": "solc",
    "version": "0.4.21+commit.dfe3193c.Emscripten.clang"
  },
  "schemaVersion": "2.0.0",
  "updatedAt": "2018-04-16T13:47:53.842Z"
}