{
  "contractName": "Console",
  "abi": [
    {
      "anonymous": false,
      "inputs": [
        {
          "indexed": false,
          "name": "",
          "type": "string"
        },
        {
          "indexed": false,
          "name": "",
          "type": "uint256"
        }
      ],
      "name": "LogUint",
      "type": "event"
    },
    {
      "anonymous": false,
      "inputs": [
        {
          "indexed": false,
          "name": "",
          "type": "string"
        },
        {
          "indexed": false,
          "name": "",
          "type": "int256"
        }
      ],
      "name": "LogInt",
      "type": "event"
    },
    {
      "anonymous": false,
      "inputs": [
        {
          "indexed": false,
          "name": "",
          "type": "string"
        },
        {
          "indexed": false,
          "name": "",
          "type": "bytes"
        }
      ],
      "name": "LogBytes",
      "type": "event"
    },
    {
      "anonymous": false,
      "inputs": [
        {
          "indexed": false,
          "name": "",
          "type": "string"
        },
        {
          "indexed": false,
          "name": "",
          "type": "bytes32"
        }
      ],
      "name": "LogBytes32",
      "type": "event"
    },
    {
      "anonymous": false,
      "inputs": [
        {
          "indexed": false,
          "name": "",
          "type": "string"
        },
        {
          "indexed": false,
          "name": "",
          "type": "address"
        }
      ],
      "name": "LogAddress",
      "type": "event"
    },
    {
      "anonymous": false,
      "inputs": [
        {
          "indexed": false,
          "name": "",
          "type": "string"
        },
        {
          "indexed": false,
          "name": "",
          "type": "bool"
        }
      ],
      "name": "LogBool",
      "type": "event"
    },
    {
      "constant": false,
      "inputs": [
        {
          "name": "s",
          "type": "string"
        },
        {
          "name": "x",
          "type": "bytes"
        }
      ],
      "name": "log",
      "outputs": [],
      "payable": false,
      "stateMutability": "nonpayable",
      "type": "function"
    },
    {
      "constant": false,
      "inputs": [
        {
          "name": "s",
          "type": "string"
        },
        {
          "name": "x",
          "type": "address"
        }
      ],
      "name": "log",
      "outputs": [],
      "payable": false,
      "stateMutability": "nonpayable",
      "type": "function"
    },
    {
      "constant": false,
      "inputs": [
        {
          "name": "s",
          "type": "string"
        },
        {
          "name": "x",
          "type": "bytes32"
        }
      ],
      "name": "log",
      "outputs": [],
      "payable": false,
      "stateMutability": "nonpayable",
      "type": "function"
    },
    {
      "constant": false,
      "inputs": [
        {
          "name": "s",
          "type": "string"
        },
        {
          "name": "x",
          "type": "int256"
        }
      ],
      "name": "log",
      "outputs": [],
      "payable": false,
      "stateMutability": "nonpayable",
      "type": "function"
    },
    {
      "constant": false,
      "inputs": [
        {
          "name": "s",
          "type": "string"
        },
        {
          "name": "x",
          "type": "uint256"
        }
      ],
      "name": "log",
      "outputs": [],
      "payable": false,
      "stateMutability": "nonpayable",
      "type": "function"
    },
    {
      "constant": false,
      "inputs": [
        {
          "name": "s",
          "type": "string"
        },
        {
          "name": "x",
          "type": "bool"
        }
      ],
      "name": "log",
      "outputs": [],
      "payable": false,
      "stateMutability": "nonpayable",
      "type": "function"
    }
  ],
  "bytecode": "0x6060604052341561000f57600080fd5b61064a8061001e6000396000f3006060604052600436106100775763ffffffff7c010000000000000000000000000000000000000000000000000000000060003504166323cdd8e8811461007c578063319af333146101115780633692d61a1461017a5780633ca6268e146101cd578063b60e72cc14610220578063c3b5563514610273575b600080fd5b341561008757600080fd5b61010f60046024813581810190830135806020601f8201819004810201604051908101604052818152929190602084018383808284378201915050505050509190803590602001908201803590602001908080601f0160208091040260200160405190810160405281815292919060208401838380828437509496506102c895505050505050565b005b341561011c57600080fd5b61010f60046024813581810190830135806020601f820181900481020160405190810160405281815292919060208401838380828437509496505050923573ffffffffffffffffffffffffffffffffffffffff1692506103cf915050565b341561018557600080fd5b61010f60046024813581810190830135806020601f82018190048102016040519081016040528181529291906020840183838082843750949650509335935061048992505050565b34156101d857600080fd5b61010f60046024813581810190830135806020601f8201819004810201604051908101604052818152929190602084018383808284375094965050933593506104ee92505050565b341561022b57600080fd5b61010f60046024813581810190830135806020601f82018190048102016040519081016040528181529291906020840183838082843750949650509335935061055392505050565b341561027e57600080fd5b61010f60046024813581810190830135806020601f820181900481020160405190810160405281815292919060208401838380828437509496505050509135151591506105b89050565b7fe8407a0209fa99ec3a7228aff140c3d3e68bd279391739c7e0b65cd406cc93b58282604051808060200180602001838103835285818151815260200191508051906020019080838360005b8381101561032c578082015183820152602001610314565b50505050905090810190601f1680156103595780820380516001836020036101000a031916815260200191505b50838103825284818151815260200191508051906020019080838360005b8381101561038f578082015183820152602001610377565b50505050905090810190601f1680156103bc5780820380516001836020036101000a031916815260200191505b5094505050505060405180910390a15050565b7f62ddffe5b5108385f7a590f100e1ee414ad9551a31f089e64e82998440785e1e828260405173ffffffffffffffffffffffffffffffffffffffff8216602082015260408082528190810184818151815260200191508051906020019080838360005b8381101561044a578082015183820152602001610432565b50505050905090810190601f1680156104775780820380516001836020036101000a031916815260200191505b50935050505060405180910390a15050565b7f02d93529bba9d141e5e06733c52c7e6fbcb1149586adb5c24064b522ab26f1d782826040516020810182905260408082528190810184818151815260200191508051906020019080838360008381101561044a578082015183820152602001610432565b7f6a837ff3973aa4181e7b9f07756f8b7ee366dd85a36655d2cb42cd47f10b963882826040518080602001838152602001828103825284818151815260200191508051906020019080838360008381101561044a578082015183820152602001610432565b7f941296a39ea107bde685522318a4b6c2b544904a5dd82a512748ca2cf839bef782826040518080602001838152602001828103825284818151815260200191508051906020019080838360008381101561044a578082015183820152602001610432565b7f4c34c2f9a78632f29fa59aaed5514cb742fd9fbcfd7ccc2c03c85f2bbc621c478282604051811515602082015260408082528190810184818151815260200191508051906020019080838360008381101561044a5780820151838201526020016104325600a165627a7a7230582053fcd073cd45334c73f685d31146d722a3fb2291dbd47630654fbe0b6690869d0029",
  "source": "pragma solidity ^0.4.21;\r\n\r\n\r\ncontract Console {\r\n    event LogUint(string, uint);\r\n    event LogInt(string, int);\r\n    event LogBytes(string, bytes);\r\n    event LogBytes32(string, bytes32);\r\n    event LogAddress(string, address);\r\n    event LogBool(string, bool);\r\n\r\n    function log(string s, uint x) public {\r\n        emit LogUint(s, x);\r\n    }\r\n    \r\n    function log(string s, int x) public {\r\n        emit LogInt(s, x);\r\n    }\r\n    \r\n    function log(string s, bytes x) public {\r\n        emit LogBytes(s, x);\r\n    }\r\n    \r\n    function log(string s, bytes32 x) public {\r\n        emit LogBytes32(s, x);\r\n    }\r\n\r\n    function log(string s, address x) public {\r\n        emit LogAddress(s, x);\r\n    }\r\n\r\n    function log(string s, bool x) public {\r\n        emit LogBool(s, x);\r\n    }\r\n\r\n}\r\n",
  "sourcePath": "C:\\Users\\DXenu\\Desktop\\box\\demo_contract\\contracts\\utils\\Console.sol",
  "compiler": {
    "name": "solc",
    "version": "0.4.21+commit.dfe3193c.Emscripten.clang"
  },
  "schemaVersion": "2.0.0",
  "updatedAt": "2018-04-20T19:24:28.693Z"
}