{
  "contractName": "Equipments",
  "abi": [
    {
      "constant": false,
      "inputs": [
        {
          "name": "_addr",
          "type": "address"
        }
      ],
      "name": "deleteUser",
      "outputs": [
        {
          "name": "index",
          "type": "uint256"
        }
      ],
      "payable": false,
      "stateMutability": "nonpayable",
      "type": "function"
    },
    {
      "constant": true,
      "inputs": [],
      "name": "validate",
      "outputs": [
        {
          "name": "",
          "type": "bool"
        }
      ],
      "payable": false,
      "stateMutability": "view",
      "type": "function"
    },
    {
      "constant": true,
      "inputs": [
        {
          "name": "_addr",
          "type": "address"
        }
      ],
      "name": "getUser",
      "outputs": [
        {
          "name": "index",
          "type": "uint256"
        },
        {
          "name": "email",
          "type": "bytes32"
        },
        {
          "name": "firstName",
          "type": "bytes32"
        },
        {
          "name": "lastName",
          "type": "bytes32"
        }
      ],
      "payable": false,
      "stateMutability": "view",
      "type": "function"
    },
    {
      "constant": true,
      "inputs": [],
      "name": "owner",
      "outputs": [
        {
          "name": "",
          "type": "address"
        }
      ],
      "payable": false,
      "stateMutability": "view",
      "type": "function"
    },
    {
      "constant": false,
      "inputs": [
        {
          "name": "_addr",
          "type": "address"
        },
        {
          "name": "_email",
          "type": "bytes32"
        },
        {
          "name": "_firstName",
          "type": "bytes32"
        },
        {
          "name": "_lastName",
          "type": "bytes32"
        }
      ],
      "name": "updateUser",
      "outputs": [
        {
          "name": "",
          "type": "bool"
        }
      ],
      "payable": false,
      "stateMutability": "nonpayable",
      "type": "function"
    },
    {
      "constant": true,
      "inputs": [],
      "name": "getUserCount",
      "outputs": [
        {
          "name": "count",
          "type": "uint256"
        }
      ],
      "payable": false,
      "stateMutability": "view",
      "type": "function"
    },
    {
      "constant": false,
      "inputs": [
        {
          "name": "newOwner",
          "type": "address"
        }
      ],
      "name": "transferOwnership",
      "outputs": [],
      "payable": false,
      "stateMutability": "nonpayable",
      "type": "function"
    },
    {
      "constant": true,
      "inputs": [
        {
          "name": "_addr",
          "type": "address"
        }
      ],
      "name": "existsUser",
      "outputs": [
        {
          "name": "isIndexed",
          "type": "bool"
        }
      ],
      "payable": false,
      "stateMutability": "view",
      "type": "function"
    },
    {
      "constant": false,
      "inputs": [
        {
          "name": "_addr",
          "type": "address"
        },
        {
          "name": "_email",
          "type": "bytes32"
        },
        {
          "name": "_firstName",
          "type": "bytes32"
        },
        {
          "name": "_lastName",
          "type": "bytes32"
        }
      ],
      "name": "newtUser",
      "outputs": [
        {
          "name": "index",
          "type": "uint256"
        }
      ],
      "payable": false,
      "stateMutability": "nonpayable",
      "type": "function"
    },
    {
      "constant": true,
      "inputs": [
        {
          "name": "index",
          "type": "uint256"
        }
      ],
      "name": "getUserAtIndex",
      "outputs": [
        {
          "name": "_addr",
          "type": "address"
        }
      ],
      "payable": false,
      "stateMutability": "view",
      "type": "function"
    },
    {
      "inputs": [],
      "payable": false,
      "stateMutability": "nonpayable",
      "type": "constructor"
    },
    {
      "anonymous": false,
      "inputs": [
        {
          "indexed": true,
          "name": "_addr",
          "type": "address"
        },
        {
          "indexed": true,
          "name": "_userAddr",
          "type": "address"
        },
        {
          "indexed": false,
          "name": "_index",
          "type": "uint256"
        },
        {
          "indexed": false,
          "name": "_kwh",
          "type": "uint8"
        },
        {
          "indexed": false,
          "name": "_price",
          "type": "uint16"
        }
      ],
      "name": "NewEquipment",
      "type": "event"
    },
    {
      "anonymous": false,
      "inputs": [
        {
          "indexed": true,
          "name": "_addr",
          "type": "address"
        },
        {
          "indexed": true,
          "name": "_userAddr",
          "type": "address"
        },
        {
          "indexed": false,
          "name": "_index",
          "type": "uint256"
        },
        {
          "indexed": false,
          "name": "_kwh",
          "type": "uint8"
        },
        {
          "indexed": false,
          "name": "_price",
          "type": "uint16"
        }
      ],
      "name": "UpdateEquipment",
      "type": "event"
    },
    {
      "anonymous": false,
      "inputs": [
        {
          "indexed": true,
          "name": "_addr",
          "type": "address"
        },
        {
          "indexed": false,
          "name": "_index",
          "type": "uint256"
        }
      ],
      "name": "DeleteEquipment",
      "type": "event"
    },
    {
      "anonymous": false,
      "inputs": [
        {
          "indexed": true,
          "name": "_addr",
          "type": "address"
        },
        {
          "indexed": false,
          "name": "_index",
          "type": "uint256"
        },
        {
          "indexed": false,
          "name": "_email",
          "type": "bytes32"
        },
        {
          "indexed": false,
          "name": "_firstName",
          "type": "bytes32"
        },
        {
          "indexed": false,
          "name": "_lastName",
          "type": "bytes32"
        }
      ],
      "name": "NewUser",
      "type": "event"
    },
    {
      "anonymous": false,
      "inputs": [
        {
          "indexed": true,
          "name": "_addr",
          "type": "address"
        },
        {
          "indexed": false,
          "name": "_index",
          "type": "uint256"
        },
        {
          "indexed": false,
          "name": "_email",
          "type": "bytes32"
        },
        {
          "indexed": false,
          "name": "_firstName",
          "type": "bytes32"
        },
        {
          "indexed": false,
          "name": "_lastName",
          "type": "bytes32"
        }
      ],
      "name": "UpdateUser",
      "type": "event"
    },
    {
      "anonymous": false,
      "inputs": [
        {
          "indexed": true,
          "name": "_addr",
          "type": "address"
        },
        {
          "indexed": false,
          "name": "_index",
          "type": "uint256"
        }
      ],
      "name": "DeleteUser",
      "type": "event"
    },
    {
      "anonymous": false,
      "inputs": [
        {
          "indexed": true,
          "name": "previousOwner",
          "type": "address"
        },
        {
          "indexed": true,
          "name": "newOwner",
          "type": "address"
        }
      ],
      "name": "OwnershipTransferred",
      "type": "event"
    },
    {
      "constant": true,
      "inputs": [
        {
          "name": "_addr",
          "type": "address"
        }
      ],
      "name": "existsEquipment",
      "outputs": [
        {
          "name": "isIndexed",
          "type": "bool"
        }
      ],
      "payable": false,
      "stateMutability": "view",
      "type": "function"
    },
    {
      "constant": false,
      "inputs": [
        {
          "name": "_addr",
          "type": "address"
        },
        {
          "name": "_userAddr",
          "type": "address"
        },
        {
          "name": "_kwh",
          "type": "uint8"
        },
        {
          "name": "_price",
          "type": "uint16"
        }
      ],
      "name": "newEquipment",
      "outputs": [
        {
          "name": "index",
          "type": "uint256"
        }
      ],
      "payable": false,
      "stateMutability": "nonpayable",
      "type": "function"
    },
    {
      "constant": true,
      "inputs": [
        {
          "name": "_addr",
          "type": "address"
        }
      ],
      "name": "getEquipment",
      "outputs": [
        {
          "name": "index",
          "type": "uint256"
        },
        {
          "name": "kwh",
          "type": "uint8"
        },
        {
          "name": "price",
          "type": "uint16"
        },
        {
          "name": "userId",
          "type": "address"
        }
      ],
      "payable": false,
      "stateMutability": "view",
      "type": "function"
    },
    {
      "constant": false,
      "inputs": [
        {
          "name": "_addr",
          "type": "address"
        },
        {
          "name": "_userAddr",
          "type": "address"
        },
        {
          "name": "_kwh",
          "type": "uint8"
        },
        {
          "name": "_price",
          "type": "uint16"
        }
      ],
      "name": "updateEquipment",
      "outputs": [
        {
          "name": "",
          "type": "bool"
        }
      ],
      "payable": false,
      "stateMutability": "nonpayable",
      "type": "function"
    },
    {
      "constant": false,
      "inputs": [
        {
          "name": "_addr",
          "type": "address"
        },
        {
          "name": "_userAddr",
          "type": "address"
        }
      ],
      "name": "deleteEquipment",
      "outputs": [
        {
          "name": "index",
          "type": "uint256"
        }
      ],
      "payable": false,
      "stateMutability": "nonpayable",
      "type": "function"
    },
    {
      "constant": true,
      "inputs": [],
      "name": "getEquipmentCount",
      "outputs": [
        {
          "name": "count",
          "type": "uint256"
        }
      ],
      "payable": false,
      "stateMutability": "view",
      "type": "function"
    },
    {
      "constant": true,
      "inputs": [
        {
          "name": "index",
          "type": "uint256"
        }
      ],
      "name": "getEquipmentAtIndex",
      "outputs": [
        {
          "name": "_addr",
          "type": "address"
        }
      ],
      "payable": false,
      "stateMutability": "view",
      "type": "function"
    }
  ],
  "bytecode": "0x6060604052341561000f57600080fd5b60008054600160a060020a033316600160a060020a0319909116179055610f6d8061003b6000396000f3006060604052600436106100f05763ffffffff7c01000000000000000000000000000000000000000000000000000000006000350416631a4f36c581146100f55780631aeb4c561461012c578063216d9fce146101725780635c60f226146101a45780636901f668146101c35780636f77926b146101d65780637b2f8f9b146102215780638da5cb5b1461027a5780639bd19ca91461028d578063b5cb15f7146102b5578063e9ae7693146102c8578063ecac1174146102fa578063f2fde38b14610319578063f409e87d1461033a578063f53f35ff14610359578063ff67dada14610381578063ffcc7bbf14610394575b600080fd5b341561010057600080fd5b61011a600160a060020a03600435811690602435166103aa565b60405190815260200160405180910390f35b341561013757600080fd5b61015e600160a060020a036004358116906024351660ff6044351661ffff60643516610580565b604051901515815260200160405180910390f35b341561017d57600080fd5b610188600435610685565b604051600160a060020a03909116815260200160405180910390f35b34156101af57600080fd5b61011a600160a060020a03600435166106b3565b34156101ce57600080fd5b61015e61087d565b34156101e157600080fd5b6101f5600160a060020a0360043516610893565b604051938452602084019290925260408084019190915260608301919091526080909101905180910390f35b341561022c57600080fd5b610240600160a060020a0360043516610929565b60405193845260ff909216602084015261ffff16604080840191909152600160a060020a0390911660608301526080909101905180910390f35b341561028557600080fd5b610188610987565b341561029857600080fd5b61015e600160a060020a0360043516602435604435606435610996565b34156102c057600080fd5b61011a610a7e565b34156102d357600080fd5b61011a600160a060020a036004358116906024351660ff6044351661ffff60643516610a84565b341561030557600080fd5b61015e600160a060020a0360043516610c77565b341561032457600080fd5b610338600160a060020a0360043516610ccf565b005b341561034557600080fd5b61015e600160a060020a0360043516610d6a565b341561036457600080fd5b61011a600160a060020a0360043516602435604435606435610da6565b341561038c57600080fd5b61011a610eca565b341561039f57600080fd5b610188600435610ed0565b600080548190819033600160a060020a039081169116146103ca57600080fd5b8380600160a060020a031633600160a060020a03161415156103eb57600080fd5b6103f486610c77565b151560011461040257600080fd5b600160a060020a0386166000908152600360205260409020546004805491945090600019810190811061043157fe5b60009182526020909120015460048054600160a060020a03909216935083918590811061045a57fe5b6000918252602080832091909101805473ffffffffffffffffffffffffffffffffffffffff1916600160a060020a03948516179055918416815260039091526040902083905560048054906104b3906000198301610efa565b5085600160a060020a03167fd148fe57b3fff28741992aeda9478edbabac766349efe9845531a6c5a49436f18460405190815260200160405180910390a2600160a060020a03828116600081815260036020526040908190206001015463010000008104909316927f0a4c250e9de61a8a976cda60c9c8f15010b642fba1c79edaa71c8a14764d576491879160ff81169161010090910461ffff16905192835260ff909116602083015261ffff166040808301919091526060909101905180910390a35090949350505050565b6000805433600160a060020a0390811691161461059c57600080fd5b8380600160a060020a031633600160a060020a03161415156105bd57600080fd5b6105c686610c77565b15156001146105d457600080fd5b6105dd85610d6a565b15156001146105eb57600080fd5b600160a060020a038681166000818152600360205260409081902060018101805460ff191660ff8a161762ffff00191661010061ffff8a160217905554928816927f0a4c250e9de61a8a976cda60c9c8f15010b642fba1c79edaa71c8a14764d576491889088905192835260ff909116602083015261ffff166040808301919091526060909101905180910390a350600195945050505050565b600060048281548110151561069657fe5b600091825260209091200154600160a060020a031690505b919050565b600080548190819033600160a060020a039081169116146106d357600080fd5b8380600160a060020a031633600160a060020a03161415156106f457600080fd5b6106fd85610d6a565b151560011461070b57600080fd5b600160a060020a0385166000908152600160205260409020546002805491945090600019810190811061073a57fe5b60009182526020909120015460028054600160a060020a03909216935083918590811061076357fe5b6000918252602080832091909101805473ffffffffffffffffffffffffffffffffffffffff1916600160a060020a03948516179055918416815260019091526040902083905560028054906107bc906000198301610efa565b5084600160a060020a03167f117183c06981515bdfa0b70d0448d8eb6ba07648cda62ab7c2b4361eeff80a1b8460405190815260200160405180910390a2600160a060020a0382166000818152600160208190526040918290209081015460028201546003909201547f36cd692caa63e05d06ec64ae3a07dffe3b224fecb32af5fa7bc1469f5bcdde57938893919051938452602084019290925260408084019190915260608301919091526080909101905180910390a250909392505050565b60005433600160a060020a039081169116145b90565b6000805481908190819033600160a060020a039081169116146108b557600080fd5b8480600160a060020a031633600160a060020a03161415156108d657600080fd5b6108df86610d6a565b15156001146108ed57600080fd5b50505050600160a060020a0391909116600090815260016020819052604090912080549181015460028201546003909201549294909350909190565b60008060008061093885610c77565b151560011461094657600080fd5b50505050600160a060020a0390811660009081526003602052604090208054600190910154909260ff821692610100830461ffff1692630100000090041690565b600054600160a060020a031681565b6000805433600160a060020a039081169116146109b257600080fd5b8480600160a060020a031633600160a060020a03161415156109d357600080fd5b8484846109df89610d6a565b15156001146109ed57600080fd5b600160a060020a0389166000818152600160208190526040918290209081018b9055600281018a905560038101899055547f36cd692caa63e05d06ec64ae3a07dffe3b224fecb32af5fa7bc1469f5bcdde57918b908b908b9051938452602084019290925260408084019190915260608301919091526080909101905180910390a250600198975050505050505050565b60025490565b6000805433600160a060020a03908116911614610aa057600080fd5b8380600160a060020a031633600160a060020a0316141515610ac157600080fd5b610aca86610c77565b15610ad457600080fd5b610add86610d6a565b1515600114610aeb57600080fd5b600160a060020a0386811660009081526003602052604090206001908101805460ff191660ff88161762ffff00191661010061ffff8816021776ffffffffffffffffffffffffffffffffffffffff00000019166301000000938916939093029290921790915560048054808301610b628382610efa565b6000928352602080842092909201805473ffffffffffffffffffffffffffffffffffffffff1916600160a060020a038c81169182179092558085526003909352604093849020949091039384905588169290917f33e6002de33fb59e2bee761013a061b0a46de2ff5fbc0fe7c5783203ee867ab99190889088905192835260ff909116602083015261ffff166040808301919091526060909101905180910390a3600160a060020a0386166000908152600160208190526040909120600501805490918101610c318382610efa565b5060009182526020909120018054600160a060020a03881673ffffffffffffffffffffffffffffffffffffffff1990911617905560045460001901915050949350505050565b6004546000901515610c8b575060006106ae565b600160a060020a038216600081815260036020526040902054600480549091908110610cb357fe5b600091825260209091200154600160a060020a03161492915050565b60005433600160a060020a03908116911614610cea57600080fd5b600160a060020a0381161515610cff57600080fd5b600054600160a060020a0380831691167f8be0079c531659141344cd1fd0a4f28419497f9722a3daafe3b4186f6b6457e060405160405180910390a36000805473ffffffffffffffffffffffffffffffffffffffff1916600160a060020a0392909216919091179055565b6002546000901515610d7e575060006106ae565b600160a060020a038216600081815260016020526040902054600280549091908110610cb357fe5b60008360005433600160a060020a03908116911614610dc457600080fd5b8383610dcf88610d6a565b15610dd957600080fd5b600160a060020a0388166000908152600160208190526040909120808201899055600280820189905560039091018790558054808301610e198382610efa565b6000928352602080842092909201805473ffffffffffffffffffffffffffffffffffffffff1916600160a060020a038e16908117909155808452600190925260409283902093900392839055917f78b833eacd29aac1183e31c8289157ed550f3b1f9f1526bf2055ef195cac287f918a908a908a9051938452602084019290925260408084019190915260608301919091526080909101905180910390a25050600254600019019695505050505050565b60045490565b6000805433600160a060020a03908116911614610eec57600080fd5b600280548390811061069657fe5b815481835581811511610f1e57600083815260209020610f1e918101908301610f23565b505050565b61089091905b80821115610f3d5760008155600101610f29565b50905600a165627a7a723058203f536afbf291a2113c941bde4ff5befc6615b6546a61eb0c6772d689bf245f4b0029",
  "source": "pragma solidity ^0.4.21;\r\n\r\nimport \"./zeppelin/MintableToken.sol\";\r\nimport \"./zeppelin/Ownable.sol\";\r\nimport \"./zeppelin/SafeMath.sol\";\r\n// import \"zeppelin-solidity/contracts/token/ERC20/MintableToken.sol\";\r\n// import \"zeppelin-solidity/contracts/ownership/Ownable.sol\";\r\n// import \"zeppelin-solidity/contracts/math/SafeMath.sol\";\r\nimport \"./User.sol\";\r\n\r\n\r\ncontract Equipments is Ownable, User {\r\n    using SafeMath for uint;\r\n\r\n    struct EquipmentStruct {\r\n        uint index;\r\n        uint8 kwh;\r\n        uint16 price;\r\n        address userId;\r\n    }\r\n\r\n    event NewEquipment(address indexed _addr, address indexed _userAddr, uint _index, uint8 _kwh, uint16 _price);\r\n    event UpdateEquipment(address indexed _addr, address indexed _userAddr, uint _index, uint8 _kwh, uint16 _price);\r\n    event DeleteEquipment(address indexed _addr,  uint _index);\r\n    \r\n    mapping(address => EquipmentStruct) equipments;\r\n    address[] private equipmentIndex;\r\n\r\n    function Equipments() public {\r\n    }\r\n\r\n    function existsEquipment(address _addr) public constant returns(bool isIndexed) {\r\n        if(equipmentIndex.length == 0) return false;\r\n        return (equipmentIndex[equipments[_addr].index] == _addr);\r\n    }\r\n\r\n    function newEquipment(address _addr, address _userAddr, uint8 _kwh, uint16 _price)\r\n    onlyOwner\r\n    onlyBy(_userAddr)\r\n    public\r\n    returns(uint index) {\r\n        require(existsEquipment(_addr) == false);\r\n        require(existsUser(_addr) == true);\r\n        equipments[_addr].kwh = _kwh;\r\n        equipments[_addr].price = _price;\r\n        equipments[_addr].userId = _userAddr;\r\n        equipments[_addr].index = equipmentIndex.push(_addr) - 1;\r\n        emit NewEquipment(_addr, _userAddr, equipments[_addr].index, _kwh, _price);\r\n        users[_addr].equipmentId.push(_addr);\r\n        return equipmentIndex.length - 1;\r\n    }\r\n\r\n    function getEquipment(address _addr)\r\n    public\r\n    constant\r\n    returns(uint index, uint8 kwh, uint16 price, address userId) {\r\n        require(existsEquipment(_addr) == true);\r\n        return(\r\n            equipments[_addr].index,\r\n            equipments[_addr].kwh,\r\n            equipments[_addr].price,\r\n            equipments[_addr].userId\r\n        );\r\n    }\r\n\r\n    function updateEquipment(address _addr, address _userAddr, uint8 _kwh, uint16 _price)\r\n    public\r\n    onlyOwner\r\n    onlyBy(_userAddr)\r\n    returns(bool) {\r\n        require(existsEquipment(_addr) == true);\r\n        require(existsUser(_userAddr) == true);\r\n        equipments[_addr].kwh = _kwh;\r\n        equipments[_addr].price = _price;\r\n        emit UpdateEquipment(_addr, _userAddr, equipments[_addr].index, _kwh, _price);\r\n        return true;\r\n    }\r\n\r\n    function deleteEquipment(address _addr, address _userAddr)\r\n    public\r\n    onlyOwner\r\n    onlyBy(_userAddr)\r\n    returns(uint index) {\r\n        require(existsEquipment(_addr) == true);\r\n        uint _rowToDelete = equipments[_addr].index;\r\n        address _keyToMove = equipmentIndex[equipmentIndex.length - 1];\r\n        equipmentIndex[_rowToDelete] = _keyToMove;\r\n        equipments[_keyToMove].index = _rowToDelete; \r\n        equipmentIndex.length--;\r\n        emit DeleteEquipment(_addr, _rowToDelete);\r\n        emit UpdateEquipment(_keyToMove, equipments[_keyToMove].userId, _rowToDelete, equipments[_keyToMove].kwh, equipments[_keyToMove].price);\r\n        return _rowToDelete;\r\n    }\r\n\r\n    function getEquipmentCount() public constant returns(uint count) {\r\n        return equipmentIndex.length;\r\n    }\r\n\r\n    function getEquipmentAtIndex(uint index) public  constant returns(address _addr) {\r\n        return equipmentIndex[index];\r\n    }\r\n\r\n}\r\n",
  "sourcePath": "C:\\Users\\DXenu\\Desktop\\box\\demo_contract\\contracts\\Equipment.sol",
  "compiler": {
    "name": "solc",
    "version": "0.4.21+commit.dfe3193c.Emscripten.clang"
  },
  "schemaVersion": "2.0.0",
  "updatedAt": "2018-04-16T13:47:53.846Z"
}