{
  "contractName": "Equipment",
  "abi": [
    {
      "constant": false,
      "inputs": [
        {
          "name": "_addr",
          "type": "address"
        }
      ],
      "name": "deleteUser",
      "outputs": [
        {
          "name": "index",
          "type": "uint256"
        }
      ],
      "payable": false,
      "stateMutability": "nonpayable",
      "type": "function"
    },
    {
      "constant": true,
      "inputs": [],
      "name": "validate",
      "outputs": [
        {
          "name": "",
          "type": "bool"
        }
      ],
      "payable": false,
      "stateMutability": "view",
      "type": "function"
    },
    {
      "constant": true,
      "inputs": [
        {
          "name": "_addr",
          "type": "address"
        }
      ],
      "name": "getUser",
      "outputs": [
        {
          "name": "index",
          "type": "uint256"
        },
        {
          "name": "email",
          "type": "bytes32"
        },
        {
          "name": "firstName",
          "type": "bytes32"
        },
        {
          "name": "lastName",
          "type": "bytes32"
        }
      ],
      "payable": false,
      "stateMutability": "view",
      "type": "function"
    },
    {
      "constant": true,
      "inputs": [],
      "name": "owner",
      "outputs": [
        {
          "name": "",
          "type": "address"
        }
      ],
      "payable": false,
      "stateMutability": "view",
      "type": "function"
    },
    {
      "constant": false,
      "inputs": [
        {
          "name": "_addr",
          "type": "address"
        },
        {
          "name": "_email",
          "type": "bytes32"
        },
        {
          "name": "_firstName",
          "type": "bytes32"
        },
        {
          "name": "_lastName",
          "type": "bytes32"
        }
      ],
      "name": "updateUser",
      "outputs": [
        {
          "name": "",
          "type": "bool"
        }
      ],
      "payable": false,
      "stateMutability": "nonpayable",
      "type": "function"
    },
    {
      "constant": true,
      "inputs": [],
      "name": "getUserCount",
      "outputs": [
        {
          "name": "count",
          "type": "uint256"
        }
      ],
      "payable": false,
      "stateMutability": "view",
      "type": "function"
    },
    {
      "constant": false,
      "inputs": [
        {
          "name": "newOwner",
          "type": "address"
        }
      ],
      "name": "transferOwnership",
      "outputs": [],
      "payable": false,
      "stateMutability": "nonpayable",
      "type": "function"
    },
    {
      "constant": true,
      "inputs": [
        {
          "name": "_addr",
          "type": "address"
        }
      ],
      "name": "existsUser",
      "outputs": [
        {
          "name": "isIndexed",
          "type": "bool"
        }
      ],
      "payable": false,
      "stateMutability": "view",
      "type": "function"
    },
    {
      "constant": false,
      "inputs": [
        {
          "name": "_addr",
          "type": "address"
        },
        {
          "name": "_email",
          "type": "bytes32"
        },
        {
          "name": "_firstName",
          "type": "bytes32"
        },
        {
          "name": "_lastName",
          "type": "bytes32"
        }
      ],
      "name": "newtUser",
      "outputs": [
        {
          "name": "index",
          "type": "uint256"
        }
      ],
      "payable": false,
      "stateMutability": "nonpayable",
      "type": "function"
    },
    {
      "constant": true,
      "inputs": [
        {
          "name": "index",
          "type": "uint256"
        }
      ],
      "name": "getUserAtIndex",
      "outputs": [
        {
          "name": "_addr",
          "type": "address"
        }
      ],
      "payable": false,
      "stateMutability": "view",
      "type": "function"
    },
    {
      "inputs": [],
      "payable": false,
      "stateMutability": "nonpayable",
      "type": "constructor"
    },
    {
      "anonymous": false,
      "inputs": [
        {
          "indexed": true,
          "name": "_addr",
          "type": "address"
        },
        {
          "indexed": true,
          "name": "_userAddr",
          "type": "address"
        },
        {
          "indexed": false,
          "name": "_index",
          "type": "uint256"
        },
        {
          "indexed": false,
          "name": "_kwh",
          "type": "uint256"
        },
        {
          "indexed": false,
          "name": "_price",
          "type": "uint256"
        }
      ],
      "name": "NewEquipment",
      "type": "event"
    },
    {
      "anonymous": false,
      "inputs": [
        {
          "indexed": true,
          "name": "_addr",
          "type": "address"
        },
        {
          "indexed": true,
          "name": "_userAddr",
          "type": "address"
        },
        {
          "indexed": false,
          "name": "_index",
          "type": "uint256"
        },
        {
          "indexed": false,
          "name": "_kwh",
          "type": "uint256"
        },
        {
          "indexed": false,
          "name": "_price",
          "type": "uint256"
        }
      ],
      "name": "UpdateEquipment",
      "type": "event"
    },
    {
      "anonymous": false,
      "inputs": [
        {
          "indexed": true,
          "name": "_addr",
          "type": "address"
        },
        {
          "indexed": false,
          "name": "_index",
          "type": "uint256"
        }
      ],
      "name": "DeleteEquipment",
      "type": "event"
    },
    {
      "anonymous": false,
      "inputs": [
        {
          "indexed": true,
          "name": "_addr",
          "type": "address"
        },
        {
          "indexed": false,
          "name": "_index",
          "type": "uint256"
        },
        {
          "indexed": false,
          "name": "_email",
          "type": "bytes32"
        },
        {
          "indexed": false,
          "name": "_firstName",
          "type": "bytes32"
        },
        {
          "indexed": false,
          "name": "_lastName",
          "type": "bytes32"
        }
      ],
      "name": "NewUser",
      "type": "event"
    },
    {
      "anonymous": false,
      "inputs": [
        {
          "indexed": true,
          "name": "_addr",
          "type": "address"
        },
        {
          "indexed": false,
          "name": "_index",
          "type": "uint256"
        },
        {
          "indexed": false,
          "name": "_email",
          "type": "bytes32"
        },
        {
          "indexed": false,
          "name": "_firstName",
          "type": "bytes32"
        },
        {
          "indexed": false,
          "name": "_lastName",
          "type": "bytes32"
        }
      ],
      "name": "UpdateUser",
      "type": "event"
    },
    {
      "anonymous": false,
      "inputs": [
        {
          "indexed": true,
          "name": "_addr",
          "type": "address"
        },
        {
          "indexed": false,
          "name": "_index",
          "type": "uint256"
        }
      ],
      "name": "DeleteUser",
      "type": "event"
    },
    {
      "anonymous": false,
      "inputs": [
        {
          "indexed": true,
          "name": "previousOwner",
          "type": "address"
        },
        {
          "indexed": true,
          "name": "newOwner",
          "type": "address"
        }
      ],
      "name": "OwnershipTransferred",
      "type": "event"
    },
    {
      "constant": true,
      "inputs": [
        {
          "name": "_addr",
          "type": "address"
        }
      ],
      "name": "existsEquipment",
      "outputs": [
        {
          "name": "isIndexed",
          "type": "bool"
        }
      ],
      "payable": false,
      "stateMutability": "view",
      "type": "function"
    },
    {
      "constant": false,
      "inputs": [
        {
          "name": "_addr",
          "type": "address"
        },
        {
          "name": "_userAddr",
          "type": "address"
        },
        {
          "name": "_kwh",
          "type": "uint256"
        },
        {
          "name": "_price",
          "type": "uint256"
        }
      ],
      "name": "newEquipment",
      "outputs": [
        {
          "name": "index",
          "type": "uint256"
        }
      ],
      "payable": false,
      "stateMutability": "nonpayable",
      "type": "function"
    },
    {
      "constant": true,
      "inputs": [
        {
          "name": "_addr",
          "type": "address"
        }
      ],
      "name": "getEquipment",
      "outputs": [
        {
          "name": "index",
          "type": "uint256"
        },
        {
          "name": "kwh",
          "type": "uint256"
        },
        {
          "name": "price",
          "type": "uint256"
        },
        {
          "name": "userId",
          "type": "address"
        }
      ],
      "payable": false,
      "stateMutability": "view",
      "type": "function"
    },
    {
      "constant": false,
      "inputs": [
        {
          "name": "_addr",
          "type": "address"
        },
        {
          "name": "_userAddr",
          "type": "address"
        },
        {
          "name": "_kwh",
          "type": "uint256"
        },
        {
          "name": "_price",
          "type": "uint256"
        }
      ],
      "name": "updateEquipment",
      "outputs": [
        {
          "name": "",
          "type": "bool"
        }
      ],
      "payable": false,
      "stateMutability": "nonpayable",
      "type": "function"
    },
    {
      "constant": false,
      "inputs": [
        {
          "name": "_addr",
          "type": "address"
        },
        {
          "name": "_userAddr",
          "type": "address"
        }
      ],
      "name": "deleteEquipment",
      "outputs": [
        {
          "name": "index",
          "type": "uint256"
        }
      ],
      "payable": false,
      "stateMutability": "nonpayable",
      "type": "function"
    },
    {
      "constant": true,
      "inputs": [],
      "name": "getEquipmentCount",
      "outputs": [
        {
          "name": "count",
          "type": "uint256"
        }
      ],
      "payable": false,
      "stateMutability": "view",
      "type": "function"
    },
    {
      "constant": true,
      "inputs": [
        {
          "name": "index",
          "type": "uint256"
        }
      ],
      "name": "getEquipmentAtIndex",
      "outputs": [
        {
          "name": "_addr",
          "type": "address"
        }
      ],
      "payable": false,
      "stateMutability": "view",
      "type": "function"
    }
  ],
  "bytecode": "0x6060604052341561000f57600080fd5b60008054600160a060020a033316600160a060020a0319909116179055610eb58061003b6000396000f3006060604052600436106100f05763ffffffff7c01000000000000000000000000000000000000000000000000000000006000350416631271c64481146100f55780631a4f36c514610132578063216d9fce146101575780635c60f226146101895780636901f668146101a85780636f77926b146101cf57806375887e9c1461021a5780637b2f8f9b146102455780638da5cb5b146102985780639bd19ca9146102ab578063b5cb15f7146102d3578063ecac1174146102e6578063f2fde38b14610305578063f409e87d14610326578063f53f35ff14610345578063ff67dada1461036d578063ffcc7bbf14610380575b600080fd5b341561010057600080fd5b610120600160a060020a0360043581169060243516604435606435610396565b60405190815260200160405180910390f35b341561013d57600080fd5b610120600160a060020a0360043581169060243516610546565b341561016257600080fd5b61016d600435610700565b604051600160a060020a03909116815260200160405180910390f35b341561019457600080fd5b610120600160a060020a036004351661072e565b34156101b357600080fd5b6101bb6108eb565b604051901515815260200160405180910390f35b34156101da57600080fd5b6101ee600160a060020a0360043516610901565b604051938452602084019290925260408084019190915260608301919091526080909101905180910390f35b341561022557600080fd5b6101bb600160a060020a0360043581169060243516604435606435610997565b341561025057600080fd5b610264600160a060020a0360043516610a83565b6040519384526020840192909252604080840191909152600160a060020a0390911660608301526080909101905180910390f35b34156102a357600080fd5b61016d610adc565b34156102b657600080fd5b6101bb600160a060020a0360043516602435604435606435610aeb565b34156102de57600080fd5b610120610bd3565b34156102f157600080fd5b6101bb600160a060020a0360043516610bd9565b341561031057600080fd5b610324600160a060020a0360043516610c31565b005b341561033157600080fd5b6101bb600160a060020a0360043516610cbf565b341561035057600080fd5b610120600160a060020a0360043516602435604435606435610cfb565b341561037857600080fd5b610120610e12565b341561038b57600080fd5b61016d600435610e18565b6000805433600160a060020a039081169116146103b257600080fd5b8380600160a060020a031633600160a060020a03161415156103d357600080fd5b6103dc86610bd9565b156103e657600080fd5b6103ef86610cbf565b15156001146103fd57600080fd5b600160a060020a03868116600090815260036020819052604090912060018082018890556002820187905591018054600160a060020a03191692881692909217909155600480548083016104518382610e42565b60009283526020808420929092018054600160a060020a031916600160a060020a038c81169182179092558085526003909352604093849020949091039384905588169290917f605976bd3335a05c801535a56faf8aefb649b8baf0d298f9d473370cb71a428f9190889088905180848152602001838152602001828152602001935050505060405180910390a3600160a060020a038616600090815260016020819052604090912060050180549091810161050d8382610e42565b5060009182526020909120018054600160a060020a038816600160a060020a031990911617905560045460001901915050949350505050565b600080548190819033600160a060020a0390811691161461056657600080fd5b8380600160a060020a031633600160a060020a031614151561058757600080fd5b61059086610bd9565b151560011461059e57600080fd5b600160a060020a038616600090815260036020526040902054600480549194509060001981019081106105cd57fe5b60009182526020909120015460048054600160a060020a0390921693508391859081106105f657fe5b60009182526020808320919091018054600160a060020a031916600160a060020a0394851617905591841681526003909152604090208390556004805490610642906000198301610e42565b5085600160a060020a03167fd148fe57b3fff28741992aeda9478edbabac766349efe9845531a6c5a49436f18460405190815260200160405180910390a2600160a060020a038083166000818152600360208190526040918290209081015460018201546002909201549416937f076be88f882d006b97bbd576fff0ec45e0980a624fd930fdfeef0e635281cf5592889291905180848152602001838152602001828152602001935050505060405180910390a35090949350505050565b600060048281548110151561071157fe5b600091825260209091200154600160a060020a031690505b919050565b600080548190819033600160a060020a0390811691161461074e57600080fd5b8380600160a060020a031633600160a060020a031614151561076f57600080fd5b61077885610cbf565b151560011461078657600080fd5b600160a060020a038516600090815260016020526040902054600280549194509060001981019081106107b557fe5b60009182526020909120015460028054600160a060020a0390921693508391859081106107de57fe5b60009182526020808320919091018054600160a060020a031916600160a060020a039485161790559184168152600190915260409020839055600280549061082a906000198301610e42565b5084600160a060020a03167f117183c06981515bdfa0b70d0448d8eb6ba07648cda62ab7c2b4361eeff80a1b8460405190815260200160405180910390a2600160a060020a0382166000818152600160208190526040918290209081015460028201546003909201547f36cd692caa63e05d06ec64ae3a07dffe3b224fecb32af5fa7bc1469f5bcdde57938893919051938452602084019290925260408084019190915260608301919091526080909101905180910390a250909392505050565b60005433600160a060020a039081169116145b90565b6000805481908190819033600160a060020a0390811691161461092357600080fd5b8480600160a060020a031633600160a060020a031614151561094457600080fd5b61094d86610cbf565b151560011461095b57600080fd5b50505050600160a060020a0391909116600090815260016020819052604090912080549181015460028201546003909201549294909350909190565b6000805433600160a060020a039081169116146109b357600080fd5b8380600160a060020a031633600160a060020a03161415156109d457600080fd5b6109dd86610bd9565b15156001146109eb57600080fd5b6109f485610cbf565b1515600114610a0257600080fd5b600160a060020a0380871660008181526003602052604090819020600181018890556002810187905554928816927f076be88f882d006b97bbd576fff0ec45e0980a624fd930fdfeef0e635281cf5591889088905180848152602001838152602001828152602001935050505060405180910390a350600195945050505050565b600080600080610a9285610bd9565b1515600114610aa057600080fd5b50505050600160a060020a0390811660009081526003602081905260409091208054600182015460028301549290930154909492939192911690565b600054600160a060020a031681565b6000805433600160a060020a03908116911614610b0757600080fd5b8480600160a060020a031633600160a060020a0316141515610b2857600080fd5b848484610b3489610cbf565b1515600114610b4257600080fd5b600160a060020a0389166000818152600160208190526040918290209081018b9055600281018a905560038101899055547f36cd692caa63e05d06ec64ae3a07dffe3b224fecb32af5fa7bc1469f5bcdde57918b908b908b9051938452602084019290925260408084019190915260608301919091526080909101905180910390a250600198975050505050505050565b60025490565b6004546000901515610bed57506000610729565b600160a060020a038216600081815260036020526040902054600480549091908110610c1557fe5b600091825260209091200154600160a060020a03161492915050565b60005433600160a060020a03908116911614610c4c57600080fd5b600160a060020a0381161515610c6157600080fd5b600054600160a060020a0380831691167f8be0079c531659141344cd1fd0a4f28419497f9722a3daafe3b4186f6b6457e060405160405180910390a360008054600160a060020a031916600160a060020a0392909216919091179055565b6002546000901515610cd357506000610729565b600160a060020a038216600081815260016020526040902054600280549091908110610c1557fe5b60008360005433600160a060020a03908116911614610d1957600080fd5b8383610d2488610cbf565b15610d2e57600080fd5b600160a060020a0388166000908152600160208190526040909120808201899055600280820189905560039091018790558054808301610d6e8382610e42565b60009283526020808420929092018054600160a060020a031916600160a060020a038e16908117909155808452600190925260409283902093900392839055917f78b833eacd29aac1183e31c8289157ed550f3b1f9f1526bf2055ef195cac287f918a908a908a9051938452602084019290925260408084019190915260608301919091526080909101905180910390a25050600254600019019695505050505050565b60045490565b6000805433600160a060020a03908116911614610e3457600080fd5b600280548390811061071157fe5b815481835581811511610e6657600083815260209020610e66918101908301610e6b565b505050565b6108fe91905b80821115610e855760008155600101610e71565b50905600a165627a7a72305820ff177df74d79d7e293c4a3d347e867fac0c25a57e4a4c682f9c8da15d95a24f00029",
  "source": "pragma solidity ^0.4.21;\r\n\r\nimport \"./zeppelin/Ownable.sol\";\r\nimport \"./zeppelin/SafeMath.sol\";\r\nimport \"./User.sol\";\r\n\r\n\r\ncontract Equipment is Ownable, User {\r\n\r\n    using SafeMath for uint256;\r\n\r\n    struct EquipmentStruct {\r\n        uint256 index;\r\n        uint256 kwh;\r\n        uint256 price;\r\n        address userId;\r\n    }\r\n\r\n    event NewEquipment(address indexed _addr, address indexed _userAddr, uint256 _index, uint256 _kwh, uint256 _price);\r\n    event UpdateEquipment(address indexed _addr, address indexed _userAddr, uint256 _index, uint256 _kwh, uint256 _price);\r\n    event DeleteEquipment(address indexed _addr,  uint256 _index);\r\n    \r\n    mapping(address => EquipmentStruct) equipments;\r\n    address[] private equipmentIndex;\r\n\r\n    function Equipment() public {\r\n    }\r\n\r\n    function existsEquipment(address _addr) public constant returns(bool isIndexed) {\r\n        if(equipmentIndex.length == 0) return false;\r\n        return (equipmentIndex[equipments[_addr].index] == _addr);\r\n    }\r\n\r\n    function newEquipment(address _addr, address _userAddr, uint256 _kwh, uint256 _price)\r\n    onlyOwner\r\n    onlyBy(_userAddr)\r\n    public\r\n    returns(uint256 index) {\r\n        require(existsEquipment(_addr) == false);\r\n        require(existsUser(_addr) == true);\r\n        equipments[_addr].kwh = _kwh;\r\n        equipments[_addr].price = _price;\r\n        equipments[_addr].userId = _userAddr;\r\n        equipments[_addr].index = equipmentIndex.push(_addr) - 1;\r\n        emit NewEquipment(_addr, _userAddr, equipments[_addr].index, _kwh, _price);\r\n        users[_addr].equipmentId.push(_addr);\r\n        return equipmentIndex.length - 1;\r\n    }\r\n\r\n    function getEquipment(address _addr)\r\n    public\r\n    constant\r\n    returns(uint256 index, uint256 kwh, uint256 price, address userId) {\r\n        require(existsEquipment(_addr) == true);\r\n        return(\r\n            equipments[_addr].index,\r\n            equipments[_addr].kwh,\r\n            equipments[_addr].price,\r\n            equipments[_addr].userId\r\n        );\r\n    }\r\n\r\n    function updateEquipment(address _addr, address _userAddr, uint256 _kwh, uint256 _price)\r\n    public\r\n    onlyOwner\r\n    onlyBy(_userAddr)\r\n    returns(bool) {\r\n        require(existsEquipment(_addr) == true);\r\n        require(existsUser(_userAddr) == true);\r\n        equipments[_addr].kwh = _kwh;\r\n        equipments[_addr].price = _price;\r\n        emit UpdateEquipment(_addr, _userAddr, equipments[_addr].index, _kwh, _price);\r\n        return true;\r\n    }\r\n\r\n    function deleteEquipment(address _addr, address _userAddr)\r\n    public\r\n    onlyOwner\r\n    onlyBy(_userAddr)\r\n    returns(uint256 index) {\r\n        require(existsEquipment(_addr) == true);\r\n        uint256 _rowToDelete = equipments[_addr].index;\r\n        address _keyToMove = equipmentIndex[equipmentIndex.length - 1];\r\n        equipmentIndex[_rowToDelete] = _keyToMove;\r\n        equipments[_keyToMove].index = _rowToDelete; \r\n        equipmentIndex.length--;\r\n        emit DeleteEquipment(_addr, _rowToDelete);\r\n        emit UpdateEquipment(_keyToMove, equipments[_keyToMove].userId, _rowToDelete, equipments[_keyToMove].kwh, equipments[_keyToMove].price);\r\n        return _rowToDelete;\r\n    }\r\n\r\n    function getEquipmentCount() public constant returns(uint count) {\r\n        return equipmentIndex.length;\r\n    }\r\n\r\n    function getEquipmentAtIndex(uint index) public  constant returns(address _addr) {\r\n        return equipmentIndex[index];\r\n    }\r\n\r\n}\r\n",
  "sourcePath": "C:\\Users\\DXenu\\Desktop\\box\\demo_contract\\contracts\\Equipment.sol",
  "compiler": {
    "name": "solc",
    "version": "0.4.21+commit.dfe3193c.Emscripten.clang"
  },
  "schemaVersion": "2.0.0",
  "updatedAt": "2018-04-16T19:29:05.666Z"
}