{
  "contractName": "Escrow",
  "abi": [
    {
      "constant": true,
      "inputs": [],
      "name": "seller",
      "outputs": [
        {
          "name": "",
          "type": "address"
        }
      ],
      "payable": false,
      "stateMutability": "view",
      "type": "function"
    },
    {
      "constant": true,
      "inputs": [],
      "name": "buyer",
      "outputs": [
        {
          "name": "",
          "type": "address"
        }
      ],
      "payable": false,
      "stateMutability": "view",
      "type": "function"
    },
    {
      "constant": true,
      "inputs": [],
      "name": "arbiter",
      "outputs": [
        {
          "name": "",
          "type": "address"
        }
      ],
      "payable": false,
      "stateMutability": "view",
      "type": "function"
    },
    {
      "inputs": [
        {
          "name": "_seller",
          "type": "address"
        },
        {
          "name": "_arbiter",
          "type": "address"
        }
      ],
      "payable": true,
      "stateMutability": "payable",
      "type": "constructor"
    },
    {
      "constant": false,
      "inputs": [],
      "name": "payoutSeller",
      "outputs": [],
      "payable": false,
      "stateMutability": "nonpayable",
      "type": "function"
    },
    {
      "constant": false,
      "inputs": [],
      "name": "refundBuyer",
      "outputs": [],
      "payable": false,
      "stateMutability": "nonpayable",
      "type": "function"
    },
    {
      "constant": true,
      "inputs": [],
      "name": "getBalance",
      "outputs": [
        {
          "name": "",
          "type": "uint256"
        }
      ],
      "payable": false,
      "stateMutability": "view",
      "type": "function"
    }
  ],
  "bytecode": "0x60606040526040516040806102c9833981016040528080519190602001805160008054600160a060020a03338116600160a060020a031992831617909255600180549683169682169690961790955560028054919092169416939093179092555050610259806100706000396000f3006060604052600436106100775763ffffffff7c010000000000000000000000000000000000000000000000000000000060003504166308551a53811461007c57806312065fe0146100ab57806322f1f525146100d05780637150d8ae146100e5578063e8a61cc8146100f8578063fe25e00a1461010b575b600080fd5b341561008757600080fd5b61008f61011e565b604051600160a060020a03909116815260200160405180910390f35b34156100b657600080fd5b6100be61012d565b60405190815260200160405180910390f35b34156100db57600080fd5b6100e361013b565b005b34156100f057600080fd5b61008f6101a6565b341561010357600080fd5b6100e36101b5565b341561011657600080fd5b61008f61021e565b600154600160a060020a031681565b600160a060020a0330163190565b60005433600160a060020a0390811691161480610166575060025433600160a060020a039081169116145b156101a457600154600160a060020a039081169030163180156108fc0290604051600060405180830381858888f1935050505015156101a457600080fd5b565b600054600160a060020a031681565b60015433600160a060020a03908116911614806101e0575060025433600160a060020a039081169116145b156101a457600054600160a060020a039081169030163180156108fc0290604051600060405180830381858888f1935050505015156101a457600080fd5b600254600160a060020a0316815600a165627a7a72305820167604bd2c415e0a9a8ed094d5e87c1dfc7dc2cf274b534a16a173e4ee1dbc990029",
  "source": "pragma solidity ^0.4.21;\r\n\r\n\r\ncontract Escrow {\r\n\r\n    address public buyer;\r\n    address public seller;\r\n    address public arbiter;\r\n\r\n    function Escrow(address _seller, address _arbiter) public payable {\r\n        buyer = msg.sender;\r\n        seller = _seller;\r\n        arbiter = _arbiter;\r\n    }\r\n\r\n    function payoutSeller() public {\r\n        if (msg.sender == buyer || msg.sender == arbiter) {\r\n            seller.transfer(address(this).balance);\r\n        }\r\n    }\r\n\r\n    function refundBuyer() public {\r\n        if (msg.sender == seller || msg.sender == arbiter) {\r\n            buyer.transfer(address(this).balance);\r\n        }\r\n    }\r\n\r\n    function getBalance() public view returns (uint) {\r\n        return address(this).balance;\r\n    }\r\n\r\n}\r\n",
  "sourcePath": "C:\\Users\\DXenu\\Desktop\\box\\demo_contract\\contracts\\Escrow.sol",
  "compiler": {
    "name": "solc",
    "version": "0.4.21+commit.dfe3193c.Emscripten.clang"
  },
  "schemaVersion": "2.0.0",
  "updatedAt": "2018-04-20T19:24:28.677Z"
}