{
  "contractName": "Exchange",
  "abi": [
    {
      "constant": true,
      "inputs": [],
      "name": "getOrdersLength",
      "outputs": [
        {
          "name": "",
          "type": "uint256"
        }
      ],
      "payable": false,
      "stateMutability": "view",
      "type": "function"
    },
    {
      "constant": true,
      "inputs": [
        {
          "name": "_index",
          "type": "uint256"
        }
      ],
      "name": "getRedemption",
      "outputs": [
        {
          "name": "",
          "type": "address"
        },
        {
          "name": "",
          "type": "uint256"
        },
        {
          "name": "",
          "type": "string"
        },
        {
          "name": "",
          "type": "uint256"
        }
      ],
      "payable": false,
      "stateMutability": "view",
      "type": "function"
    },
    {
      "constant": false,
      "inputs": [
        {
          "name": "_value",
          "type": "uint256"
        },
        {
          "name": "_location",
          "type": "string"
        }
      ],
      "name": "redeem",
      "outputs": [
        {
          "name": "",
          "type": "uint256"
        }
      ],
      "payable": false,
      "stateMutability": "nonpayable",
      "type": "function"
    },
    {
      "constant": true,
      "inputs": [],
      "name": "getRedemptionsLength",
      "outputs": [
        {
          "name": "",
          "type": "uint256"
        }
      ],
      "payable": false,
      "stateMutability": "view",
      "type": "function"
    },
    {
      "constant": false,
      "inputs": [
        {
          "name": "_index",
          "type": "uint256"
        },
        {
          "name": "_amount",
          "type": "uint256"
        }
      ],
      "name": "approveOrder",
      "outputs": [],
      "payable": false,
      "stateMutability": "nonpayable",
      "type": "function"
    },
    {
      "constant": false,
      "inputs": [
        {
          "name": "_url",
          "type": "bytes32"
        },
        {
          "name": "_amount",
          "type": "uint256"
        }
      ],
      "name": "addCertificate",
      "outputs": [],
      "payable": false,
      "stateMutability": "nonpayable",
      "type": "function"
    },
    {
      "constant": false,
      "inputs": [],
      "name": "buyDirect",
      "outputs": [],
      "payable": true,
      "stateMutability": "payable",
      "type": "function"
    },
    {
      "constant": true,
      "inputs": [
        {
          "name": "_index",
          "type": "uint256"
        }
      ],
      "name": "getCertificate",
      "outputs": [
        {
          "name": "",
          "type": "bytes32"
        },
        {
          "name": "",
          "type": "uint256"
        },
        {
          "name": "",
          "type": "uint256"
        }
      ],
      "payable": false,
      "stateMutability": "view",
      "type": "function"
    },
    {
      "constant": false,
      "inputs": [
        {
          "name": "_addr",
          "type": "address"
        }
      ],
      "name": "deleteUser",
      "outputs": [
        {
          "name": "index",
          "type": "uint256"
        }
      ],
      "payable": false,
      "stateMutability": "nonpayable",
      "type": "function"
    },
    {
      "constant": true,
      "inputs": [],
      "name": "validate",
      "outputs": [
        {
          "name": "",
          "type": "bool"
        }
      ],
      "payable": false,
      "stateMutability": "view",
      "type": "function"
    },
    {
      "constant": true,
      "inputs": [
        {
          "name": "_addr",
          "type": "address"
        }
      ],
      "name": "getUser",
      "outputs": [
        {
          "name": "index",
          "type": "uint256"
        },
        {
          "name": "email",
          "type": "bytes32"
        },
        {
          "name": "firstName",
          "type": "bytes32"
        },
        {
          "name": "lastName",
          "type": "bytes32"
        }
      ],
      "payable": false,
      "stateMutability": "view",
      "type": "function"
    },
    {
      "constant": false,
      "inputs": [
        {
          "name": "_index",
          "type": "uint256"
        }
      ],
      "name": "approveRedemption",
      "outputs": [],
      "payable": false,
      "stateMutability": "nonpayable",
      "type": "function"
    },
    {
      "constant": true,
      "inputs": [],
      "name": "reserves",
      "outputs": [
        {
          "name": "",
          "type": "uint256"
        }
      ],
      "payable": false,
      "stateMutability": "view",
      "type": "function"
    },
    {
      "constant": false,
      "inputs": [
        {
          "name": "_index",
          "type": "uint256"
        }
      ],
      "name": "deleteCertificate",
      "outputs": [],
      "payable": false,
      "stateMutability": "nonpayable",
      "type": "function"
    },
    {
      "constant": true,
      "inputs": [],
      "name": "owner",
      "outputs": [
        {
          "name": "",
          "type": "address"
        }
      ],
      "payable": false,
      "stateMutability": "view",
      "type": "function"
    },
    {
      "constant": false,
      "inputs": [
        {
          "name": "_addr",
          "type": "address"
        },
        {
          "name": "_email",
          "type": "bytes32"
        },
        {
          "name": "_firstName",
          "type": "bytes32"
        },
        {
          "name": "_lastName",
          "type": "bytes32"
        }
      ],
      "name": "updateUser",
      "outputs": [
        {
          "name": "",
          "type": "bool"
        }
      ],
      "payable": false,
      "stateMutability": "nonpayable",
      "type": "function"
    },
    {
      "constant": true,
      "inputs": [],
      "name": "getUserCount",
      "outputs": [
        {
          "name": "count",
          "type": "uint256"
        }
      ],
      "payable": false,
      "stateMutability": "view",
      "type": "function"
    },
    {
      "constant": true,
      "inputs": [],
      "name": "getCertificatesLength",
      "outputs": [
        {
          "name": "",
          "type": "uint256"
        }
      ],
      "payable": false,
      "stateMutability": "view",
      "type": "function"
    },
    {
      "constant": false,
      "inputs": [
        {
          "name": "_index",
          "type": "uint256"
        }
      ],
      "name": "declineOrder",
      "outputs": [],
      "payable": false,
      "stateMutability": "nonpayable",
      "type": "function"
    },
    {
      "constant": true,
      "inputs": [
        {
          "name": "_index",
          "type": "uint256"
        }
      ],
      "name": "getOrder",
      "outputs": [
        {
          "name": "",
          "type": "address"
        },
        {
          "name": "",
          "type": "uint256"
        },
        {
          "name": "",
          "type": "uint256"
        }
      ],
      "payable": false,
      "stateMutability": "view",
      "type": "function"
    },
    {
      "constant": false,
      "inputs": [
        {
          "name": "newOwner",
          "type": "address"
        }
      ],
      "name": "transferOwnership",
      "outputs": [],
      "payable": false,
      "stateMutability": "nonpayable",
      "type": "function"
    },
    {
      "constant": true,
      "inputs": [
        {
          "name": "_addr",
          "type": "address"
        }
      ],
      "name": "existsUser",
      "outputs": [
        {
          "name": "isIndexed",
          "type": "bool"
        }
      ],
      "payable": false,
      "stateMutability": "view",
      "type": "function"
    },
    {
      "constant": false,
      "inputs": [
        {
          "name": "_index",
          "type": "uint256"
        }
      ],
      "name": "declineRedemption",
      "outputs": [],
      "payable": false,
      "stateMutability": "nonpayable",
      "type": "function"
    },
    {
      "constant": false,
      "inputs": [
        {
          "name": "_addr",
          "type": "address"
        },
        {
          "name": "_email",
          "type": "bytes32"
        },
        {
          "name": "_firstName",
          "type": "bytes32"
        },
        {
          "name": "_lastName",
          "type": "bytes32"
        }
      ],
      "name": "newtUser",
      "outputs": [
        {
          "name": "index",
          "type": "uint256"
        }
      ],
      "payable": false,
      "stateMutability": "nonpayable",
      "type": "function"
    },
    {
      "constant": true,
      "inputs": [],
      "name": "token",
      "outputs": [
        {
          "name": "",
          "type": "address"
        }
      ],
      "payable": false,
      "stateMutability": "view",
      "type": "function"
    },
    {
      "constant": true,
      "inputs": [
        {
          "name": "index",
          "type": "uint256"
        }
      ],
      "name": "getUserAtIndex",
      "outputs": [
        {
          "name": "_addr",
          "type": "address"
        }
      ],
      "payable": false,
      "stateMutability": "view",
      "type": "function"
    },
    {
      "inputs": [
        {
          "name": "_tokenAddress",
          "type": "address"
        }
      ],
      "payable": false,
      "stateMutability": "nonpayable",
      "type": "constructor"
    },
    {
      "anonymous": false,
      "inputs": [
        {
          "indexed": true,
          "name": "_from",
          "type": "address"
        },
        {
          "indexed": false,
          "name": "_value",
          "type": "uint256"
        }
      ],
      "name": "DestroyTokensEvent",
      "type": "event"
    },
    {
      "anonymous": false,
      "inputs": [
        {
          "indexed": false,
          "name": "_redeember",
          "type": "address"
        },
        {
          "indexed": false,
          "name": "_amount",
          "type": "uint256"
        },
        {
          "indexed": false,
          "name": "_timestamp",
          "type": "uint256"
        }
      ],
      "name": "RedeemEvent",
      "type": "event"
    },
    {
      "anonymous": false,
      "inputs": [
        {
          "indexed": false,
          "name": "_buyer",
          "type": "address"
        },
        {
          "indexed": false,
          "name": "_amount",
          "type": "uint256"
        },
        {
          "indexed": false,
          "name": "_timestamp",
          "type": "uint256"
        }
      ],
      "name": "BuyDirectEvent",
      "type": "event"
    },
    {
      "anonymous": false,
      "inputs": [
        {
          "indexed": true,
          "name": "_addr",
          "type": "address"
        },
        {
          "indexed": false,
          "name": "_index",
          "type": "uint256"
        },
        {
          "indexed": false,
          "name": "_email",
          "type": "bytes32"
        },
        {
          "indexed": false,
          "name": "_firstName",
          "type": "bytes32"
        },
        {
          "indexed": false,
          "name": "_lastName",
          "type": "bytes32"
        }
      ],
      "name": "NewUser",
      "type": "event"
    },
    {
      "anonymous": false,
      "inputs": [
        {
          "indexed": true,
          "name": "_addr",
          "type": "address"
        },
        {
          "indexed": false,
          "name": "_index",
          "type": "uint256"
        },
        {
          "indexed": false,
          "name": "_email",
          "type": "bytes32"
        },
        {
          "indexed": false,
          "name": "_firstName",
          "type": "bytes32"
        },
        {
          "indexed": false,
          "name": "_lastName",
          "type": "bytes32"
        }
      ],
      "name": "UpdateUser",
      "type": "event"
    },
    {
      "anonymous": false,
      "inputs": [
        {
          "indexed": true,
          "name": "_addr",
          "type": "address"
        },
        {
          "indexed": false,
          "name": "_index",
          "type": "uint256"
        }
      ],
      "name": "DeleteUser",
      "type": "event"
    },
    {
      "anonymous": false,
      "inputs": [
        {
          "indexed": true,
          "name": "previousOwner",
          "type": "address"
        },
        {
          "indexed": true,
          "name": "newOwner",
          "type": "address"
        }
      ],
      "name": "OwnershipTransferred",
      "type": "event"
    },
    {
      "constant": false,
      "inputs": [
        {
          "name": "_value",
          "type": "uint256"
        }
      ],
      "name": "destroyTokens",
      "outputs": [],
      "payable": false,
      "stateMutability": "nonpayable",
      "type": "function"
    },
    {
      "constant": true,
      "inputs": [
        {
          "name": "_amount",
          "type": "uint256"
        }
      ],
      "name": "calculateFee",
      "outputs": [
        {
          "name": "",
          "type": "uint256"
        }
      ],
      "payable": false,
      "stateMutability": "view",
      "type": "function"
    }
  ],
  "bytecode": "0x606060405260006005556000600b556001600c55341561001e57600080fd5b604051602080611ee28339810160405280805160008054600160a060020a03338116600160a060020a031992831617909255600a80549290931691161790555050611e748061006e6000396000f3006060604052600436106101505763ffffffff60e060020a60003504166307c2e16c81146101555780631953cc211461017a57806324b76fd514610227578063342a382d1461027d5780634198bb7b1461029057806347c9e356146102ab578063483e0bd9146102c457806351640fee146102cc5780635c60f2261461030657806367fbd289146103255780636901f6681461033b5780636f77926b1461036257806370047924146103ad57806375172a8b146103c3578063883eeb6e146103d65780638da5cb5b146103ec57806399a5d7471461041b5780639bd19ca914610431578063b5cb15f714610459578063c503b4da1461046c578063ccbdb85c1461047f578063d09ef24114610495578063f2fde38b146104e1578063f409e87d14610500578063f4f331581461051f578063f53f35ff14610535578063fc0c546a1461055d578063ffcc7bbf14610570575b600080fd5b341561016057600080fd5b610168610586565b60405190815260200160405180910390f35b341561018557600080fd5b6101906004356105aa565b604051600160a060020a0385168152602081018490526060810182905260806040820181815290820184818151815260200191508051906020019080838360005b838110156101e95780820151838201526020016101d1565b50505050905090810190601f1680156102165780820380516001836020036101000a031916815260200191505b509550505050505060405180910390f35b341561023257600080fd5b610168600480359060446024803590810190830135806020601f8201819004810201604051908101604052818152929190602084018383808284375094965061070b95505050505050565b341561028857600080fd5b61016861097d565b341561029b57600080fd5b6102a96004356024356109a0565b005b34156102b657600080fd5b6102a9600435602435610aee565b6102a9610b8f565b34156102d757600080fd5b6102e2600435610c89565b60405192835260208301919091526040808301919091526060909101905180910390f35b341561031157600080fd5b610168600160a060020a0360043516610d11565b341561033057600080fd5b6102a9600435610ece565b341561034657600080fd5b61034e610f8c565b604051901515815260200160405180910390f35b341561036d57600080fd5b610381600160a060020a0360043516610fa1565b604051938452602084019290925260408084019190915260608301919091526080909101905180910390f35b34156103b857600080fd5b6102a9600435611037565b34156103ce57600080fd5b6101686112ad565b34156103e157600080fd5b6102a96004356112b3565b34156103f757600080fd5b6103ff6113a4565b604051600160a060020a03909116815260200160405180910390f35b341561042657600080fd5b6101686004356113b3565b341561043c57600080fd5b61034e600160a060020a03600435166024356044356064356113e4565b341561046457600080fd5b6101686114cc565b341561047757600080fd5b6101686114d2565b341561048a57600080fd5b6102a96004356114f5565b34156104a057600080fd5b6104ab600435611656565b6040518084600160a060020a0316600160a060020a03168152602001838152602001828152602001935050505060405180910390f35b34156104ec57600080fd5b6102a9600160a060020a03600435166116e7565b341561050b57600080fd5b61034e600160a060020a0360043516611775565b341561052a57600080fd5b6102a96004356117cf565b341561054057600080fd5b610168600160a060020a03600435166024356044356064356119b7565b341561056857600080fd5b6103ff611ace565b341561057b57600080fd5b6103ff600435611add565b6000805433600160a060020a039081169116146105a257600080fd5b506003545b90565b6000806105b5611b50565b60006105bf611b62565b60005433600160a060020a039081169116146105da57600080fd5b60078054879081106105e857fe5b9060005260206000209060040201608060405190810160405290816000820160009054906101000a9004600160a060020a0316600160a060020a0316600160a060020a03168152602001600182018054600181600116156101000203166002900480601f0160208091040260200160405190810160405280929190818152602001828054600181600116156101000203166002900480156106ca5780601f1061069f576101008083540402835291602001916106ca565b820191906000526020600020905b8154815290600101906020018083116106ad57829003601f168201915b505050918352505060028201546020820152600390910154604090910152905080518160400151826020015183606001519299919850965090945092505050565b6000610715611b62565b6008548490600160a060020a03166370a082313360405160e060020a63ffffffff8416028152600160a060020a039091166004820152602401602060405180830381600087803b151561076757600080fd5b5af1151561077457600080fd5b505050604051805190501015151561078b57600080fd5b600854600160a060020a031663095ea7b3338660405160e060020a63ffffffff8516028152600160a060020a0390921660048301526024820152604401602060405180830381600087803b15156107e157600080fd5b5af115156107ee57600080fd5b50505060405180515050600854600160a060020a03166323b872dd33308760405160e060020a63ffffffff8616028152600160a060020a0393841660048201529190921660248201526044810191909152606401602060405180830381600087803b151561085b57600080fd5b5af1151561086857600080fd5b505050604051805190505060806040519081016040528033600160a060020a03168152602001848152602001858152602001428152509050600780548060010182816108b49190611b91565b6000928352602090922083916004020181518154600160a060020a031916600160a060020a03919091161781556020820151816001019080516108fb929160200190611bbd565b50604082015181600201556060820151600390910155507f0e46a0c191564864bd7a70f14ef566cba8f8494211c829a52275f65d5b7d4ce290508151826040015183606001516040518084600160a060020a0316600160a060020a03168152602001838152602001828152602001935050505060405180910390a15092915050565b6000805433600160a060020a0390811691161461099957600080fd5b5060075490565b6000805433600160a060020a039081169116146109bc57600080fd5b60006003848154811015156109cd57fe5b906000526020600020906003020160010154101515156109ec57600080fd5b600454600160a060020a03166399a5d7478360405160e060020a63ffffffff84160281526004810191909152602401602060405180830381600087803b1515610a3457600080fd5b5af11515610a4157600080fd5b50505060405180519150610a5d9050828263ffffffff611b2216565b60038054919350906000198101908110610a7357fe5b9060005260206000209060030201600384815481101515610a9057fe5b60009182526020909120825460039283029091018054600160a060020a031916600160a060020a0390921691909117815560018084015490820155600292830154920191909155805490610ae8906000198301611c3b565b50505050565b610af6611c67565b60005433600160a060020a03908116911614610b1157600080fd5b60606040519081016040528084600019168152602001838152602001428152509050610b4a81602001516005549063ffffffff611b3716565b6005556006805460018101610b5f8382611c87565b60009283526020909220839160030201815181556020820151816001015560408201518160020155505050505050565b610b97611c67565b60003411610ba457600080fd5b60606040519081016040528033600160a060020a0316815260200134815260200142815250905060038054806001018281610bdf9190611c3b565b6000928352602090922083916003020181518154600160a060020a031916600160a060020a0391909116178155602082015181600101556040820151600290910155507f2c33c574213feb1047a6378e9beca724f8bda16b6624875a6dee2edb3edfcdb690508151826020015183604001516040518084600160a060020a0316600160a060020a03168152602001838152602001828152602001935050505060405180910390a150565b6000806000610c96611c67565b60005433600160a060020a03908116911614610cb157600080fd5b6006805486908110610cbf57fe5b9060005260206000209060030201606060405190810160409081528254825260018301546020830152600290920154918101919091529050805181602001518260400151935093509350509193909250565b600080548190819033600160a060020a03908116911614610d3157600080fd5b8380600160a060020a031633600160a060020a0316141515610d5257600080fd5b610d5b85611775565b1515600114610d6957600080fd5b600160a060020a03851660009081526001602052604090205460028054919450906000198101908110610d9857fe5b60009182526020909120015460028054600160a060020a039092169350839185908110610dc157fe5b60009182526020808320919091018054600160a060020a031916600160a060020a0394851617905591841681526001909152604090208390556002805490610e0d906000198301611cb3565b5084600160a060020a03167f117183c06981515bdfa0b70d0448d8eb6ba07648cda62ab7c2b4361eeff80a1b8460405190815260200160405180910390a2600160a060020a0382166000818152600160208190526040918290209081015460028201546003909201547f36cd692caa63e05d06ec64ae3a07dffe3b224fecb32af5fa7bc1469f5bcdde57938893919051938452602084019290925260408084019190915260608301919091526080909101905180910390a250909392505050565b600160a060020a0333166000908152600d602052604090205481901015610ef457600080fd5b600160a060020a0333166000908152600d6020526040902054610f1d908263ffffffff611b2216565b600160a060020a0333166000908152600d6020526040902055600b54610f49908263ffffffff611b2216565b600b55600160a060020a0333167f97be2b260c37911b6820288ff7c611943a32889e8ce0bf313da8569522073d4d8260405190815260200160405180910390a250565b60005433600160a060020a0390811691161490565b6000805481908190819033600160a060020a03908116911614610fc357600080fd5b8480600160a060020a031633600160a060020a0316141515610fe457600080fd5b610fed86611775565b1515600114610ffb57600080fd5b50505050600160a060020a0391909116600090815260016020819052604090912080549181015460028201546003909201549294909350909190565b61103f611b62565b60005433600160a060020a0390811691161461105a57600080fd5b600060078381548110151561106b57fe5b9060005260206000209060040201600201541015151561108a57600080fd5b600780548390811061109857fe5b9060005260206000209060040201608060405190810160405290816000820160009054906101000a9004600160a060020a0316600160a060020a0316600160a060020a03168152602001600182018054600181600116156101000203166002900480601f01602080910402602001604051908101604052809291908181526020018280546001816001161561010002031660029004801561117a5780601f1061114f5761010080835404028352916020019161117a565b820191906000526020600020905b81548152906001019060200180831161115d57829003601f168201915b505050918352505060028201546020820152600390910154604091820152600954919250600160a060020a03909116906367fbd2899083015160405160e060020a63ffffffff84160281526004810191909152602401600060405180830381600087803b15156111e957600080fd5b5af115156111f657600080fd5b505060078054909150600019810190811061120d57fe5b906000526020600020906004020160078381548110151561122a57fe5b6000918252602090912082546004909202018054600160a060020a031916600160a060020a039092169190911781556001808301805461128192808501929160026000199282161561010002929092011604611cd7565b506002828101549082015560039182015491015560078054906112a8906000198301611b91565b505050565b60055481565b60005433600160a060020a039081169116146112ce57600080fd5b60006006828154811015156112df57fe5b906000526020600020906003020160010154101515156112fe57600080fd5b61133360068281548110151561131057fe5b906000526020600020906003020160010154600554611b2290919063ffffffff16565b60055560068054600019810190811061134857fe5b906000526020600020906003020160068281548110151561136557fe5b6000918252602090912082546003909202019081556001808301549082015560029182015491015560068054906113a0906000198301611c87565b5050565b600054600160a060020a031681565b6000806103e8600c5484028115156113c757fe5b0490508015156113da57600191506113de565b8091505b50919050565b6000805433600160a060020a0390811691161461140057600080fd5b8480600160a060020a031633600160a060020a031614151561142157600080fd5b84848461142d89611775565b151560011461143b57600080fd5b600160a060020a0389166000818152600160208190526040918290209081018b9055600281018a905560038101899055547f36cd692caa63e05d06ec64ae3a07dffe3b224fecb32af5fa7bc1469f5bcdde57918b908b908b9051938452602084019290925260408084019190915260608301919091526080909101905180910390a250600198975050505050505050565b60025490565b6000805433600160a060020a039081169116146114ee57600080fd5b5060065490565b6114fd611c67565b60005433600160a060020a0390811691161461151857600080fd5b600060038381548110151561152957fe5b9060005260206000209060030201600101541015151561154857600080fd5b600380548390811061155657fe5b9060005260206000209060030201606060405190810160409081528254600160a060020a03168252600183015460208301526002909201549181019190915290508051600160a060020a03166108fc82602001519081150290604051600060405180830381858888f1935050505015156115cf57600080fd5b6003805460001981019081106115e157fe5b90600052602060002090600302016003838154811015156115fe57fe5b60009182526020909120825460039283029091018054600160a060020a031916600160a060020a03909216919091178155600180840154908201556002928301549201919091558054906112a8906000198301611c3b565b6000806000611663611c67565b60005433600160a060020a0390811691161461167e57600080fd5b600380548690811061168c57fe5b9060005260206000209060030201606060405190810160409081528254600160a060020a0316825260018301546020830152600290920154918101919091529050805181602001518260400151935093509350509193909250565b60005433600160a060020a0390811691161461170257600080fd5b600160a060020a038116151561171757600080fd5b600054600160a060020a0380831691167f8be0079c531659141344cd1fd0a4f28419497f9722a3daafe3b4186f6b6457e060405160405180910390a360008054600160a060020a031916600160a060020a0392909216919091179055565b6002546000901515611789575060006117ca565b600160a060020a0382166000818152600160205260409020546002805490919081106117b157fe5b600091825260209091200154600160a060020a03161490505b919050565b6117d7611b62565b60005433600160a060020a039081169116146117f257600080fd5b600060078381548110151561180357fe5b9060005260206000209060040201600201541015151561182257600080fd5b600780548390811061183057fe5b9060005260206000209060040201608060405190810160405290816000820160009054906101000a9004600160a060020a0316600160a060020a0316600160a060020a03168152602001600182018054600181600116156101000203166002900480601f0160208091040260200160405190810160405280929190818152602001828054600181600116156101000203166002900480156119125780601f106118e757610100808354040283529160200191611912565b820191906000526020600020905b8154815290600101906020018083116118f557829003601f168201915b505050918352505060028201546020820152600390910154604090910152600854909150600160a060020a031663a9059cbb8251836040015160405160e060020a63ffffffff8516028152600160a060020a0390921660048301526024820152604401602060405180830381600087803b151561198e57600080fd5b5af1151561199b57600080fd5b5050506040518051505060078054600019810190811061120d57fe5b60008360005433600160a060020a039081169116146119d557600080fd5b83836119e088611775565b156119ea57600080fd5b600160a060020a0388166000908152600160208190526040909120808201899055600280820189905560039091018790558054808301611a2a8382611cb3565b60009283526020808420929092018054600160a060020a031916600160a060020a038e16908117909155808452600190925260409283902093900392839055917f78b833eacd29aac1183e31c8289157ed550f3b1f9f1526bf2055ef195cac287f918a908a908a9051938452602084019290925260408084019190915260608301919091526080909101905180910390a25050600254600019019695505050505050565b600a54600160a060020a031681565b6000805433600160a060020a03908116911614611af957600080fd5b6002805483908110611b0757fe5b600091825260209091200154600160a060020a031692915050565b600082821115611b3157600080fd5b50900390565b600082820183811015611b4957600080fd5b9392505050565b60206040519081016040526000815290565b60806040519081016040526000815260208101611b7d611b50565b815260200160008152602001600081525090565b8154818355818115116112a8576004028160040283600052602060002091820191016112a89190611d4c565b828054600181600116156101000203166002900490600052602060002090601f016020900481019282601f10611bfe57805160ff1916838001178555611c2b565b82800160010185558215611c2b579182015b82811115611c2b578251825591602001919060010190611c10565b50611c37929150611d8e565b5090565b8154818355818115116112a8576003028160030283600052602060002091820191016112a89190611da8565b606060405190810160409081526000808352602083018190529082015290565b8154818355818115116112a8576003028160030283600052602060002091820191016112a89190611dda565b8154818355818115116112a8576000838152602090206112a8918101908301611d8e565b828054600181600116156101000203166002900490600052602060002090601f016020900481019282601f10611d105780548555611c2b565b82800160010185558215611c2b57600052602060002091601f016020900482015b82811115611c2b578254825591600101919060010190611d31565b6105a791905b80821115611c37578054600160a060020a03191681556000611d776001830182611e01565b506000600282018190556003820155600401611d52565b6105a791905b80821115611c375760008155600101611d94565b6105a791905b80821115611c37578054600160a060020a03191681556000600182018190556002820155600301611dae565b6105a791905b80821115611c37576000808255600182018190556002820155600301611de0565b50805460018160011615610100020316600290046000825580601f10611e275750611e45565b601f016020900490600052602060002090810190611e459190611d8e565b505600a165627a7a7230582078c4ed068c3741acb161aafd30d69cbbe01c1996776faf46197625a0d46c029d0029",
  "source": "pragma solidity ^0.4.21;\r\n\r\nimport \"./zeppelin/SafeMath.sol\";\r\nimport \"./Order.sol\";\r\nimport \"./Certificate.sol\";\r\nimport \"./Redemption.sol\";\r\nimport \"./PowerPiperToken.sol\";\r\n\r\n\r\ncontract Exchange is Orders, Certificates, Redemptions {\r\n    using SafeMath for uint;\r\n\r\n    PowerPiperToken public token;\r\n    uint256 _supply = 0;\r\n    uint fee  = 1;\r\n    mapping(address => uint) balances;\r\n    event DestroyTokensEvent(address indexed _from, uint _value);\r\n    // uint public fee = 300; // 300 = 0.3% in 1-digit precision\r\n    // uint public energyPriceMarkup = 1000; // 1000 = 1% in 3-digit precision\r\n\r\n    // @TODO fee functions duplicate with Token, should be united\r\n    function Exchange(address _tokenAddress) public {\r\n        token = PowerPiperToken(_tokenAddress);\r\n        // fee = 300; // 300 = 0.3% in 1-digit precision\r\n        // energyPriceMarkup = 1000; // 1000 = 1% in 3-digit precision\r\n    }\r\n\r\n    function destroyTokens(uint _value) external {\r\n        require(balances[msg.sender] >= _value);\r\n\r\n        balances[msg.sender] = balances[msg.sender].sub(_value);\r\n        _supply = _supply.sub(_value);\r\n\r\n        emit DestroyTokensEvent(msg.sender, _value);\r\n    }\r\n\r\n    function calculateFee(uint _amount) public constant returns (uint) {\r\n        uint feeAmount = _amount * fee / 1000;\r\n\r\n        if (feeAmount == 0) {\r\n            return 1;\r\n        } else {\r\n            return feeAmount;\r\n        }\r\n    }\r\n\r\n}\r\n",
  "sourcePath": "C:\\Users\\DXenu\\Desktop\\box\\demo_contract\\contracts\\Exchange.sol",
  "compiler": {
    "name": "solc",
    "version": "0.4.21+commit.dfe3193c.Emscripten.clang"
  },
  "schemaVersion": "2.0.0",
  "updatedAt": "2018-04-16T13:47:53.850Z"
}