{
  "contractName": "ForceEther",
  "abi": [
    {
      "inputs": [],
      "payable": true,
      "stateMutability": "payable",
      "type": "constructor"
    },
    {
      "constant": false,
      "inputs": [
        {
          "name": "_recipient",
          "type": "address"
        }
      ],
      "name": "destroyAndSend",
      "outputs": [],
      "payable": false,
      "stateMutability": "nonpayable",
      "type": "function"
    }
  ],
  "bytecode": "0x606060405260b3806100126000396000f300606060405260043610603e5763ffffffff7c0100000000000000000000000000000000000000000000000000000000600035041663f5074f4181146043575b600080fd5b3415604d57600080fd5b606c73ffffffffffffffffffffffffffffffffffffffff60043516606e565b005b8073ffffffffffffffffffffffffffffffffffffffff16ff00a165627a7a723058204fd689dc2a81741f01e6e59272bff5bec2f8f24426413d9c4de0ba1b32e674400029",
  "source": "pragma solidity ^0.4.21;\r\n\r\n// @title Force Ether into a contract.\r\n// @notice  even\r\n// if the contract is not payable.\r\n// @notice To use, construct the contract with the target as argument.\r\n// @author Remco Bloemen <remco@neufund.org>\r\ncontract ForceEther {\r\n\r\n    function ForceEther() public payable { }\r\n\r\n    function destroyAndSend(address _recipient) public {\r\n        selfdestruct(_recipient);\r\n    }\r\n}\r\n",
  "sourcePath": "C:\\Users\\DXenu\\Desktop\\box\\demo_contract\\contracts\\zeppelin\\ForceEther.sol",
  "compiler": {
    "name": "solc",
    "version": "0.4.21+commit.dfe3193c.Emscripten.clang"
  },
  "schemaVersion": "2.0.0",
  "updatedAt": "2018-04-16T11:26:29.034Z"
}