{
  "contractName": "ForeignBuy",
  "abi": [
    {
      "constant": true,
      "inputs": [],
      "name": "bot",
      "outputs": [
        {
          "name": "",
          "type": "address"
        }
      ],
      "payable": false,
      "stateMutability": "view",
      "type": "function"
    },
    {
      "constant": true,
      "inputs": [],
      "name": "icoState",
      "outputs": [
        {
          "name": "",
          "type": "uint8"
        }
      ],
      "payable": false,
      "stateMutability": "view",
      "type": "function"
    },
    {
      "constant": true,
      "inputs": [],
      "name": "validate",
      "outputs": [
        {
          "name": "",
          "type": "bool"
        }
      ],
      "payable": false,
      "stateMutability": "view",
      "type": "function"
    },
    {
      "constant": false,
      "inputs": [
        {
          "name": "_bot",
          "type": "address"
        }
      ],
      "name": "setBot",
      "outputs": [],
      "payable": false,
      "stateMutability": "nonpayable",
      "type": "function"
    },
    {
      "constant": true,
      "inputs": [],
      "name": "owner",
      "outputs": [
        {
          "name": "",
          "type": "address"
        }
      ],
      "payable": false,
      "stateMutability": "view",
      "type": "function"
    },
    {
      "constant": false,
      "inputs": [
        {
          "name": "newOwner",
          "type": "address"
        }
      ],
      "name": "transferOwnership",
      "outputs": [],
      "payable": false,
      "stateMutability": "nonpayable",
      "type": "function"
    },
    {
      "anonymous": false,
      "inputs": [
        {
          "indexed": false,
          "name": "_recipient",
          "type": "address"
        },
        {
          "indexed": false,
          "name": "_tokens",
          "type": "uint256"
        },
        {
          "indexed": false,
          "name": "_txHash",
          "type": "string"
        }
      ],
      "name": "ForeignBuy",
      "type": "event"
    },
    {
      "anonymous": false,
      "inputs": [
        {
          "indexed": true,
          "name": "previousOwner",
          "type": "address"
        },
        {
          "indexed": true,
          "name": "newOwner",
          "type": "address"
        }
      ],
      "name": "OwnershipTransferred",
      "type": "event"
    },
    {
      "constant": false,
      "inputs": [
        {
          "name": "_recipient",
          "type": "address"
        },
        {
          "name": "_tokens",
          "type": "uint256"
        },
        {
          "name": "_txHash",
          "type": "string"
        }
      ],
      "name": "foreignBuy",
      "outputs": [],
      "payable": false,
      "stateMutability": "nonpayable",
      "type": "function"
    }
  ],
  "bytecode": "0x60606040526001805460a060020a60ff021916905560008054600160a060020a03191633600160a060020a03161781556103c590819061003f90396000f3006060604052600436106100825763ffffffff7c010000000000000000000000000000000000000000000000000000000060003504166310814c378114610087578063229ddd9a146100b657806344f38756146100e75780636901f6681461011e5780636b5caec4146101455780638da5cb5b14610164578063f2fde38b14610177575b600080fd5b341561009257600080fd5b61009a610196565b604051600160a060020a03909116815260200160405180910390f35b34156100c157600080fd5b6100e560048035600160a060020a03169060248035916044359182019101356101a5565b005b34156100f257600080fd5b6100fa61026f565b6040518082600381111561010a57fe5b60ff16815260200191505060405180910390f35b341561012957600080fd5b610131610290565b604051901515815260200160405180910390f35b341561015057600080fd5b6100e5600160a060020a03600435166102a5565b341561016f57600080fd5b61009a6102ef565b341561018257600080fd5b6100e5600160a060020a03600435166102fe565b600154600160a060020a031681565b60015433600160a060020a039081169116146101c057600080fd5b6001805474010000000000000000000000000000000000000000900460ff1660038111156101ea57fe5b146101f457600080fd5b6000831161020157600080fd5b7f051c6c5895a9354c55035535c5395df37fcf8d0df19ae9267ef653066a4a313c84848484604051600160a060020a0385168152602081018490526060604082018181529082018390526080820184848082843782019150509550505050505060405180910390a150505050565b60015474010000000000000000000000000000000000000000900460ff1681565b60005433600160a060020a0390811691161490565b60005433600160a060020a039081169116146102c057600080fd5b6001805473ffffffffffffffffffffffffffffffffffffffff1916600160a060020a0392909216919091179055565b600054600160a060020a031681565b60005433600160a060020a0390811691161461031957600080fd5b600160a060020a038116151561032e57600080fd5b600054600160a060020a0380831691167f8be0079c531659141344cd1fd0a4f28419497f9722a3daafe3b4186f6b6457e060405160405180910390a36000805473ffffffffffffffffffffffffffffffffffffffff1916600160a060020a03929092169190911790555600a165627a7a7230582024e42fbea5624eee7697080be633bf87abd3f2c2e4a330205b472cbbae5de14c0029",
  "source": "pragma solidity ^0.4.21;\r\n\r\nimport \"./ICOState.sol\";\r\nimport \"./Ownable.sol\";\r\n\r\n\r\ncontract ForeignBuy is Ownable, ICOState {\r\n\r\n    event ForeignBuy(address _recipient, uint _tokens, string _txHash);\r\n\r\n    function foreignBuy(address _recipient, uint _tokens, string _txHash) external botOnly {\r\n        require(icoState == State.Running);\r\n        require(_tokens > 0);\r\n        // buy(_recipient, _tokens);\r\n        emit ForeignBuy(_recipient, _tokens, _txHash);\r\n    }\r\n\r\n}\r\n",
  "sourcePath": "C:\\Users\\DXenu\\Desktop\\box\\demo_contract\\contracts\\templates\\ForeignBuy.sol",
  "compiler": {
    "name": "solc",
    "version": "0.4.21+commit.dfe3193c.Emscripten.clang"
  },
  "schemaVersion": "2.0.0",
  "updatedAt": "2018-04-21T04:13:53.912Z"
}