{
  "contractName": "HasNoEther",
  "abi": [
    {
      "constant": true,
      "inputs": [],
      "name": "validate",
      "outputs": [
        {
          "name": "",
          "type": "bool"
        }
      ],
      "payable": false,
      "stateMutability": "view",
      "type": "function"
    },
    {
      "constant": true,
      "inputs": [],
      "name": "owner",
      "outputs": [
        {
          "name": "",
          "type": "address"
        }
      ],
      "payable": false,
      "stateMutability": "view",
      "type": "function"
    },
    {
      "constant": false,
      "inputs": [
        {
          "name": "newOwner",
          "type": "address"
        }
      ],
      "name": "transferOwnership",
      "outputs": [],
      "payable": false,
      "stateMutability": "nonpayable",
      "type": "function"
    },
    {
      "inputs": [],
      "payable": true,
      "stateMutability": "payable",
      "type": "constructor"
    },
    {
      "payable": false,
      "stateMutability": "nonpayable",
      "type": "fallback"
    },
    {
      "anonymous": false,
      "inputs": [
        {
          "indexed": true,
          "name": "previousOwner",
          "type": "address"
        },
        {
          "indexed": true,
          "name": "newOwner",
          "type": "address"
        }
      ],
      "name": "OwnershipTransferred",
      "type": "event"
    },
    {
      "constant": false,
      "inputs": [],
      "name": "reclaimEther",
      "outputs": [],
      "payable": false,
      "stateMutability": "nonpayable",
      "type": "function"
    }
  ],
  "bytecode": "0x606060405260008054600160a060020a03191633600160a060020a0316179055341561002a57600080fd5b610234806100396000396000f3006060604052600436106100615763ffffffff7c01000000000000000000000000000000000000000000000000000000006000350416636901f668811461006e5780638da5cb5b146100955780639f727c27146100c4578063f2fde38b146100d7575b341561006c57600080fd5b005b341561007957600080fd5b6100816100f6565b604051901515815260200160405180910390f35b34156100a057600080fd5b6100a861010b565b604051600160a060020a03909116815260200160405180910390f35b34156100cf57600080fd5b61006c61011a565b34156100e257600080fd5b61006c600160a060020a036004351661016d565b60005433600160a060020a0390811691161490565b600054600160a060020a031681565b60005433600160a060020a0390811691161461013557600080fd5b600054600160a060020a039081169030163180156108fc0290604051600060405180830381858888f19350505050151561016b57fe5b565b60005433600160a060020a0390811691161461018857600080fd5b600160a060020a038116151561019d57600080fd5b600054600160a060020a0380831691167f8be0079c531659141344cd1fd0a4f28419497f9722a3daafe3b4186f6b6457e060405160405180910390a36000805473ffffffffffffffffffffffffffffffffffffffff1916600160a060020a03929092169190911790555600a165627a7a72305820e388eaa89f82dc63f68f9ee619a8cfc7282c4d904d867037bbcb88c85e4c09af0029",
  "source": "pragma solidity ^0.4.21;\r\n\r\nimport \"./Ownable.sol\";\r\n\r\n\r\ncontract HasNoEther is Ownable {\r\n\r\n    function HasNoEther() public payable {\r\n        require(msg.value == 0);\r\n    }\r\n\r\n    function() external {\r\n    }\r\n\r\n    function reclaimEther() external onlyOwner {\r\n        assert(owner.send(address(this).balance));\r\n    }\r\n\r\n}\r\n",
  "sourcePath": "C:\\Users\\DXenu\\Desktop\\box\\demo_contract\\contracts\\zeppelin\\HasNoEther.sol",
  "compiler": {
    "name": "solc",
    "version": "0.4.21+commit.dfe3193c.Emscripten.clang"
  },
  "schemaVersion": "2.0.0",
  "updatedAt": "2018-04-16T13:47:53.884Z"
}