{
  "contractName": "HasNoContracts",
  "abi": [
    {
      "constant": true,
      "inputs": [],
      "name": "validate",
      "outputs": [
        {
          "name": "",
          "type": "bool"
        }
      ],
      "payable": false,
      "stateMutability": "view",
      "type": "function"
    },
    {
      "constant": true,
      "inputs": [],
      "name": "owner",
      "outputs": [
        {
          "name": "",
          "type": "address"
        }
      ],
      "payable": false,
      "stateMutability": "view",
      "type": "function"
    },
    {
      "constant": false,
      "inputs": [
        {
          "name": "newOwner",
          "type": "address"
        }
      ],
      "name": "transferOwnership",
      "outputs": [],
      "payable": false,
      "stateMutability": "nonpayable",
      "type": "function"
    },
    {
      "anonymous": false,
      "inputs": [
        {
          "indexed": true,
          "name": "previousOwner",
          "type": "address"
        },
        {
          "indexed": true,
          "name": "newOwner",
          "type": "address"
        }
      ],
      "name": "OwnershipTransferred",
      "type": "event"
    },
    {
      "constant": false,
      "inputs": [
        {
          "name": "contractAddr",
          "type": "address"
        }
      ],
      "name": "reclaimContract",
      "outputs": [],
      "payable": false,
      "stateMutability": "nonpayable",
      "type": "function"
    }
  ],
  "bytecode": "0x606060405260008054600160a060020a033316600160a060020a0319909116179055610287806100306000396000f3006060604052600436106100615763ffffffff7c01000000000000000000000000000000000000000000000000000000006000350416632aed7f3f81146100665780636901f668146100875780638da5cb5b146100ae578063f2fde38b146100dd575b600080fd5b341561007157600080fd5b610085600160a060020a03600435166100fc565b005b341561009257600080fd5b61009a61019c565b604051901515815260200160405180910390f35b34156100b957600080fd5b6100c16101b1565b604051600160a060020a03909116815260200160405180910390f35b34156100e857600080fd5b610085600160a060020a03600435166101c0565b6000805433600160a060020a0390811691161461011857600080fd5b506000548190600160a060020a038083169163f2fde38b91166040517c010000000000000000000000000000000000000000000000000000000063ffffffff8416028152600160a060020a039091166004820152602401600060405180830381600087803b151561018857600080fd5b5af1151561019557600080fd5b5050505050565b60005433600160a060020a0390811691161490565b600054600160a060020a031681565b60005433600160a060020a039081169116146101db57600080fd5b600160a060020a03811615156101f057600080fd5b600054600160a060020a0380831691167f8be0079c531659141344cd1fd0a4f28419497f9722a3daafe3b4186f6b6457e060405160405180910390a36000805473ffffffffffffffffffffffffffffffffffffffff1916600160a060020a03929092169190911790555600a165627a7a72305820b1c7cf4b30073b943edf14afa7c34d34f9d1b04be0c2d2056a11f5aca0524bc10029",
  "source": "pragma solidity ^0.4.21;\r\n\r\nimport \"./Ownable.sol\";\r\n\r\n\r\ncontract HasNoContracts is Ownable {\r\n\r\n    function reclaimContract(address contractAddr) external onlyOwner {\r\n        Ownable contractInst = Ownable(contractAddr);\r\n        contractInst.transferOwnership(owner);\r\n    }\r\n}\r\n",
  "sourcePath": "C:\\Users\\DXenu\\Desktop\\box\\demo_contract\\contracts\\zeppelin\\HasNoContracts.sol",
  "compiler": {
    "name": "solc",
    "version": "0.4.21+commit.dfe3193c.Emscripten.clang"
  },
  "schemaVersion": "2.0.0",
  "updatedAt": "2018-04-16T13:47:53.883Z"
}