{
  "contractName": "ICOManagement",
  "abi": [
    {
      "constant": true,
      "inputs": [],
      "name": "bot",
      "outputs": [
        {
          "name": "",
          "type": "address"
        }
      ],
      "payable": false,
      "stateMutability": "view",
      "type": "function"
    },
    {
      "constant": true,
      "inputs": [],
      "name": "icoState",
      "outputs": [
        {
          "name": "",
          "type": "uint8"
        }
      ],
      "payable": false,
      "stateMutability": "view",
      "type": "function"
    },
    {
      "constant": true,
      "inputs": [],
      "name": "validate",
      "outputs": [
        {
          "name": "",
          "type": "bool"
        }
      ],
      "payable": false,
      "stateMutability": "view",
      "type": "function"
    },
    {
      "constant": false,
      "inputs": [
        {
          "name": "_bot",
          "type": "address"
        }
      ],
      "name": "setBot",
      "outputs": [],
      "payable": false,
      "stateMutability": "nonpayable",
      "type": "function"
    },
    {
      "constant": true,
      "inputs": [],
      "name": "owner",
      "outputs": [
        {
          "name": "",
          "type": "address"
        }
      ],
      "payable": false,
      "stateMutability": "view",
      "type": "function"
    },
    {
      "constant": false,
      "inputs": [
        {
          "name": "newOwner",
          "type": "address"
        }
      ],
      "name": "transferOwnership",
      "outputs": [],
      "payable": false,
      "stateMutability": "nonpayable",
      "type": "function"
    },
    {
      "anonymous": false,
      "inputs": [],
      "name": "RunIco",
      "type": "event"
    },
    {
      "anonymous": false,
      "inputs": [],
      "name": "PauseIco",
      "type": "event"
    },
    {
      "anonymous": false,
      "inputs": [],
      "name": "FinishIco",
      "type": "event"
    },
    {
      "anonymous": false,
      "inputs": [
        {
          "indexed": true,
          "name": "previousOwner",
          "type": "address"
        },
        {
          "indexed": true,
          "name": "newOwner",
          "type": "address"
        }
      ],
      "name": "OwnershipTransferred",
      "type": "event"
    },
    {
      "constant": false,
      "inputs": [],
      "name": "startIco",
      "outputs": [],
      "payable": false,
      "stateMutability": "nonpayable",
      "type": "function"
    },
    {
      "constant": false,
      "inputs": [],
      "name": "pauseIco",
      "outputs": [],
      "payable": false,
      "stateMutability": "nonpayable",
      "type": "function"
    },
    {
      "constant": false,
      "inputs": [],
      "name": "finishIco",
      "outputs": [],
      "payable": false,
      "stateMutability": "nonpayable",
      "type": "function"
    }
  ],
  "bytecode": "0x60606040526001805460a060020a60ff021916905560008054600160a060020a03191633600160a060020a03161781556104f390819061003f90396000f3006060604052600436106100985763ffffffff7c010000000000000000000000000000000000000000000000000000000060003504166310814c37811461009d57806344f38756146100cc5780636901f668146101035780636b5caec41461012a57806389311e6f1461014b5780638da5cb5b1461015e578063c4fdc6b814610171578063ec42f82f14610184578063f2fde38b14610197575b600080fd5b34156100a857600080fd5b6100b06101b6565b604051600160a060020a03909116815260200160405180910390f35b34156100d757600080fd5b6100df6101c5565b604051808260038111156100ef57fe5b60ff16815260200191505060405180910390f35b341561010e57600080fd5b6101166101d5565b604051901515815260200160405180910390f35b341561013557600080fd5b610149600160a060020a03600435166101ea565b005b341561015657600080fd5b610149610234565b341561016957600080fd5b6100b06102ef565b341561017c57600080fd5b6101496102fe565b341561018f57600080fd5b61014961039f565b34156101a257600080fd5b610149600160a060020a036004351661042c565b600154600160a060020a031681565b60015460a060020a900460ff1681565b60005433600160a060020a0390811691161490565b60005433600160a060020a0390811691161461020557600080fd5b6001805473ffffffffffffffffffffffffffffffffffffffff1916600160a060020a0392909216919091179055565b60005433600160a060020a0390811691161461024f57600080fd5b600060015460a060020a900460ff16600381111561026957fe5b148061028c5750600260015460a060020a900460ff16600381111561028a57fe5b145b151561029757600080fd5b60018054819074ff0000000000000000000000000000000000000000191660a060020a825b02179055507fd180ebcaa21eb03f90675218d2d628708ce938a4360f69ee8e74711cee01a99160405160405180910390a1565b600054600160a060020a031681565b60005433600160a060020a0390811691161461031957600080fd5b6001805460a060020a900460ff16600381111561033257fe5b1461033c57600080fd5b6001805474ff00000000000000000000000000000000000000001916740200000000000000000000000000000000000000001790557f8bb4b9f09f7571abfa7c9f11ae39a25d6b4c6f0798a3fe2c7c7d708f4edefebb60405160405180910390a1565b60005433600160a060020a039081169116146103ba57600080fd5b6001805460a060020a900460ff1660038111156103d357fe5b14806103f65750600260015460a060020a900460ff1660038111156103f457fe5b145b151561040157600080fd5b600180546003919074ff0000000000000000000000000000000000000000191660a060020a836102bc565b60005433600160a060020a0390811691161461044757600080fd5b600160a060020a038116151561045c57600080fd5b600054600160a060020a0380831691167f8be0079c531659141344cd1fd0a4f28419497f9722a3daafe3b4186f6b6457e060405160405180910390a36000805473ffffffffffffffffffffffffffffffffffffffff1916600160a060020a03929092169190911790555600a165627a7a72305820ee36286353abf84d243e11c7a47dbffdfc1a120e753ec66ad7fa286b291c804d0029",
  "source": "pragma solidity ^0.4.21;\r\n\r\nimport \"./Ownable.sol\";\r\nimport \"./ICOState.sol\";\r\n\r\n\r\ncontract ICOManagement is Ownable, ICOState {\r\n\r\n    event RunIco();\r\n    event PauseIco();\r\n    event FinishIco();\r\n\r\n    function startIco() external onlyOwner {\r\n        require(icoState == State.Created || icoState == State.Paused);\r\n        icoState = State.Running;\r\n        emit FinishIco();\r\n    }\r\n\r\n    function pauseIco() external onlyOwner {\r\n        require(icoState == State.Running);\r\n        icoState = State.Paused;\r\n        emit PauseIco();\r\n    }\r\n\r\n    function finishIco() external onlyOwner {\r\n        require(icoState == State.Running || icoState == State.Paused);\r\n\r\n        // defrost();\r\n\r\n        icoState = State.Finished;\r\n        emit FinishIco();\r\n    }\r\n\r\n}\r\n",
  "sourcePath": "C:\\Users\\DXenu\\Desktop\\box\\demo_contract\\contracts\\templates\\ICOManagement.sol",
  "compiler": {
    "name": "solc",
    "version": "0.4.21+commit.dfe3193c.Emscripten.clang"
  },
  "schemaVersion": "2.0.0",
  "updatedAt": "2018-04-21T04:13:53.913Z"
}