{
  "contractName": "ICOState",
  "abi": [
    {
      "constant": true,
      "inputs": [],
      "name": "icoState",
      "outputs": [
        {
          "name": "",
          "type": "uint8"
        }
      ],
      "payable": false,
      "stateMutability": "view",
      "type": "function"
    }
  ],
  "bytecode": "0x60606040526000805460ff19169055341561001957600080fd5b60ab806100276000396000f300606060405260043610603e5763ffffffff7c010000000000000000000000000000000000000000000000000000000060003504166344f3875681146043575b600080fd5b3415604d57600080fd5b60536076565b60405180826003811115606257fe5b60ff16815260200191505060405180910390f35b60005460ff16815600a165627a7a723058206caaf7ad7d57806788e0d062e5d078b4b1f14cbf69b4ac7abf40a796bc051f8a0029",
  "source": "pragma solidity ^0.4.21;\r\n\r\ncontract ICOState {\r\n\r\n    enum State {\r\n        Created,\r\n        Running,\r\n        Paused,\r\n        Finished\r\n    }\r\n\r\n    State public icoState = State.Created;\r\n\r\n}\r\n",
  "sourcePath": "C:\\Users\\DXenu\\Desktop\\box\\demo_contract\\contracts\\templates\\ICOState.sol",
  "compiler": {
    "name": "solc",
    "version": "0.4.21+commit.dfe3193c.Emscripten.clang"
  },
  "schemaVersion": "2.0.0",
  "updatedAt": "2018-04-21T04:13:53.914Z"
}