{
  "contractName": "MigratePreICO",
  "abi": [
    {
      "constant": true,
      "inputs": [],
      "name": "bot",
      "outputs": [
        {
          "name": "",
          "type": "address"
        }
      ],
      "payable": false,
      "stateMutability": "view",
      "type": "function"
    },
    {
      "constant": true,
      "inputs": [],
      "name": "validate",
      "outputs": [
        {
          "name": "",
          "type": "bool"
        }
      ],
      "payable": false,
      "stateMutability": "view",
      "type": "function"
    },
    {
      "constant": false,
      "inputs": [
        {
          "name": "_bot",
          "type": "address"
        }
      ],
      "name": "setBot",
      "outputs": [],
      "payable": false,
      "stateMutability": "nonpayable",
      "type": "function"
    },
    {
      "constant": true,
      "inputs": [],
      "name": "owner",
      "outputs": [
        {
          "name": "",
          "type": "address"
        }
      ],
      "payable": false,
      "stateMutability": "view",
      "type": "function"
    },
    {
      "constant": false,
      "inputs": [
        {
          "name": "newOwner",
          "type": "address"
        }
      ],
      "name": "transferOwnership",
      "outputs": [],
      "payable": false,
      "stateMutability": "nonpayable",
      "type": "function"
    },
    {
      "anonymous": false,
      "inputs": [
        {
          "indexed": true,
          "name": "previousOwner",
          "type": "address"
        },
        {
          "indexed": true,
          "name": "newOwner",
          "type": "address"
        }
      ],
      "name": "OwnershipTransferred",
      "type": "event"
    },
    {
      "constant": false,
      "inputs": [
        {
          "name": "_recipients",
          "type": "address[]"
        }
      ],
      "name": "migrate",
      "outputs": [],
      "payable": false,
      "stateMutability": "nonpayable",
      "type": "function"
    }
  ],
  "bytecode": "0x606060405260008054600160a060020a033316600160a060020a03199091161790556102be806100306000396000f3006060604052600436106100775763ffffffff7c010000000000000000000000000000000000000000000000000000000060003504166310814c37811461007c5780632e558d69146100ab5780636901f668146100cb5780636b5caec4146100f25780638da5cb5b14610111578063f2fde38b14610124575b600080fd5b341561008757600080fd5b61008f610143565b604051600160a060020a03909116815260200160405180910390f35b34156100b657600080fd5b6100c96004803560248101910135610152565b005b34156100d657600080fd5b6100de610189565b604051901515815260200160405180910390f35b34156100fd57600080fd5b6100c9600160a060020a036004351661019e565b341561011c57600080fd5b61008f6101e8565b341561012f57600080fd5b6100c9600160a060020a03600435166101f7565b600154600160a060020a031681565b60015460009033600160a060020a0390811691161461017057600080fd5b5060005b8181101561018457600101610174565b505050565b60005433600160a060020a0390811691161490565b60005433600160a060020a039081169116146101b957600080fd5b6001805473ffffffffffffffffffffffffffffffffffffffff1916600160a060020a0392909216919091179055565b600054600160a060020a031681565b60005433600160a060020a0390811691161461021257600080fd5b600160a060020a038116151561022757600080fd5b600054600160a060020a0380831691167f8be0079c531659141344cd1fd0a4f28419497f9722a3daafe3b4186f6b6457e060405160405180910390a36000805473ffffffffffffffffffffffffffffffffffffffff1916600160a060020a03929092169190911790555600a165627a7a723058209e5aea3f07c322b639bd3c7e86d624da8eadbb1cbe0fd5d62c02f1487f2982370029",
  "source": "pragma solidity ^0.4.21;\r\n\r\nimport \"./ICOState.sol\";\r\nimport \"./Ownable.sol\";\r\n\r\n\r\ncontract MigratePreICO is Ownable {\r\n\r\n    function migrate(address[] _recipients) external botOnly {\r\n        for(uint i = 0; i < _recipients.length; i++) {\r\n            // doMigration(_investors[i]);\r\n        }\r\n\r\n    }\r\n\r\n}\r\n",
  "sourcePath": "C:\\Users\\DXenu\\Desktop\\box\\demo_contract\\contracts\\templates\\MigratePreICO.sol",
  "compiler": {
    "name": "solc",
    "version": "0.4.21+commit.dfe3193c.Emscripten.clang"
  },
  "schemaVersion": "2.0.0",
  "updatedAt": "2018-04-21T04:13:53.914Z"
}