{
  "contractName": "NoOwner",
  "abi": [
    {
      "constant": false,
      "inputs": [
        {
          "name": "token",
          "type": "address"
        }
      ],
      "name": "reclaimToken",
      "outputs": [],
      "payable": false,
      "stateMutability": "nonpayable",
      "type": "function"
    },
    {
      "constant": false,
      "inputs": [
        {
          "name": "contractAddr",
          "type": "address"
        }
      ],
      "name": "reclaimContract",
      "outputs": [],
      "payable": false,
      "stateMutability": "nonpayable",
      "type": "function"
    },
    {
      "constant": true,
      "inputs": [],
      "name": "validate",
      "outputs": [
        {
          "name": "",
          "type": "bool"
        }
      ],
      "payable": false,
      "stateMutability": "view",
      "type": "function"
    },
    {
      "constant": true,
      "inputs": [],
      "name": "owner",
      "outputs": [
        {
          "name": "",
          "type": "address"
        }
      ],
      "payable": false,
      "stateMutability": "view",
      "type": "function"
    },
    {
      "constant": false,
      "inputs": [],
      "name": "reclaimEther",
      "outputs": [],
      "payable": false,
      "stateMutability": "nonpayable",
      "type": "function"
    },
    {
      "constant": true,
      "inputs": [
        {
          "name": "from_",
          "type": "address"
        },
        {
          "name": "value_",
          "type": "uint256"
        },
        {
          "name": "data_",
          "type": "bytes"
        }
      ],
      "name": "tokenFallback",
      "outputs": [],
      "payable": false,
      "stateMutability": "pure",
      "type": "function"
    },
    {
      "constant": false,
      "inputs": [
        {
          "name": "newOwner",
          "type": "address"
        }
      ],
      "name": "transferOwnership",
      "outputs": [],
      "payable": false,
      "stateMutability": "nonpayable",
      "type": "function"
    },
    {
      "payable": false,
      "stateMutability": "nonpayable",
      "type": "fallback"
    },
    {
      "anonymous": false,
      "inputs": [
        {
          "indexed": true,
          "name": "previousOwner",
          "type": "address"
        },
        {
          "indexed": true,
          "name": "newOwner",
          "type": "address"
        }
      ],
      "name": "OwnershipTransferred",
      "type": "event"
    }
  ],
  "bytecode": "0x606060405260008054600160a060020a03191633600160a060020a0316179055341561002a57600080fd5b610454806100396000396000f3006060604052600436106100695763ffffffff60e060020a60003504166317ffc32081146100765780632aed7f3f146100955780636901f668146100b45780638da5cb5b146100db5780639f727c271461010a578063c0ee0b8a1461011d578063f2fde38b1461014c575b341561007457600080fd5b005b341561008157600080fd5b610074600160a060020a036004351661016b565b34156100a057600080fd5b610074600160a060020a0360043516610212565b34156100bf57600080fd5b6100c7610299565b604051901515815260200160405180910390f35b34156100e657600080fd5b6100ee6102ae565b604051600160a060020a03909116815260200160405180910390f35b341561011557600080fd5b6100746102bd565b341561012857600080fd5b61007460048035600160a060020a0316906024803591604435918201910135610310565b341561015757600080fd5b610074600160a060020a0360043516610315565b6000805433600160a060020a0390811691161461018757600080fd5b81600160a060020a03166370a082313060405160e060020a63ffffffff8416028152600160a060020a039091166004820152602401602060405180830381600087803b15156101d557600080fd5b5af115156101e257600080fd5b505050604051805160005490925061020e9150600160a060020a0384811691168363ffffffff6103b016565b5050565b6000805433600160a060020a0390811691161461022e57600080fd5b506000548190600160a060020a038083169163f2fde38b911660405160e060020a63ffffffff8416028152600160a060020a039091166004820152602401600060405180830381600087803b151561028557600080fd5b5af1151561029257600080fd5b5050505050565b60005433600160a060020a0390811691161490565b600054600160a060020a031681565b60005433600160a060020a039081169116146102d857600080fd5b600054600160a060020a039081169030163180156108fc0290604051600060405180830381858888f19350505050151561030e57fe5b565b600080fd5b60005433600160a060020a0390811691161461033057600080fd5b600160a060020a038116151561034557600080fd5b600054600160a060020a0380831691167f8be0079c531659141344cd1fd0a4f28419497f9722a3daafe3b4186f6b6457e060405160405180910390a36000805473ffffffffffffffffffffffffffffffffffffffff1916600160a060020a0392909216919091179055565b82600160a060020a031663a9059cbb838360405160e060020a63ffffffff8516028152600160a060020a0390921660048301526024820152604401602060405180830381600087803b151561040457600080fd5b5af1151561041157600080fd5b50505060405180519050151561042357fe5b5050505600a165627a7a7230582017b8832ab3639ca5ec62c728d0e66880043f7211a92e8644f24e32b0f2ad958c0029",
  "source": "pragma solidity ^0.4.21;\r\n\r\nimport \"./HasNoEther.sol\";\r\nimport \"./HasNoTokens.sol\";\r\nimport \"./HasNoContracts.sol\";\r\n\r\n\r\ncontract NoOwner is HasNoEther, HasNoTokens, HasNoContracts {\r\n}\r\n",
  "sourcePath": "C:\\Users\\DXenu\\Desktop\\box\\demo_contract\\contracts\\zeppelin\\NoOwner.sol",
  "compiler": {
    "name": "solc",
    "version": "0.4.21+commit.dfe3193c.Emscripten.clang"
  },
  "schemaVersion": "2.0.0",
  "updatedAt": "2018-04-16T13:47:53.886Z"
}