{
  "contractName": "Orders",
  "abi": [
    {
      "constant": false,
      "inputs": [
        {
          "name": "_addr",
          "type": "address"
        }
      ],
      "name": "deleteUser",
      "outputs": [
        {
          "name": "index",
          "type": "uint256"
        }
      ],
      "payable": false,
      "stateMutability": "nonpayable",
      "type": "function"
    },
    {
      "constant": true,
      "inputs": [],
      "name": "validate",
      "outputs": [
        {
          "name": "",
          "type": "bool"
        }
      ],
      "payable": false,
      "stateMutability": "view",
      "type": "function"
    },
    {
      "constant": true,
      "inputs": [
        {
          "name": "_addr",
          "type": "address"
        }
      ],
      "name": "getUser",
      "outputs": [
        {
          "name": "index",
          "type": "uint256"
        },
        {
          "name": "email",
          "type": "bytes32"
        },
        {
          "name": "firstName",
          "type": "bytes32"
        },
        {
          "name": "lastName",
          "type": "bytes32"
        }
      ],
      "payable": false,
      "stateMutability": "view",
      "type": "function"
    },
    {
      "constant": true,
      "inputs": [],
      "name": "owner",
      "outputs": [
        {
          "name": "",
          "type": "address"
        }
      ],
      "payable": false,
      "stateMutability": "view",
      "type": "function"
    },
    {
      "constant": false,
      "inputs": [
        {
          "name": "_addr",
          "type": "address"
        },
        {
          "name": "_email",
          "type": "bytes32"
        },
        {
          "name": "_firstName",
          "type": "bytes32"
        },
        {
          "name": "_lastName",
          "type": "bytes32"
        }
      ],
      "name": "updateUser",
      "outputs": [
        {
          "name": "",
          "type": "bool"
        }
      ],
      "payable": false,
      "stateMutability": "nonpayable",
      "type": "function"
    },
    {
      "constant": true,
      "inputs": [],
      "name": "getUserCount",
      "outputs": [
        {
          "name": "count",
          "type": "uint256"
        }
      ],
      "payable": false,
      "stateMutability": "view",
      "type": "function"
    },
    {
      "constant": false,
      "inputs": [
        {
          "name": "newOwner",
          "type": "address"
        }
      ],
      "name": "transferOwnership",
      "outputs": [],
      "payable": false,
      "stateMutability": "nonpayable",
      "type": "function"
    },
    {
      "constant": true,
      "inputs": [
        {
          "name": "_addr",
          "type": "address"
        }
      ],
      "name": "existsUser",
      "outputs": [
        {
          "name": "isIndexed",
          "type": "bool"
        }
      ],
      "payable": false,
      "stateMutability": "view",
      "type": "function"
    },
    {
      "constant": false,
      "inputs": [
        {
          "name": "_addr",
          "type": "address"
        },
        {
          "name": "_email",
          "type": "bytes32"
        },
        {
          "name": "_firstName",
          "type": "bytes32"
        },
        {
          "name": "_lastName",
          "type": "bytes32"
        }
      ],
      "name": "newtUser",
      "outputs": [
        {
          "name": "index",
          "type": "uint256"
        }
      ],
      "payable": false,
      "stateMutability": "nonpayable",
      "type": "function"
    },
    {
      "constant": true,
      "inputs": [
        {
          "name": "index",
          "type": "uint256"
        }
      ],
      "name": "getUserAtIndex",
      "outputs": [
        {
          "name": "_addr",
          "type": "address"
        }
      ],
      "payable": false,
      "stateMutability": "view",
      "type": "function"
    },
    {
      "anonymous": false,
      "inputs": [
        {
          "indexed": false,
          "name": "_buyer",
          "type": "address"
        },
        {
          "indexed": false,
          "name": "_amount",
          "type": "uint256"
        },
        {
          "indexed": false,
          "name": "_timestamp",
          "type": "uint256"
        }
      ],
      "name": "BuyDirectEvent",
      "type": "event"
    },
    {
      "anonymous": false,
      "inputs": [
        {
          "indexed": true,
          "name": "_addr",
          "type": "address"
        },
        {
          "indexed": false,
          "name": "_index",
          "type": "uint256"
        },
        {
          "indexed": false,
          "name": "_email",
          "type": "bytes32"
        },
        {
          "indexed": false,
          "name": "_firstName",
          "type": "bytes32"
        },
        {
          "indexed": false,
          "name": "_lastName",
          "type": "bytes32"
        }
      ],
      "name": "NewUser",
      "type": "event"
    },
    {
      "anonymous": false,
      "inputs": [
        {
          "indexed": true,
          "name": "_addr",
          "type": "address"
        },
        {
          "indexed": false,
          "name": "_index",
          "type": "uint256"
        },
        {
          "indexed": false,
          "name": "_email",
          "type": "bytes32"
        },
        {
          "indexed": false,
          "name": "_firstName",
          "type": "bytes32"
        },
        {
          "indexed": false,
          "name": "_lastName",
          "type": "bytes32"
        }
      ],
      "name": "UpdateUser",
      "type": "event"
    },
    {
      "anonymous": false,
      "inputs": [
        {
          "indexed": true,
          "name": "_addr",
          "type": "address"
        },
        {
          "indexed": false,
          "name": "_index",
          "type": "uint256"
        }
      ],
      "name": "DeleteUser",
      "type": "event"
    },
    {
      "anonymous": false,
      "inputs": [
        {
          "indexed": true,
          "name": "previousOwner",
          "type": "address"
        },
        {
          "indexed": true,
          "name": "newOwner",
          "type": "address"
        }
      ],
      "name": "OwnershipTransferred",
      "type": "event"
    },
    {
      "constant": true,
      "inputs": [
        {
          "name": "_index",
          "type": "uint256"
        }
      ],
      "name": "getOrder",
      "outputs": [
        {
          "name": "",
          "type": "address"
        },
        {
          "name": "",
          "type": "uint256"
        },
        {
          "name": "",
          "type": "uint256"
        }
      ],
      "payable": false,
      "stateMutability": "view",
      "type": "function"
    },
    {
      "constant": false,
      "inputs": [
        {
          "name": "_index",
          "type": "uint256"
        },
        {
          "name": "_amount",
          "type": "uint256"
        }
      ],
      "name": "approveOrder",
      "outputs": [],
      "payable": false,
      "stateMutability": "nonpayable",
      "type": "function"
    },
    {
      "constant": false,
      "inputs": [
        {
          "name": "_index",
          "type": "uint256"
        }
      ],
      "name": "declineOrder",
      "outputs": [],
      "payable": false,
      "stateMutability": "nonpayable",
      "type": "function"
    },
    {
      "constant": true,
      "inputs": [],
      "name": "getOrdersLength",
      "outputs": [
        {
          "name": "",
          "type": "uint256"
        }
      ],
      "payable": false,
      "stateMutability": "view",
      "type": "function"
    },
    {
      "constant": false,
      "inputs": [],
      "name": "buyDirect",
      "outputs": [],
      "payable": true,
      "stateMutability": "payable",
      "type": "function"
    }
  ],
  "bytecode": "0x606060405260008054600160a060020a033316600160a060020a0319909116179055610e26806100306000396000f3006060604052600436106100da5763ffffffff7c010000000000000000000000000000000000000000000000000000000060003504166307c2e16c81146100df5780634198bb7b14610104578063483e0bd91461011f5780635c60f226146101275780636901f668146101465780636f77926b1461016d5780638da5cb5b146101b85780639bd19ca9146101e7578063b5cb15f71461020f578063ccbdb85c14610222578063d09ef24114610238578063f2fde38b14610284578063f409e87d146102a3578063f53f35ff146102c2578063ffcc7bbf146102ea575b600080fd5b34156100ea57600080fd5b6100f2610300565b60405190815260200160405180910390f35b341561010f57600080fd5b61011d600435602435610324565b005b61011d61048b565b341561013257600080fd5b6100f2600160a060020a0360043516610585565b341561015157600080fd5b610159610742565b604051901515815260200160405180910390f35b341561017857600080fd5b61018c600160a060020a0360043516610757565b604051938452602084019290925260408084019190915260608301919091526080909101905180910390f35b34156101c357600080fd5b6101cb6107ed565b604051600160a060020a03909116815260200160405180910390f35b34156101f257600080fd5b610159600160a060020a03600435166024356044356064356107fc565b341561021a57600080fd5b6100f26108e4565b341561022d57600080fd5b61011d6004356108ea565b341561024357600080fd5b61024e600435610a50565b6040518084600160a060020a0316600160a060020a03168152602001838152602001828152602001935050505060405180910390f35b341561028f57600080fd5b61011d600160a060020a0360043516610ae1565b34156102ae57600080fd5b610159600160a060020a0360043516610b6f565b34156102cd57600080fd5b6100f2600160a060020a0360043516602435604435606435610bc9565b34156102f557600080fd5b6101cb600435610ce0565b6000805433600160a060020a0390811691161461031c57600080fd5b506003545b90565b6000805433600160a060020a0390811691161461034057600080fd5b600060038481548110151561035157fe5b9060005260206000209060030201600101541015151561037057600080fd5b600454600160a060020a03166399a5d747836040517c010000000000000000000000000000000000000000000000000000000063ffffffff84160281526004810191909152602401602060405180830381600087803b15156103d157600080fd5b5af115156103de57600080fd5b505050604051805191506103fa9050828263ffffffff610d2516565b6003805491935090600019810190811061041057fe5b906000526020600020906003020160038481548110151561042d57fe5b60009182526020909120825460039283029091018054600160a060020a031916600160a060020a0390921691909117815560018084015490820155600292830154920191909155805490610485906000198301610d3a565b50505050565b610493610d66565b600034116104a057600080fd5b60606040519081016040528033600160a060020a03168152602001348152602001428152509050600380548060010182816104db9190610d3a565b6000928352602090922083916003020181518154600160a060020a031916600160a060020a0391909116178155602082015181600101556040820151600290910155507f2c33c574213feb1047a6378e9beca724f8bda16b6624875a6dee2edb3edfcdb690508151826020015183604001516040518084600160a060020a0316600160a060020a03168152602001838152602001828152602001935050505060405180910390a150565b600080548190819033600160a060020a039081169116146105a557600080fd5b8380600160a060020a031633600160a060020a03161415156105c657600080fd5b6105cf85610b6f565b15156001146105dd57600080fd5b600160a060020a0385166000908152600160205260409020546002805491945090600019810190811061060c57fe5b60009182526020909120015460028054600160a060020a03909216935083918590811061063557fe5b60009182526020808320919091018054600160a060020a031916600160a060020a0394851617905591841681526001909152604090208390556002805490610681906000198301610d86565b5084600160a060020a03167f117183c06981515bdfa0b70d0448d8eb6ba07648cda62ab7c2b4361eeff80a1b8460405190815260200160405180910390a2600160a060020a0382166000818152600160208190526040918290209081015460028201546003909201547f36cd692caa63e05d06ec64ae3a07dffe3b224fecb32af5fa7bc1469f5bcdde57938893919051938452602084019290925260408084019190915260608301919091526080909101905180910390a250909392505050565b60005433600160a060020a0390811691161490565b6000805481908190819033600160a060020a0390811691161461077957600080fd5b8480600160a060020a031633600160a060020a031614151561079a57600080fd5b6107a386610b6f565b15156001146107b157600080fd5b50505050600160a060020a0391909116600090815260016020819052604090912080549181015460028201546003909201549294909350909190565b600054600160a060020a031681565b6000805433600160a060020a0390811691161461081857600080fd5b8480600160a060020a031633600160a060020a031614151561083957600080fd5b84848461084589610b6f565b151560011461085357600080fd5b600160a060020a0389166000818152600160208190526040918290209081018b9055600281018a905560038101899055547f36cd692caa63e05d06ec64ae3a07dffe3b224fecb32af5fa7bc1469f5bcdde57918b908b908b9051938452602084019290925260408084019190915260608301919091526080909101905180910390a250600198975050505050505050565b60025490565b6108f2610d66565b60005433600160a060020a0390811691161461090d57600080fd5b600060038381548110151561091e57fe5b9060005260206000209060030201600101541015151561093d57600080fd5b600380548390811061094b57fe5b9060005260206000209060030201606060405190810160409081528254600160a060020a03168252600183015460208301526002909201549181019190915290508051600160a060020a03166108fc82602001519081150290604051600060405180830381858888f1935050505015156109c457600080fd5b6003805460001981019081106109d657fe5b90600052602060002090600302016003838154811015156109f357fe5b60009182526020909120825460039283029091018054600160a060020a031916600160a060020a0390921691909117815560018084015490820155600292830154920191909155805490610a4b906000198301610d3a565b505050565b6000806000610a5d610d66565b60005433600160a060020a03908116911614610a7857600080fd5b6003805486908110610a8657fe5b9060005260206000209060030201606060405190810160409081528254600160a060020a0316825260018301546020830152600290920154918101919091529050805181602001518260400151935093509350509193909250565b60005433600160a060020a03908116911614610afc57600080fd5b600160a060020a0381161515610b1157600080fd5b600054600160a060020a0380831691167f8be0079c531659141344cd1fd0a4f28419497f9722a3daafe3b4186f6b6457e060405160405180910390a360008054600160a060020a031916600160a060020a0392909216919091179055565b6002546000901515610b8357506000610bc4565b600160a060020a038216600081815260016020526040902054600280549091908110610bab57fe5b600091825260209091200154600160a060020a03161490505b919050565b60008360005433600160a060020a03908116911614610be757600080fd5b8383610bf288610b6f565b15610bfc57600080fd5b600160a060020a0388166000908152600160208190526040909120808201899055600280820189905560039091018790558054808301610c3c8382610d86565b60009283526020808420929092018054600160a060020a031916600160a060020a038e16908117909155808452600190925260409283902093900392839055917f78b833eacd29aac1183e31c8289157ed550f3b1f9f1526bf2055ef195cac287f918a908a908a9051938452602084019290925260408084019190915260608301919091526080909101905180910390a25050600254600019019695505050505050565b6000805433600160a060020a03908116911614610cfc57600080fd5b6002805483908110610d0a57fe5b600091825260209091200154600160a060020a031692915050565b600082821115610d3457600080fd5b50900390565b815481835581811511610a4b57600302816003028360005260206000209182019101610a4b9190610daa565b606060405190810160409081526000808352602083018190529082015290565b815481835581811511610a4b57600083815260209020610a4b918101908301610de0565b61032191905b80821115610ddc578054600160a060020a03191681556000600182018190556002820155600301610db0565b5090565b61032191905b80821115610ddc5760008155600101610de65600a165627a7a723058206e3e9b7f35f90f9cfa3b0aa15bd75fc6c2e8557c562ff17b2e1afceb8aeda02a0029",
  "source": "pragma solidity ^0.4.21;\r\n\r\nimport \"./zeppelin/Ownable.sol\";\r\nimport \"./zeppelin/SafeMath.sol\";\r\n// import \"zeppelin-solidity/contracts/ownership/Ownable.sol\";\r\n// import \"zeppelin-solidity/contracts/math/SafeMath.sol\";\r\nimport \"./User.sol\";\r\nimport \"./Exchange.sol\";\r\n\r\n\r\ncontract Orders is Ownable, User {\r\n    using SafeMath for uint;\r\n\r\n    struct Order {\r\n        address buyer;\r\n        uint amount;\r\n        uint timestamp;\r\n    }\r\n\r\n    Order[] orders;\r\n    Exchange _exchange;\r\n    event BuyDirectEvent(address _buyer, uint _amount, uint _timestamp);\r\n\r\n    function getOrder(uint _index) public constant onlyOwner returns (address, uint, uint) {\r\n        Order memory order = orders[_index];\r\n        return (order.buyer, order.amount, order.timestamp);\r\n    }\r\n\r\n    function approveOrder(uint _index, uint _amount) public onlyOwner {\r\n        require(orders[_index].amount >= 0);\r\n\r\n        //Order memory order = orders[_index];\r\n\r\n        uint feeAmount = _exchange.calculateFee(_amount);\r\n        _amount = _amount.sub(feeAmount);\r\n        // mint(this, feeAmount);\r\n\r\n        //mint(order.buyer, _amount);\r\n\r\n        orders[_index] = orders[orders.length-1];\r\n        orders.length--;\r\n    }\r\n\r\n    function declineOrder(uint _index) public onlyOwner {\r\n        require(orders[_index].amount >= 0);\r\n\r\n        Order memory order = orders[_index];\r\n        order.buyer.transfer(order.amount);\r\n\r\n        orders[_index] = orders[orders.length-1];\r\n        orders.length--;\r\n    }\r\n\r\n    function getOrdersLength() public constant onlyOwner returns (uint) {\r\n        return orders.length;\r\n    }\r\n\r\n    function buyDirect() public payable {\r\n        require(msg.value > 0);\r\n\r\n        Order memory order = Order({\r\n            buyer: msg.sender,\r\n            amount: msg.value,\r\n            timestamp: now\r\n        });\r\n\r\n        orders.push(order);\r\n\r\n        emit BuyDirectEvent(order.buyer, order.amount, order.timestamp);\r\n    }\r\n\r\n}\r\n",
  "sourcePath": "C:\\Users\\DXenu\\Desktop\\box\\demo_contract\\contracts\\Order.sol",
  "compiler": {
    "name": "solc",
    "version": "0.4.21+commit.dfe3193c.Emscripten.clang"
  },
  "schemaVersion": "2.0.0",
  "updatedAt": "2018-04-16T13:47:53.852Z"
}