{
  "contractName": "Order",
  "abi": [
    {
      "constant": false,
      "inputs": [
        {
          "name": "_addr",
          "type": "address"
        }
      ],
      "name": "deleteUser",
      "outputs": [
        {
          "name": "index",
          "type": "uint256"
        }
      ],
      "payable": false,
      "stateMutability": "nonpayable",
      "type": "function"
    },
    {
      "constant": true,
      "inputs": [],
      "name": "validate",
      "outputs": [
        {
          "name": "",
          "type": "bool"
        }
      ],
      "payable": false,
      "stateMutability": "view",
      "type": "function"
    },
    {
      "constant": true,
      "inputs": [
        {
          "name": "_addr",
          "type": "address"
        }
      ],
      "name": "getUser",
      "outputs": [
        {
          "name": "index",
          "type": "uint256"
        },
        {
          "name": "email",
          "type": "bytes32"
        },
        {
          "name": "firstName",
          "type": "bytes32"
        },
        {
          "name": "lastName",
          "type": "bytes32"
        }
      ],
      "payable": false,
      "stateMutability": "view",
      "type": "function"
    },
    {
      "constant": true,
      "inputs": [],
      "name": "owner",
      "outputs": [
        {
          "name": "",
          "type": "address"
        }
      ],
      "payable": false,
      "stateMutability": "view",
      "type": "function"
    },
    {
      "constant": false,
      "inputs": [
        {
          "name": "_addr",
          "type": "address"
        },
        {
          "name": "_email",
          "type": "bytes32"
        },
        {
          "name": "_firstName",
          "type": "bytes32"
        },
        {
          "name": "_lastName",
          "type": "bytes32"
        }
      ],
      "name": "updateUser",
      "outputs": [
        {
          "name": "",
          "type": "bool"
        }
      ],
      "payable": false,
      "stateMutability": "nonpayable",
      "type": "function"
    },
    {
      "constant": true,
      "inputs": [],
      "name": "getUserCount",
      "outputs": [
        {
          "name": "count",
          "type": "uint256"
        }
      ],
      "payable": false,
      "stateMutability": "view",
      "type": "function"
    },
    {
      "constant": false,
      "inputs": [
        {
          "name": "newOwner",
          "type": "address"
        }
      ],
      "name": "transferOwnership",
      "outputs": [],
      "payable": false,
      "stateMutability": "nonpayable",
      "type": "function"
    },
    {
      "constant": true,
      "inputs": [
        {
          "name": "_addr",
          "type": "address"
        }
      ],
      "name": "existsUser",
      "outputs": [
        {
          "name": "isIndexed",
          "type": "bool"
        }
      ],
      "payable": false,
      "stateMutability": "view",
      "type": "function"
    },
    {
      "constant": false,
      "inputs": [
        {
          "name": "_addr",
          "type": "address"
        },
        {
          "name": "_email",
          "type": "bytes32"
        },
        {
          "name": "_firstName",
          "type": "bytes32"
        },
        {
          "name": "_lastName",
          "type": "bytes32"
        }
      ],
      "name": "newtUser",
      "outputs": [
        {
          "name": "index",
          "type": "uint256"
        }
      ],
      "payable": false,
      "stateMutability": "nonpayable",
      "type": "function"
    },
    {
      "constant": true,
      "inputs": [
        {
          "name": "index",
          "type": "uint256"
        }
      ],
      "name": "getUserAtIndex",
      "outputs": [
        {
          "name": "_addr",
          "type": "address"
        }
      ],
      "payable": false,
      "stateMutability": "view",
      "type": "function"
    },
    {
      "anonymous": false,
      "inputs": [
        {
          "indexed": false,
          "name": "_buyer",
          "type": "address"
        },
        {
          "indexed": false,
          "name": "_amount",
          "type": "uint256"
        },
        {
          "indexed": false,
          "name": "_timestamp",
          "type": "uint256"
        }
      ],
      "name": "BuyDirectEvent",
      "type": "event"
    },
    {
      "anonymous": false,
      "inputs": [
        {
          "indexed": true,
          "name": "_addr",
          "type": "address"
        },
        {
          "indexed": false,
          "name": "_index",
          "type": "uint256"
        },
        {
          "indexed": false,
          "name": "_email",
          "type": "bytes32"
        },
        {
          "indexed": false,
          "name": "_firstName",
          "type": "bytes32"
        },
        {
          "indexed": false,
          "name": "_lastName",
          "type": "bytes32"
        }
      ],
      "name": "NewUser",
      "type": "event"
    },
    {
      "anonymous": false,
      "inputs": [
        {
          "indexed": true,
          "name": "_addr",
          "type": "address"
        },
        {
          "indexed": false,
          "name": "_index",
          "type": "uint256"
        },
        {
          "indexed": false,
          "name": "_email",
          "type": "bytes32"
        },
        {
          "indexed": false,
          "name": "_firstName",
          "type": "bytes32"
        },
        {
          "indexed": false,
          "name": "_lastName",
          "type": "bytes32"
        }
      ],
      "name": "UpdateUser",
      "type": "event"
    },
    {
      "anonymous": false,
      "inputs": [
        {
          "indexed": true,
          "name": "_addr",
          "type": "address"
        },
        {
          "indexed": false,
          "name": "_index",
          "type": "uint256"
        }
      ],
      "name": "DeleteUser",
      "type": "event"
    },
    {
      "anonymous": false,
      "inputs": [
        {
          "indexed": true,
          "name": "previousOwner",
          "type": "address"
        },
        {
          "indexed": true,
          "name": "newOwner",
          "type": "address"
        }
      ],
      "name": "OwnershipTransferred",
      "type": "event"
    },
    {
      "constant": true,
      "inputs": [
        {
          "name": "_index",
          "type": "uint256"
        }
      ],
      "name": "getOrder",
      "outputs": [
        {
          "name": "",
          "type": "address"
        },
        {
          "name": "",
          "type": "uint256"
        },
        {
          "name": "",
          "type": "uint256"
        }
      ],
      "payable": false,
      "stateMutability": "view",
      "type": "function"
    },
    {
      "constant": false,
      "inputs": [
        {
          "name": "_index",
          "type": "uint256"
        }
      ],
      "name": "declineOrder",
      "outputs": [],
      "payable": false,
      "stateMutability": "nonpayable",
      "type": "function"
    },
    {
      "constant": true,
      "inputs": [],
      "name": "getOrdersLength",
      "outputs": [
        {
          "name": "",
          "type": "uint256"
        }
      ],
      "payable": false,
      "stateMutability": "view",
      "type": "function"
    },
    {
      "constant": false,
      "inputs": [],
      "name": "buyDirect",
      "outputs": [],
      "payable": true,
      "stateMutability": "payable",
      "type": "function"
    }
  ],
  "bytecode": "0x606060405260008054600160a060020a033316600160a060020a0319909116179055610cd4806100306000396000f3006060604052600436106100cf5763ffffffff7c010000000000000000000000000000000000000000000000000000000060003504166307c2e16c81146100d4578063483e0bd9146100f95780635c60f226146101035780636901f668146101225780636f77926b146101495780638da5cb5b146101945780639bd19ca9146101c3578063b5cb15f7146101eb578063ccbdb85c146101fe578063d09ef24114610214578063f2fde38b14610260578063f409e87d1461027f578063f53f35ff1461029e578063ffcc7bbf146102c6575b600080fd5b34156100df57600080fd5b6100e76102dc565b60405190815260200160405180910390f35b610101610300565b005b341561010e57600080fd5b6100e7600160a060020a0360043516610407565b341561012d57600080fd5b6101356105d1565b604051901515815260200160405180910390f35b341561015457600080fd5b610168600160a060020a03600435166105e6565b604051938452602084019290925260408084019190915260608301919091526080909101905180910390f35b341561019f57600080fd5b6101a761067c565b604051600160a060020a03909116815260200160405180910390f35b34156101ce57600080fd5b610135600160a060020a036004351660243560443560643561068b565b34156101f657600080fd5b6100e7610773565b341561020957600080fd5b610101600435610779565b341561021f57600080fd5b61022a6004356108ec565b6040518084600160a060020a0316600160a060020a03168152602001838152602001828152602001935050505060405180910390f35b341561026b57600080fd5b610101600160a060020a036004351661097d565b341561028a57600080fd5b610135600160a060020a0360043516610a18565b34156102a957600080fd5b6100e7600160a060020a0360043516602435604435606435610a72565b34156102d157600080fd5b6101a7600435610b96565b6000805433600160a060020a039081169116146102f857600080fd5b506003545b90565b610308610bdb565b6000341161031557600080fd5b60606040519081016040528033600160a060020a03168152602001348152602001428152509050600380548060010182816103509190610bfb565b600092835260209092208391600302018151815473ffffffffffffffffffffffffffffffffffffffff1916600160a060020a0391909116178155602082015181600101556040820151600290910155507f2c33c574213feb1047a6378e9beca724f8bda16b6624875a6dee2edb3edfcdb690508151826020015183604001516040518084600160a060020a0316600160a060020a03168152602001838152602001828152602001935050505060405180910390a150565b600080548190819033600160a060020a0390811691161461042757600080fd5b8380600160a060020a031633600160a060020a031614151561044857600080fd5b61045185610a18565b151560011461045f57600080fd5b600160a060020a0385166000908152600160205260409020546002805491945090600019810190811061048e57fe5b60009182526020909120015460028054600160a060020a0390921693508391859081106104b757fe5b6000918252602080832091909101805473ffffffffffffffffffffffffffffffffffffffff1916600160a060020a0394851617905591841681526001909152604090208390556002805490610510906000198301610c27565b5084600160a060020a03167f117183c06981515bdfa0b70d0448d8eb6ba07648cda62ab7c2b4361eeff80a1b8460405190815260200160405180910390a2600160a060020a0382166000818152600160208190526040918290209081015460028201546003909201547f36cd692caa63e05d06ec64ae3a07dffe3b224fecb32af5fa7bc1469f5bcdde57938893919051938452602084019290925260408084019190915260608301919091526080909101905180910390a250909392505050565b60005433600160a060020a0390811691161490565b6000805481908190819033600160a060020a0390811691161461060857600080fd5b8480600160a060020a031633600160a060020a031614151561062957600080fd5b61063286610a18565b151560011461064057600080fd5b50505050600160a060020a0391909116600090815260016020819052604090912080549181015460028201546003909201549294909350909190565b600054600160a060020a031681565b6000805433600160a060020a039081169116146106a757600080fd5b8480600160a060020a031633600160a060020a03161415156106c857600080fd5b8484846106d489610a18565b15156001146106e257600080fd5b600160a060020a0389166000818152600160208190526040918290209081018b9055600281018a905560038101899055547f36cd692caa63e05d06ec64ae3a07dffe3b224fecb32af5fa7bc1469f5bcdde57918b908b908b9051938452602084019290925260408084019190915260608301919091526080909101905180910390a250600198975050505050505050565b60025490565b610781610bdb565b60005433600160a060020a0390811691161461079c57600080fd5b60006003838154811015156107ad57fe5b906000526020600020906003020160010154101515156107cc57600080fd5b60038054839081106107da57fe5b9060005260206000209060030201606060405190810160409081528254600160a060020a03168252600183015460208301526002909201549181019190915290508051600160a060020a03166108fc82602001519081150290604051600060405180830381858888f19350505050151561085357600080fd5b60038054600019810190811061086557fe5b906000526020600020906003020160038381548110151561088257fe5b6000918252602090912082546003928302909101805473ffffffffffffffffffffffffffffffffffffffff1916600160a060020a03909216919091178155600180840154908201556002928301549201919091558054906108e7906000198301610bfb565b505050565b60008060006108f9610bdb565b60005433600160a060020a0390811691161461091457600080fd5b600380548690811061092257fe5b9060005260206000209060030201606060405190810160409081528254600160a060020a0316825260018301546020830152600290920154918101919091529050805181602001518260400151935093509350509193909250565b60005433600160a060020a0390811691161461099857600080fd5b600160a060020a03811615156109ad57600080fd5b600054600160a060020a0380831691167f8be0079c531659141344cd1fd0a4f28419497f9722a3daafe3b4186f6b6457e060405160405180910390a36000805473ffffffffffffffffffffffffffffffffffffffff1916600160a060020a0392909216919091179055565b6002546000901515610a2c57506000610a6d565b600160a060020a038216600081815260016020526040902054600280549091908110610a5457fe5b600091825260209091200154600160a060020a03161490505b919050565b60008360005433600160a060020a03908116911614610a9057600080fd5b8383610a9b88610a18565b15610aa557600080fd5b600160a060020a0388166000908152600160208190526040909120808201899055600280820189905560039091018790558054808301610ae58382610c27565b6000928352602080842092909201805473ffffffffffffffffffffffffffffffffffffffff1916600160a060020a038e16908117909155808452600190925260409283902093900392839055917f78b833eacd29aac1183e31c8289157ed550f3b1f9f1526bf2055ef195cac287f918a908a908a9051938452602084019290925260408084019190915260608301919091526080909101905180910390a25050600254600019019695505050505050565b6000805433600160a060020a03908116911614610bb257600080fd5b6002805483908110610bc057fe5b600091825260209091200154600160a060020a031692915050565b606060405190810160409081526000808352602083018190529082015290565b8154818355818115116108e7576003028160030283600052602060002091820191016108e79190610c4b565b8154818355818115116108e7576000838152602090206108e7918101908301610c8e565b6102fd91905b80821115610c8a57805473ffffffffffffffffffffffffffffffffffffffff191681556000600182018190556002820155600301610c51565b5090565b6102fd91905b80821115610c8a5760008155600101610c945600a165627a7a72305820c0b71c2b36a93ce35a6c56a0f16a7f4ceb4ef248e920c5df64806d98ad85e6c40029",
  "source": "pragma solidity ^0.4.21;\r\n\r\nimport \"./zeppelin/Ownable.sol\";\r\nimport \"./zeppelin/SafeMath.sol\";\r\nimport \"./User.sol\";\r\n\r\n\r\ncontract Order is Ownable, User {\r\n    using SafeMath for uint;\r\n\r\n    struct OrderStruct {\r\n        address buyer;\r\n        uint256 amount;\r\n        uint256 timestamp;\r\n    }\r\n\r\n    OrderStruct[] orders;\r\n\r\n    event BuyDirectEvent(address _buyer, uint _amount, uint _timestamp);\r\n\r\n    function getOrder(uint _index) public constant onlyOwner returns (address, uint, uint) {\r\n        OrderStruct memory order = orders[_index];\r\n        return (order.buyer, order.amount, order.timestamp);\r\n    }\r\n\r\n    /* @TODO\r\n    function approveOrder(uint _index, uint _amount) public onlyOwner {\r\n        require(orders[_index].amount >= 0);\r\n\r\n        //OrderStruct memory order = orders[_index];\r\n\r\n        uint feeAmount = _exchange.calculateFee(_amount);\r\n        _amount = _amount.sub(feeAmount);\r\n        // mint(this, feeAmount);\r\n\r\n        //mint(order.buyer, _amount);\r\n\r\n        orders[_index] = orders[orders.length-1];\r\n        orders.length--;\r\n    }*/\r\n\r\n    function declineOrder(uint _index) public onlyOwner {\r\n        require(orders[_index].amount >= 0);\r\n\r\n        OrderStruct memory order = orders[_index];\r\n        order.buyer.transfer(order.amount);\r\n\r\n        orders[_index] = orders[orders.length-1];\r\n        orders.length--;\r\n    }\r\n\r\n    function getOrdersLength() public constant onlyOwner returns (uint) {\r\n        return orders.length;\r\n    }\r\n\r\n    function buyDirect() public payable {\r\n        require(msg.value > 0);\r\n\r\n        OrderStruct memory order = OrderStruct({\r\n            buyer: msg.sender,\r\n            amount: msg.value,\r\n            timestamp: now\r\n        });\r\n\r\n        orders.push(order);\r\n\r\n        emit BuyDirectEvent(order.buyer, order.amount, order.timestamp);\r\n    }\r\n\r\n}\r\n",
  "sourcePath": "C:\\Users\\DXenu\\Desktop\\box\\demo_contract\\contracts\\Order.sol",
  "compiler": {
    "name": "solc",
    "version": "0.4.21+commit.dfe3193c.Emscripten.clang"
  },
  "schemaVersion": "2.0.0",
  "updatedAt": "2018-04-16T19:29:05.662Z"
}