{
  "contractName": "Places",
  "abi": [
    {
      "constant": false,
      "inputs": [
        {
          "name": "_addr",
          "type": "address"
        }
      ],
      "name": "deleteUser",
      "outputs": [
        {
          "name": "index",
          "type": "uint256"
        }
      ],
      "payable": false,
      "stateMutability": "nonpayable",
      "type": "function"
    },
    {
      "constant": true,
      "inputs": [],
      "name": "validate",
      "outputs": [
        {
          "name": "",
          "type": "bool"
        }
      ],
      "payable": false,
      "stateMutability": "view",
      "type": "function"
    },
    {
      "constant": true,
      "inputs": [
        {
          "name": "_addr",
          "type": "address"
        }
      ],
      "name": "getUser",
      "outputs": [
        {
          "name": "index",
          "type": "uint256"
        },
        {
          "name": "email",
          "type": "bytes32"
        },
        {
          "name": "firstName",
          "type": "bytes32"
        },
        {
          "name": "lastName",
          "type": "bytes32"
        }
      ],
      "payable": false,
      "stateMutability": "view",
      "type": "function"
    },
    {
      "constant": true,
      "inputs": [],
      "name": "owner",
      "outputs": [
        {
          "name": "",
          "type": "address"
        }
      ],
      "payable": false,
      "stateMutability": "view",
      "type": "function"
    },
    {
      "constant": false,
      "inputs": [
        {
          "name": "_addr",
          "type": "address"
        },
        {
          "name": "_email",
          "type": "bytes32"
        },
        {
          "name": "_firstName",
          "type": "bytes32"
        },
        {
          "name": "_lastName",
          "type": "bytes32"
        }
      ],
      "name": "updateUser",
      "outputs": [
        {
          "name": "",
          "type": "bool"
        }
      ],
      "payable": false,
      "stateMutability": "nonpayable",
      "type": "function"
    },
    {
      "constant": true,
      "inputs": [],
      "name": "getUserCount",
      "outputs": [
        {
          "name": "count",
          "type": "uint256"
        }
      ],
      "payable": false,
      "stateMutability": "view",
      "type": "function"
    },
    {
      "constant": false,
      "inputs": [
        {
          "name": "newOwner",
          "type": "address"
        }
      ],
      "name": "transferOwnership",
      "outputs": [],
      "payable": false,
      "stateMutability": "nonpayable",
      "type": "function"
    },
    {
      "constant": true,
      "inputs": [
        {
          "name": "_addr",
          "type": "address"
        }
      ],
      "name": "existsUser",
      "outputs": [
        {
          "name": "isIndexed",
          "type": "bool"
        }
      ],
      "payable": false,
      "stateMutability": "view",
      "type": "function"
    },
    {
      "constant": false,
      "inputs": [
        {
          "name": "_addr",
          "type": "address"
        },
        {
          "name": "_email",
          "type": "bytes32"
        },
        {
          "name": "_firstName",
          "type": "bytes32"
        },
        {
          "name": "_lastName",
          "type": "bytes32"
        }
      ],
      "name": "newtUser",
      "outputs": [
        {
          "name": "index",
          "type": "uint256"
        }
      ],
      "payable": false,
      "stateMutability": "nonpayable",
      "type": "function"
    },
    {
      "constant": true,
      "inputs": [
        {
          "name": "index",
          "type": "uint256"
        }
      ],
      "name": "getUserAtIndex",
      "outputs": [
        {
          "name": "_addr",
          "type": "address"
        }
      ],
      "payable": false,
      "stateMutability": "view",
      "type": "function"
    },
    {
      "inputs": [],
      "payable": false,
      "stateMutability": "nonpayable",
      "type": "constructor"
    },
    {
      "anonymous": false,
      "inputs": [
        {
          "indexed": true,
          "name": "_addr",
          "type": "address"
        },
        {
          "indexed": true,
          "name": "_userAddr",
          "type": "address"
        },
        {
          "indexed": false,
          "name": "_index",
          "type": "uint256"
        },
        {
          "indexed": false,
          "name": "_msq",
          "type": "uint8"
        },
        {
          "indexed": false,
          "name": "_kwh",
          "type": "uint8"
        },
        {
          "indexed": false,
          "name": "_price",
          "type": "uint16"
        }
      ],
      "name": "NewPlace",
      "type": "event"
    },
    {
      "anonymous": false,
      "inputs": [
        {
          "indexed": true,
          "name": "_addr",
          "type": "address"
        },
        {
          "indexed": true,
          "name": "_userAddr",
          "type": "address"
        },
        {
          "indexed": false,
          "name": "_index",
          "type": "uint256"
        },
        {
          "indexed": false,
          "name": "_msq",
          "type": "uint8"
        },
        {
          "indexed": false,
          "name": "_kwh",
          "type": "uint8"
        },
        {
          "indexed": false,
          "name": "_price",
          "type": "uint16"
        }
      ],
      "name": "UpdatePlace",
      "type": "event"
    },
    {
      "anonymous": false,
      "inputs": [
        {
          "indexed": true,
          "name": "_addr",
          "type": "address"
        },
        {
          "indexed": false,
          "name": "_index",
          "type": "uint256"
        }
      ],
      "name": "DeletePlace",
      "type": "event"
    },
    {
      "anonymous": false,
      "inputs": [
        {
          "indexed": true,
          "name": "_addr",
          "type": "address"
        },
        {
          "indexed": false,
          "name": "_index",
          "type": "uint256"
        },
        {
          "indexed": false,
          "name": "_email",
          "type": "bytes32"
        },
        {
          "indexed": false,
          "name": "_firstName",
          "type": "bytes32"
        },
        {
          "indexed": false,
          "name": "_lastName",
          "type": "bytes32"
        }
      ],
      "name": "NewUser",
      "type": "event"
    },
    {
      "anonymous": false,
      "inputs": [
        {
          "indexed": true,
          "name": "_addr",
          "type": "address"
        },
        {
          "indexed": false,
          "name": "_index",
          "type": "uint256"
        },
        {
          "indexed": false,
          "name": "_email",
          "type": "bytes32"
        },
        {
          "indexed": false,
          "name": "_firstName",
          "type": "bytes32"
        },
        {
          "indexed": false,
          "name": "_lastName",
          "type": "bytes32"
        }
      ],
      "name": "UpdateUser",
      "type": "event"
    },
    {
      "anonymous": false,
      "inputs": [
        {
          "indexed": true,
          "name": "_addr",
          "type": "address"
        },
        {
          "indexed": false,
          "name": "_index",
          "type": "uint256"
        }
      ],
      "name": "DeleteUser",
      "type": "event"
    },
    {
      "anonymous": false,
      "inputs": [
        {
          "indexed": true,
          "name": "previousOwner",
          "type": "address"
        },
        {
          "indexed": true,
          "name": "newOwner",
          "type": "address"
        }
      ],
      "name": "OwnershipTransferred",
      "type": "event"
    },
    {
      "constant": true,
      "inputs": [
        {
          "name": "_addr",
          "type": "address"
        }
      ],
      "name": "existsPlace",
      "outputs": [
        {
          "name": "isIndexed",
          "type": "bool"
        }
      ],
      "payable": false,
      "stateMutability": "view",
      "type": "function"
    },
    {
      "constant": false,
      "inputs": [
        {
          "name": "_addr",
          "type": "address"
        },
        {
          "name": "_userAddr",
          "type": "address"
        },
        {
          "name": "_msq",
          "type": "uint8"
        },
        {
          "name": "_kwh",
          "type": "uint8"
        },
        {
          "name": "_price",
          "type": "uint16"
        }
      ],
      "name": "newPlace",
      "outputs": [
        {
          "name": "index",
          "type": "uint256"
        }
      ],
      "payable": false,
      "stateMutability": "nonpayable",
      "type": "function"
    },
    {
      "constant": true,
      "inputs": [
        {
          "name": "_addr",
          "type": "address"
        }
      ],
      "name": "getPlace",
      "outputs": [
        {
          "name": "index",
          "type": "uint256"
        },
        {
          "name": "msq",
          "type": "uint8"
        },
        {
          "name": "kwh",
          "type": "uint8"
        },
        {
          "name": "price",
          "type": "uint16"
        },
        {
          "name": "userId",
          "type": "address"
        }
      ],
      "payable": false,
      "stateMutability": "view",
      "type": "function"
    },
    {
      "constant": false,
      "inputs": [
        {
          "name": "_addr",
          "type": "address"
        },
        {
          "name": "_userAddr",
          "type": "address"
        },
        {
          "name": "_msq",
          "type": "uint8"
        },
        {
          "name": "_kwh",
          "type": "uint8"
        },
        {
          "name": "_price",
          "type": "uint16"
        }
      ],
      "name": "updatePlace",
      "outputs": [
        {
          "name": "",
          "type": "bool"
        }
      ],
      "payable": false,
      "stateMutability": "nonpayable",
      "type": "function"
    },
    {
      "constant": false,
      "inputs": [
        {
          "name": "_addr",
          "type": "address"
        },
        {
          "name": "_userAddr",
          "type": "address"
        }
      ],
      "name": "deletePlace",
      "outputs": [
        {
          "name": "index",
          "type": "uint256"
        }
      ],
      "payable": false,
      "stateMutability": "nonpayable",
      "type": "function"
    },
    {
      "constant": true,
      "inputs": [],
      "name": "getPlaceCount",
      "outputs": [
        {
          "name": "count",
          "type": "uint256"
        }
      ],
      "payable": false,
      "stateMutability": "view",
      "type": "function"
    },
    {
      "constant": true,
      "inputs": [
        {
          "name": "index",
          "type": "uint256"
        }
      ],
      "name": "getPlaceAtIndex",
      "outputs": [
        {
          "name": "_addr",
          "type": "address"
        }
      ],
      "payable": false,
      "stateMutability": "view",
      "type": "function"
    }
  ],
  "bytecode": "0x6060604052341561000f57600080fd5b60008054600160a060020a033316600160a060020a0319909116179055610feb8061003b6000396000f3006060604052600436106100f05763ffffffff7c010000000000000000000000000000000000000000000000000000000060003504166304af486081146100f5578063142478d61461012c5780632a2bb4c41461018e5780635c60f226146101c15780636901f668146101e05780636f75cada146101f35780636f77926b146102065780638da5cb5b146102515780639bd19ca914610280578063b5cb15f7146102a8578063d5bdb6ec146102bb578063f03ba3ee146102f3578063f2fde38b14610309578063f409e87d1461032a578063f53f35ff14610349578063fa2b259c14610371578063ffcc7bbf146103a9575b600080fd5b341561010057600080fd5b61011a600160a060020a03600435811690602435166103bf565b60405190815260200160405180910390f35b341561013757600080fd5b61014b600160a060020a03600435166105a9565b60405194855260ff93841660208601529190921660408085019190915261ffff9092166060840152600160a060020a0316608083015260a0909101905180910390f35b341561019957600080fd5b6101ad600160a060020a0360043516610616565b604051901515815260200160405180910390f35b34156101cc57600080fd5b61011a600160a060020a0360043516610670565b34156101eb57600080fd5b6101ad61083a565b34156101fe57600080fd5b61011a610850565b341561021157600080fd5b610225600160a060020a0360043516610856565b604051938452602084019290925260408084019190915260608301919091526080909101905180910390f35b341561025c57600080fd5b6102646108ec565b604051600160a060020a03909116815260200160405180910390f35b341561028b57600080fd5b6101ad600160a060020a03600435166024356044356064356108fb565b34156102b357600080fd5b61011a6109e3565b34156102c657600080fd5b6101ad600160a060020a036004358116906024351660ff6044358116906064351661ffff608435166109e9565b34156102fe57600080fd5b610264600435610b10565b341561031457600080fd5b610328600160a060020a0360043516610b3c565b005b341561033557600080fd5b6101ad600160a060020a0360043516610bd7565b341561035457600080fd5b61011a600160a060020a0360043516602435604435606435610c13565b341561037c57600080fd5b61011a600160a060020a036004358116906024351660ff6044358116906064351661ffff60843516610d37565b34156103b457600080fd5b610264600435610f4e565b600080548190819033600160a060020a039081169116146103df57600080fd5b8380600160a060020a031633600160a060020a031614151561040057600080fd5b61040986610616565b151560011461041757600080fd5b600160a060020a0386166000908152600360205260409020546004805491945090600019810190811061044657fe5b60009182526020909120015460048054600160a060020a03909216935083918590811061046f57fe5b6000918252602080832091909101805473ffffffffffffffffffffffffffffffffffffffff1916600160a060020a03948516179055918416815260039091526040902083905560048054906104c8906000198301610f78565b5085600160a060020a03167f6c1d95bd25751045e988b768e3e9d37019d92428e694b456cc77d0eb83a49bd18460405190815260200160405180910390a2600160a060020a0382811660008181526003602052604090819020600101546401000000008104909316927f14e6f8ed13bdc5b46b0fec74e94e70b199f0a484e034fb5ab0bb646db34f5f8a91879160ff8082169261010083049091169162010000900461ffff16905193845260ff9283166020850152911660408084019190915261ffff90911660608301526080909101905180910390a35090949350505050565b60008060008060006105ba86610616565b15156001146105c857600080fd5b50505050600160a060020a0391821660009081526003602052604090208054600190910154909360ff808316946101008404909116935062010000830461ffff169264010000000090041690565b600454600090151561062a5750600061066b565b600160a060020a03821660008181526003602052604090205460048054909190811061065257fe5b600091825260209091200154600160a060020a03161490505b919050565b600080548190819033600160a060020a0390811691161461069057600080fd5b8380600160a060020a031633600160a060020a03161415156106b157600080fd5b6106ba85610bd7565b15156001146106c857600080fd5b600160a060020a038516600090815260016020526040902054600280549194509060001981019081106106f757fe5b60009182526020909120015460028054600160a060020a03909216935083918590811061072057fe5b6000918252602080832091909101805473ffffffffffffffffffffffffffffffffffffffff1916600160a060020a0394851617905591841681526001909152604090208390556002805490610779906000198301610f78565b5084600160a060020a03167f117183c06981515bdfa0b70d0448d8eb6ba07648cda62ab7c2b4361eeff80a1b8460405190815260200160405180910390a2600160a060020a0382166000818152600160208190526040918290209081015460028201546003909201547f36cd692caa63e05d06ec64ae3a07dffe3b224fecb32af5fa7bc1469f5bcdde57938893919051938452602084019290925260408084019190915260608301919091526080909101905180910390a250909392505050565b60005433600160a060020a039081169116145b90565b60045490565b6000805481908190819033600160a060020a0390811691161461087857600080fd5b8480600160a060020a031633600160a060020a031614151561089957600080fd5b6108a286610bd7565b15156001146108b057600080fd5b50505050600160a060020a0391909116600090815260016020819052604090912080549181015460028201546003909201549294909350909190565b600054600160a060020a031681565b6000805433600160a060020a0390811691161461091757600080fd5b8480600160a060020a031633600160a060020a031614151561093857600080fd5b84848461094489610bd7565b151560011461095257600080fd5b600160a060020a0389166000818152600160208190526040918290209081018b9055600281018a905560038101899055547f36cd692caa63e05d06ec64ae3a07dffe3b224fecb32af5fa7bc1469f5bcdde57918b908b908b9051938452602084019290925260408084019190915260608301919091526080909101905180910390a250600198975050505050505050565b60025490565b6000805433600160a060020a03908116911614610a0557600080fd5b8480600160a060020a031633600160a060020a0316141515610a2657600080fd5b610a2f87610616565b1515600114610a3d57600080fd5b610a4686610bd7565b1515600114610a5457600080fd5b600160a060020a038781166000818152600360205260409081902060018101805460ff191660ff8b81169190911761ff001916610100918b16919091021763ffff000019166201000061ffff8a160217905554928916927f14e6f8ed13bdc5b46b0fec74e94e70b199f0a484e034fb5ab0bb646db34f5f8a918990899089905193845260ff9283166020850152911660408084019190915261ffff90911660608301526080909101905180910390a35060019695505050505050565b6000600482815481101515610b2157fe5b600091825260209091200154600160a060020a031692915050565b60005433600160a060020a03908116911614610b5757600080fd5b600160a060020a0381161515610b6c57600080fd5b600054600160a060020a0380831691167f8be0079c531659141344cd1fd0a4f28419497f9722a3daafe3b4186f6b6457e060405160405180910390a36000805473ffffffffffffffffffffffffffffffffffffffff1916600160a060020a0392909216919091179055565b6002546000901515610beb5750600061066b565b600160a060020a03821660008181526001602052604090205460028054909190811061065257fe5b60008360005433600160a060020a03908116911614610c3157600080fd5b8383610c3c88610bd7565b15610c4657600080fd5b600160a060020a0388166000908152600160208190526040909120808201899055600280820189905560039091018790558054808301610c868382610f78565b6000928352602080842092909201805473ffffffffffffffffffffffffffffffffffffffff1916600160a060020a038e16908117909155808452600190925260409283902093900392839055917f78b833eacd29aac1183e31c8289157ed550f3b1f9f1526bf2055ef195cac287f918a908a908a9051938452602084019290925260408084019190915260608301919091526080909101905180910390a25050600254600019019695505050505050565b6000805433600160a060020a03908116911614610d5357600080fd5b8480600160a060020a031633600160a060020a0316141515610d7457600080fd5b610d7d87610616565b15610d8757600080fd5b610d9087610bd7565b1515600114610d9e57600080fd5b600160a060020a0387811660009081526003602052604090206001908101805460ff191660ff8981169190911761ff001916610100918916919091021763ffff000019166201000061ffff8816021777ffffffffffffffffffffffffffffffffffffffff000000001916640100000000938a16939093029290921790915560048054808301610e2d8382610f78565b6000928352602080842092909201805473ffffffffffffffffffffffffffffffffffffffff1916600160a060020a038d81169182179092558085526003909352604093849020949091039384905589169290917f2a4af3dcdaf87b692186cac5b607d155f4e1c99f127fdd97c6a8a257b3a063d191908990899089905193845260ff9283166020850152911660408084019190915261ffff90911660608301526080909101905180910390a3600160a060020a0387166000908152600160208190526040909120600401805490918101610f078382610f78565b5060009182526020909120018054600160a060020a03891673ffffffffffffffffffffffffffffffffffffffff199091161790556004546000190191505095945050505050565b6000805433600160a060020a03908116911614610f6a57600080fd5b6002805483908110610b2157fe5b815481835581811511610f9c57600083815260209020610f9c918101908301610fa1565b505050565b61084d91905b80821115610fbb5760008155600101610fa7565b50905600a165627a7a723058204f0267762e849b72987faf2708857277ca100ad6c02e5f3da28ceb2f4b2ce2490029",
  "source": "pragma solidity ^0.4.21;\r\n\r\nimport \"./zeppelin/Ownable.sol\";\r\nimport \"./zeppelin/SafeMath.sol\";\r\n// import \"zeppelin-solidity/contracts/ownership/Ownable.sol\";\r\n// import \"zeppelin-solidity/contracts/math/SafeMath.sol\";\r\nimport \"./User.sol\";\r\n\r\n\r\ncontract Places is Ownable, User {\r\n    using SafeMath for uint;\r\n\r\n    struct PlaceStruct {\r\n        uint index;\r\n        uint8 msq;\r\n        uint8 kwh;\r\n        uint16 price;\r\n        address userId;\r\n    }\r\n\r\n    event NewPlace(address indexed _addr, address indexed _userAddr, uint _index, uint8 _msq, uint8 _kwh, uint16 _price);\r\n    event UpdatePlace(address indexed _addr, address indexed _userAddr, uint _index, uint8 _msq, uint8 _kwh, uint16 _price);\r\n    event DeletePlace(address indexed _addr,  uint _index);\r\n    \r\n    mapping(address => PlaceStruct) places;\r\n    address[] private placeIndex;\r\n\r\n    function Places() public {\r\n    }\r\n\r\n    function existsPlace(address _addr) public constant returns(bool isIndexed) {\r\n        if(placeIndex.length == 0) return false;\r\n        return (placeIndex[places[_addr].index] == _addr);\r\n    }\r\n\r\n    function newPlace(address _addr, address _userAddr, uint8 _msq, uint8 _kwh, uint16 _price)\r\n    onlyOwner\r\n    onlyBy(_userAddr)\r\n    public\r\n    returns(uint index) {\r\n        require(existsPlace(_addr) == false);\r\n        require(existsUser(_addr) == true);\r\n        places[_addr].msq = _msq;\r\n        places[_addr].kwh = _kwh;\r\n        places[_addr].price = _price;\r\n        places[_addr].userId = _userAddr;\r\n        places[_addr].index = placeIndex.push(_addr) - 1;\r\n        emit NewPlace(_addr, _userAddr, places[_addr].index,  _msq, _kwh, _price);\r\n        users[_addr].placeId.push(_addr);\r\n        return placeIndex.length - 1;\r\n    }\r\n\r\n    function getPlace(address _addr)\r\n    public\r\n    constant\r\n    returns(uint index, uint8 msq, uint8 kwh, uint16 price, address userId) {\r\n        require(existsPlace(_addr) == true);\r\n        return(\r\n            places[_addr].index,\r\n            places[_addr].msq,\r\n            places[_addr].kwh,\r\n            places[_addr].price,\r\n            places[_addr].userId\r\n        );\r\n    }\r\n\r\n    function updatePlace(address _addr, address _userAddr, uint8 _msq, uint8 _kwh, uint16 _price)\r\n    public\r\n    onlyOwner\r\n    onlyBy(_userAddr)\r\n    returns(bool) {\r\n        require(existsPlace(_addr) == true);\r\n        require(existsUser(_userAddr) == true);\r\n        places[_addr].msq = _msq;\r\n        places[_addr].kwh = _kwh;\r\n        places[_addr].price = _price;\r\n        emit UpdatePlace(_addr, _userAddr, places[_addr].index, _msq, _kwh, _price);\r\n        return true;\r\n    }\r\n\r\n    function deletePlace(address _addr, address _userAddr)\r\n    public\r\n    onlyOwner\r\n    onlyBy(_userAddr)\r\n    returns(uint index) {\r\n        require(existsPlace(_addr) == true);\r\n        uint _rowToDelete = places[_addr].index;\r\n        address _keyToMove = placeIndex[placeIndex.length - 1];\r\n        placeIndex[_rowToDelete] = _keyToMove;\r\n        places[_keyToMove].index = _rowToDelete; \r\n        placeIndex.length--;\r\n        emit DeletePlace(_addr, _rowToDelete);\r\n        emit UpdatePlace(_keyToMove, places[_keyToMove].userId, _rowToDelete, places[_keyToMove].msq, places[_keyToMove].kwh, places[_keyToMove].price);\r\n        return _rowToDelete;\r\n    }\r\n\r\n    function getPlaceCount() public constant returns(uint count) {\r\n        return placeIndex.length;\r\n    }\r\n\r\n    function getPlaceAtIndex(uint index) public constant returns(address _addr) {\r\n        return placeIndex[index];\r\n    }\r\n\r\n}\r\n",
  "sourcePath": "C:\\Users\\DXenu\\Desktop\\box\\demo_contract\\contracts\\Place.sol",
  "compiler": {
    "name": "solc",
    "version": "0.4.21+commit.dfe3193c.Emscripten.clang"
  },
  "schemaVersion": "2.0.0",
  "updatedAt": "2018-04-16T13:47:53.856Z"
}