{
  "contractName": "Place",
  "abi": [
    {
      "constant": false,
      "inputs": [
        {
          "name": "_addr",
          "type": "address"
        }
      ],
      "name": "deleteUser",
      "outputs": [
        {
          "name": "index",
          "type": "uint256"
        }
      ],
      "payable": false,
      "stateMutability": "nonpayable",
      "type": "function"
    },
    {
      "constant": true,
      "inputs": [],
      "name": "validate",
      "outputs": [
        {
          "name": "",
          "type": "bool"
        }
      ],
      "payable": false,
      "stateMutability": "view",
      "type": "function"
    },
    {
      "constant": true,
      "inputs": [
        {
          "name": "_addr",
          "type": "address"
        }
      ],
      "name": "getUser",
      "outputs": [
        {
          "name": "index",
          "type": "uint256"
        },
        {
          "name": "email",
          "type": "bytes32"
        },
        {
          "name": "firstName",
          "type": "bytes32"
        },
        {
          "name": "lastName",
          "type": "bytes32"
        }
      ],
      "payable": false,
      "stateMutability": "view",
      "type": "function"
    },
    {
      "constant": true,
      "inputs": [],
      "name": "owner",
      "outputs": [
        {
          "name": "",
          "type": "address"
        }
      ],
      "payable": false,
      "stateMutability": "view",
      "type": "function"
    },
    {
      "constant": false,
      "inputs": [
        {
          "name": "_addr",
          "type": "address"
        },
        {
          "name": "_email",
          "type": "bytes32"
        },
        {
          "name": "_firstName",
          "type": "bytes32"
        },
        {
          "name": "_lastName",
          "type": "bytes32"
        }
      ],
      "name": "updateUser",
      "outputs": [
        {
          "name": "",
          "type": "bool"
        }
      ],
      "payable": false,
      "stateMutability": "nonpayable",
      "type": "function"
    },
    {
      "constant": true,
      "inputs": [],
      "name": "getUserCount",
      "outputs": [
        {
          "name": "count",
          "type": "uint256"
        }
      ],
      "payable": false,
      "stateMutability": "view",
      "type": "function"
    },
    {
      "constant": false,
      "inputs": [
        {
          "name": "newOwner",
          "type": "address"
        }
      ],
      "name": "transferOwnership",
      "outputs": [],
      "payable": false,
      "stateMutability": "nonpayable",
      "type": "function"
    },
    {
      "constant": true,
      "inputs": [
        {
          "name": "_addr",
          "type": "address"
        }
      ],
      "name": "existsUser",
      "outputs": [
        {
          "name": "isIndexed",
          "type": "bool"
        }
      ],
      "payable": false,
      "stateMutability": "view",
      "type": "function"
    },
    {
      "constant": false,
      "inputs": [
        {
          "name": "_addr",
          "type": "address"
        },
        {
          "name": "_email",
          "type": "bytes32"
        },
        {
          "name": "_firstName",
          "type": "bytes32"
        },
        {
          "name": "_lastName",
          "type": "bytes32"
        }
      ],
      "name": "newtUser",
      "outputs": [
        {
          "name": "index",
          "type": "uint256"
        }
      ],
      "payable": false,
      "stateMutability": "nonpayable",
      "type": "function"
    },
    {
      "constant": true,
      "inputs": [
        {
          "name": "index",
          "type": "uint256"
        }
      ],
      "name": "getUserAtIndex",
      "outputs": [
        {
          "name": "_addr",
          "type": "address"
        }
      ],
      "payable": false,
      "stateMutability": "view",
      "type": "function"
    },
    {
      "inputs": [],
      "payable": false,
      "stateMutability": "nonpayable",
      "type": "constructor"
    },
    {
      "anonymous": false,
      "inputs": [
        {
          "indexed": true,
          "name": "_addr",
          "type": "address"
        },
        {
          "indexed": true,
          "name": "_userAddr",
          "type": "address"
        },
        {
          "indexed": false,
          "name": "_index",
          "type": "uint256"
        },
        {
          "indexed": false,
          "name": "_msq",
          "type": "uint256"
        },
        {
          "indexed": false,
          "name": "_kwh",
          "type": "uint256"
        },
        {
          "indexed": false,
          "name": "_price",
          "type": "uint256"
        }
      ],
      "name": "NewPlace",
      "type": "event"
    },
    {
      "anonymous": false,
      "inputs": [
        {
          "indexed": true,
          "name": "_addr",
          "type": "address"
        },
        {
          "indexed": true,
          "name": "_userAddr",
          "type": "address"
        },
        {
          "indexed": false,
          "name": "_index",
          "type": "uint256"
        },
        {
          "indexed": false,
          "name": "_msq",
          "type": "uint256"
        },
        {
          "indexed": false,
          "name": "_kwh",
          "type": "uint256"
        },
        {
          "indexed": false,
          "name": "_price",
          "type": "uint256"
        }
      ],
      "name": "UpdatePlace",
      "type": "event"
    },
    {
      "anonymous": false,
      "inputs": [
        {
          "indexed": true,
          "name": "_addr",
          "type": "address"
        },
        {
          "indexed": false,
          "name": "_index",
          "type": "uint256"
        }
      ],
      "name": "DeletePlace",
      "type": "event"
    },
    {
      "anonymous": false,
      "inputs": [
        {
          "indexed": true,
          "name": "_addr",
          "type": "address"
        },
        {
          "indexed": false,
          "name": "_index",
          "type": "uint256"
        },
        {
          "indexed": false,
          "name": "_email",
          "type": "bytes32"
        },
        {
          "indexed": false,
          "name": "_firstName",
          "type": "bytes32"
        },
        {
          "indexed": false,
          "name": "_lastName",
          "type": "bytes32"
        }
      ],
      "name": "NewUser",
      "type": "event"
    },
    {
      "anonymous": false,
      "inputs": [
        {
          "indexed": true,
          "name": "_addr",
          "type": "address"
        },
        {
          "indexed": false,
          "name": "_index",
          "type": "uint256"
        },
        {
          "indexed": false,
          "name": "_email",
          "type": "bytes32"
        },
        {
          "indexed": false,
          "name": "_firstName",
          "type": "bytes32"
        },
        {
          "indexed": false,
          "name": "_lastName",
          "type": "bytes32"
        }
      ],
      "name": "UpdateUser",
      "type": "event"
    },
    {
      "anonymous": false,
      "inputs": [
        {
          "indexed": true,
          "name": "_addr",
          "type": "address"
        },
        {
          "indexed": false,
          "name": "_index",
          "type": "uint256"
        }
      ],
      "name": "DeleteUser",
      "type": "event"
    },
    {
      "anonymous": false,
      "inputs": [
        {
          "indexed": true,
          "name": "previousOwner",
          "type": "address"
        },
        {
          "indexed": true,
          "name": "newOwner",
          "type": "address"
        }
      ],
      "name": "OwnershipTransferred",
      "type": "event"
    },
    {
      "constant": true,
      "inputs": [
        {
          "name": "_addr",
          "type": "address"
        }
      ],
      "name": "existsPlace",
      "outputs": [
        {
          "name": "isIndexed",
          "type": "bool"
        }
      ],
      "payable": false,
      "stateMutability": "view",
      "type": "function"
    },
    {
      "constant": false,
      "inputs": [
        {
          "name": "_addr",
          "type": "address"
        },
        {
          "name": "_userAddr",
          "type": "address"
        },
        {
          "name": "_msq",
          "type": "uint256"
        },
        {
          "name": "_kwh",
          "type": "uint256"
        },
        {
          "name": "_price",
          "type": "uint256"
        }
      ],
      "name": "newPlace",
      "outputs": [
        {
          "name": "index",
          "type": "uint256"
        }
      ],
      "payable": false,
      "stateMutability": "nonpayable",
      "type": "function"
    },
    {
      "constant": true,
      "inputs": [
        {
          "name": "_addr",
          "type": "address"
        }
      ],
      "name": "getPlace",
      "outputs": [
        {
          "name": "index",
          "type": "uint256"
        },
        {
          "name": "msq",
          "type": "uint256"
        },
        {
          "name": "kwh",
          "type": "uint256"
        },
        {
          "name": "price",
          "type": "uint256"
        },
        {
          "name": "userId",
          "type": "address"
        }
      ],
      "payable": false,
      "stateMutability": "view",
      "type": "function"
    },
    {
      "constant": false,
      "inputs": [
        {
          "name": "_addr",
          "type": "address"
        },
        {
          "name": "_userAddr",
          "type": "address"
        },
        {
          "name": "_msq",
          "type": "uint256"
        },
        {
          "name": "_kwh",
          "type": "uint256"
        },
        {
          "name": "_price",
          "type": "uint256"
        }
      ],
      "name": "updatePlace",
      "outputs": [
        {
          "name": "",
          "type": "bool"
        }
      ],
      "payable": false,
      "stateMutability": "nonpayable",
      "type": "function"
    },
    {
      "constant": false,
      "inputs": [
        {
          "name": "_addr",
          "type": "address"
        },
        {
          "name": "_userAddr",
          "type": "address"
        }
      ],
      "name": "deletePlace",
      "outputs": [
        {
          "name": "index",
          "type": "uint256"
        }
      ],
      "payable": false,
      "stateMutability": "nonpayable",
      "type": "function"
    },
    {
      "constant": true,
      "inputs": [],
      "name": "getPlaceCount",
      "outputs": [
        {
          "name": "count",
          "type": "uint256"
        }
      ],
      "payable": false,
      "stateMutability": "view",
      "type": "function"
    },
    {
      "constant": true,
      "inputs": [
        {
          "name": "index",
          "type": "uint256"
        }
      ],
      "name": "getPlaceAtIndex",
      "outputs": [
        {
          "name": "_addr",
          "type": "address"
        }
      ],
      "payable": false,
      "stateMutability": "view",
      "type": "function"
    }
  ],
  "bytecode": "0x6060604052341561000f57600080fd5b60008054600160a060020a033316600160a060020a0319909116179055610efc8061003b6000396000f3006060604052600436106100f05763ffffffff7c010000000000000000000000000000000000000000000000000000000060003504166304af486081146100f5578063142478d61461012c5780632a2bb4c4146101845780635c60f226146101b75780636901f668146101d65780636f75cada146101e95780636f77926b146101fc5780638da5cb5b1461024757806391689368146102765780639bd19ca9146102a4578063a3a8e410146102cc578063b5cb15f7146102fa578063f03ba3ee1461030d578063f2fde38b14610323578063f409e87d14610344578063f53f35ff14610363578063ffcc7bbf1461038b575b600080fd5b341561010057600080fd5b61011a600160a060020a03600435811690602435166103a1565b60405190815260200160405180910390f35b341561013757600080fd5b61014b600160a060020a0360043516610568565b60405194855260208501939093526040808501929092526060840152600160a060020a03909116608083015260a0909101905180910390f35b341561018f57600080fd5b6101a3600160a060020a03600435166105ca565b604051901515815260200160405180910390f35b34156101c257600080fd5b61011a600160a060020a0360043516610624565b34156101e157600080fd5b6101a36107e1565b34156101f457600080fd5b61011a6107f7565b341561020757600080fd5b61021b600160a060020a03600435166107fd565b604051938452602084019290925260408084019190915260608301919091526080909101905180910390f35b341561025257600080fd5b61025a610893565b604051600160a060020a03909116815260200160405180910390f35b341561028157600080fd5b6101a3600160a060020a03600435811690602435166044356064356084356108a2565b34156102af57600080fd5b6101a3600160a060020a03600435166024356044356064356109a0565b34156102d757600080fd5b61011a600160a060020a0360043581169060243516604435606435608435610a88565b341561030557600080fd5b61011a610c4c565b341561031857600080fd5b61025a600435610c52565b341561032e57600080fd5b610342600160a060020a0360043516610c7e565b005b341561034f57600080fd5b6101a3600160a060020a0360043516610d0c565b341561036e57600080fd5b61011a600160a060020a0360043516602435604435606435610d48565b341561039657600080fd5b61025a600435610e5f565b600080548190819033600160a060020a039081169116146103c157600080fd5b8380600160a060020a031633600160a060020a03161415156103e257600080fd5b6103eb866105ca565b15156001146103f957600080fd5b600160a060020a0386166000908152600360205260409020546004805491945090600019810190811061042857fe5b60009182526020909120015460048054600160a060020a03909216935083918590811061045157fe5b60009182526020808320919091018054600160a060020a031916600160a060020a039485161790559184168152600390915260409020839055600480549061049d906000198301610e89565b5085600160a060020a03167f6c1d95bd25751045e988b768e3e9d37019d92428e694b456cc77d0eb83a49bd18460405190815260200160405180910390a2600160a060020a0380831660008181526003602081905260409182902060048101546001820154600283015492909301549516947f43df8d8c1fde4e94242f6f5f15ad3ccd67bd5faf8f82d4ab3cfaa86a283df464938993929190518085815260200184815260200183815260200182815260200194505050505060405180910390a35090949350505050565b6000806000806000610579866105ca565b151560011461058757600080fd5b50505050600160a060020a039182166000908152600360208190526040909120805460018201546002830154938301546004909301549196909593945091921690565b60045460009015156105de5750600061061f565b600160a060020a03821660008181526003602052604090205460048054909190811061060657fe5b600091825260209091200154600160a060020a03161490505b919050565b600080548190819033600160a060020a0390811691161461064457600080fd5b8380600160a060020a031633600160a060020a031614151561066557600080fd5b61066e85610d0c565b151560011461067c57600080fd5b600160a060020a038516600090815260016020526040902054600280549194509060001981019081106106ab57fe5b60009182526020909120015460028054600160a060020a0390921693508391859081106106d457fe5b60009182526020808320919091018054600160a060020a031916600160a060020a0394851617905591841681526001909152604090208390556002805490610720906000198301610e89565b5084600160a060020a03167f117183c06981515bdfa0b70d0448d8eb6ba07648cda62ab7c2b4361eeff80a1b8460405190815260200160405180910390a2600160a060020a0382166000818152600160208190526040918290209081015460028201546003909201547f36cd692caa63e05d06ec64ae3a07dffe3b224fecb32af5fa7bc1469f5bcdde57938893919051938452602084019290925260408084019190915260608301919091526080909101905180910390a250909392505050565b60005433600160a060020a039081169116145b90565b60045490565b6000805481908190819033600160a060020a0390811691161461081f57600080fd5b8480600160a060020a031633600160a060020a031614151561084057600080fd5b61084986610d0c565b151560011461085757600080fd5b50505050600160a060020a0391909116600090815260016020819052604090912080549181015460028201546003909201549294909350909190565b600054600160a060020a031681565b6000805433600160a060020a039081169116146108be57600080fd5b8480600160a060020a031633600160a060020a03161415156108df57600080fd5b6108e8876105ca565b15156001146108f657600080fd5b6108ff86610d0c565b151560011461090d57600080fd5b600160a060020a03808816600081815260036020819052604091829020600181018a90556002810189905590810187905554928916927f43df8d8c1fde4e94242f6f5f15ad3ccd67bd5faf8f82d4ab3cfaa86a283df46491899089908990518085815260200184815260200183815260200182815260200194505050505060405180910390a35060019695505050505050565b6000805433600160a060020a039081169116146109bc57600080fd5b8480600160a060020a031633600160a060020a03161415156109dd57600080fd5b8484846109e989610d0c565b15156001146109f757600080fd5b600160a060020a0389166000818152600160208190526040918290209081018b9055600281018a905560038101899055547f36cd692caa63e05d06ec64ae3a07dffe3b224fecb32af5fa7bc1469f5bcdde57918b908b908b9051938452602084019290925260408084019190915260608301919091526080909101905180910390a250600198975050505050505050565b6000805433600160a060020a03908116911614610aa457600080fd5b8480600160a060020a031633600160a060020a0316141515610ac557600080fd5b610ace876105ca565b15610ad857600080fd5b610ae187610d0c565b1515600114610aef57600080fd5b600160a060020a03878116600090815260036020819052604090912060018082018990556002820188905591810186905560049081018054600160a060020a031916938a16939093179092558154909190808301610b4d8382610e89565b60009283526020808420929092018054600160a060020a031916600160a060020a038d81169182179092558085526003909352604093849020949091039384905589169290917fdeb59675e98052d764553c2c57534f2f59055bc41b4d20cd7a35c110eb7d139a9190899089908990518085815260200184815260200183815260200182815260200194505050505060405180910390a3600160a060020a0387166000908152600160208190526040909120600401805490918101610c128382610e89565b5060009182526020909120018054600160a060020a038916600160a060020a03199091161790556004546000190191505095945050505050565b60025490565b6000600482815481101515610c6357fe5b600091825260209091200154600160a060020a031692915050565b60005433600160a060020a03908116911614610c9957600080fd5b600160a060020a0381161515610cae57600080fd5b600054600160a060020a0380831691167f8be0079c531659141344cd1fd0a4f28419497f9722a3daafe3b4186f6b6457e060405160405180910390a360008054600160a060020a031916600160a060020a0392909216919091179055565b6002546000901515610d205750600061061f565b600160a060020a03821660008181526001602052604090205460028054909190811061060657fe5b60008360005433600160a060020a03908116911614610d6657600080fd5b8383610d7188610d0c565b15610d7b57600080fd5b600160a060020a0388166000908152600160208190526040909120808201899055600280820189905560039091018790558054808301610dbb8382610e89565b60009283526020808420929092018054600160a060020a031916600160a060020a038e16908117909155808452600190925260409283902093900392839055917f78b833eacd29aac1183e31c8289157ed550f3b1f9f1526bf2055ef195cac287f918a908a908a9051938452602084019290925260408084019190915260608301919091526080909101905180910390a25050600254600019019695505050505050565b6000805433600160a060020a03908116911614610e7b57600080fd5b6002805483908110610c6357fe5b815481835581811511610ead57600083815260209020610ead918101908301610eb2565b505050565b6107f491905b80821115610ecc5760008155600101610eb8565b50905600a165627a7a72305820d70bb42cfcf6a355141f08b898d21149f94a86615e86aa50fc20c7e330d63b420029",
  "source": "pragma solidity ^0.4.21;\r\n\r\nimport \"./zeppelin/Ownable.sol\";\r\nimport \"./zeppelin/SafeMath.sol\";\r\nimport \"./User.sol\";\r\n\r\n\r\ncontract Place is Ownable, User {\r\n\r\n    using SafeMath for uint256;\r\n\r\n    struct PlaceStruct {\r\n        uint256 index;\r\n        uint256 msq;\r\n        uint256 kwh;\r\n        uint256 price;\r\n        address userId;\r\n    }\r\n\r\n    event NewPlace(address indexed _addr, address indexed _userAddr, uint256 _index, uint256 _msq, uint256 _kwh, uint256 _price);\r\n    event UpdatePlace(address indexed _addr, address indexed _userAddr, uint256 _index, uint256 _msq, uint256 _kwh, uint256 _price);\r\n    event DeletePlace(address indexed _addr,  uint256 _index);\r\n    \r\n    mapping(address => PlaceStruct) places;\r\n    address[] private placeIndex;\r\n\r\n    function Place() public {\r\n    }\r\n\r\n    function existsPlace(address _addr) public constant returns(bool isIndexed) {\r\n        if(placeIndex.length == 0) return false;\r\n        return (placeIndex[places[_addr].index] == _addr);\r\n    }\r\n\r\n    function newPlace(address _addr, address _userAddr, uint256 _msq, uint256 _kwh, uint256 _price)\r\n    onlyOwner\r\n    onlyBy(_userAddr)\r\n    public\r\n    returns(uint256 index) {\r\n        require(existsPlace(_addr) == false);\r\n        require(existsUser(_addr) == true);\r\n        places[_addr].msq = _msq;\r\n        places[_addr].kwh = _kwh;\r\n        places[_addr].price = _price;\r\n        places[_addr].userId = _userAddr;\r\n        places[_addr].index = placeIndex.push(_addr) - 1;\r\n        emit NewPlace(_addr, _userAddr, places[_addr].index,  _msq, _kwh, _price);\r\n        users[_addr].placeId.push(_addr);\r\n        return placeIndex.length - 1;\r\n    }\r\n\r\n    function getPlace(address _addr)\r\n    public\r\n    constant\r\n    returns(uint256 index, uint256 msq, uint256 kwh, uint256 price, address userId) {\r\n        require(existsPlace(_addr) == true);\r\n        return(\r\n            places[_addr].index,\r\n            places[_addr].msq,\r\n            places[_addr].kwh,\r\n            places[_addr].price,\r\n            places[_addr].userId\r\n        );\r\n    }\r\n\r\n    function updatePlace(address _addr, address _userAddr, uint256 _msq, uint256 _kwh, uint256 _price)\r\n    public\r\n    onlyOwner\r\n    onlyBy(_userAddr)\r\n    returns(bool) {\r\n        require(existsPlace(_addr) == true);\r\n        require(existsUser(_userAddr) == true);\r\n        places[_addr].msq = _msq;\r\n        places[_addr].kwh = _kwh;\r\n        places[_addr].price = _price;\r\n        emit UpdatePlace(_addr, _userAddr, places[_addr].index, _msq, _kwh, _price);\r\n        return true;\r\n    }\r\n\r\n    function deletePlace(address _addr, address _userAddr)\r\n    public\r\n    onlyOwner\r\n    onlyBy(_userAddr)\r\n    returns(uint256 index) {\r\n        require(existsPlace(_addr) == true);\r\n        uint256 _rowToDelete = places[_addr].index;\r\n        address _keyToMove = placeIndex[placeIndex.length - 1];\r\n        placeIndex[_rowToDelete] = _keyToMove;\r\n        places[_keyToMove].index = _rowToDelete; \r\n        placeIndex.length--;\r\n        emit DeletePlace(_addr, _rowToDelete);\r\n        emit UpdatePlace(_keyToMove, places[_keyToMove].userId, _rowToDelete, places[_keyToMove].msq, places[_keyToMove].kwh, places[_keyToMove].price);\r\n        return _rowToDelete;\r\n    }\r\n\r\n    function getPlaceCount() public constant returns(uint count) {\r\n        return placeIndex.length;\r\n    }\r\n\r\n    function getPlaceAtIndex(uint index) public constant returns(address _addr) {\r\n        return placeIndex[index];\r\n    }\r\n\r\n}\r\n",
  "sourcePath": "C:\\Users\\DXenu\\Desktop\\box\\demo_contract\\contracts\\Place.sol",
  "compiler": {
    "name": "solc",
    "version": "0.4.21+commit.dfe3193c.Emscripten.clang"
  },
  "schemaVersion": "2.0.0",
  "updatedAt": "2018-04-16T19:29:05.671Z"
}