{
  "contractName": "PowerPiperCrowdsale",
  "abi": [
    {
      "constant": false,
      "inputs": [
        {
          "name": "_spender",
          "type": "address"
        },
        {
          "name": "_tokens",
          "type": "uint256"
        }
      ],
      "name": "approve",
      "outputs": [
        {
          "name": "success",
          "type": "bool"
        }
      ],
      "payable": false,
      "stateMutability": "nonpayable",
      "type": "function"
    },
    {
      "constant": true,
      "inputs": [],
      "name": "startDate",
      "outputs": [
        {
          "name": "",
          "type": "uint256"
        }
      ],
      "payable": false,
      "stateMutability": "view",
      "type": "function"
    },
    {
      "constant": true,
      "inputs": [],
      "name": "bot",
      "outputs": [
        {
          "name": "",
          "type": "address"
        }
      ],
      "payable": false,
      "stateMutability": "view",
      "type": "function"
    },
    {
      "constant": true,
      "inputs": [],
      "name": "totalSupply",
      "outputs": [
        {
          "name": "",
          "type": "uint256"
        }
      ],
      "payable": false,
      "stateMutability": "view",
      "type": "function"
    },
    {
      "constant": false,
      "inputs": [
        {
          "name": "_from",
          "type": "address"
        },
        {
          "name": "_to",
          "type": "address"
        },
        {
          "name": "_tokens",
          "type": "uint256"
        }
      ],
      "name": "transferFrom",
      "outputs": [
        {
          "name": "success",
          "type": "bool"
        }
      ],
      "payable": false,
      "stateMutability": "nonpayable",
      "type": "function"
    },
    {
      "constant": true,
      "inputs": [],
      "name": "rate",
      "outputs": [
        {
          "name": "",
          "type": "uint256"
        }
      ],
      "payable": false,
      "stateMutability": "view",
      "type": "function"
    },
    {
      "constant": true,
      "inputs": [],
      "name": "decimals",
      "outputs": [
        {
          "name": "",
          "type": "uint8"
        }
      ],
      "payable": false,
      "stateMutability": "view",
      "type": "function"
    },
    {
      "constant": true,
      "inputs": [],
      "name": "cap",
      "outputs": [
        {
          "name": "",
          "type": "uint256"
        }
      ],
      "payable": false,
      "stateMutability": "view",
      "type": "function"
    },
    {
      "constant": true,
      "inputs": [],
      "name": "_totalSupply",
      "outputs": [
        {
          "name": "",
          "type": "uint256"
        }
      ],
      "payable": false,
      "stateMutability": "view",
      "type": "function"
    },
    {
      "constant": true,
      "inputs": [],
      "name": "weiRaised",
      "outputs": [
        {
          "name": "",
          "type": "uint256"
        }
      ],
      "payable": false,
      "stateMutability": "view",
      "type": "function"
    },
    {
      "constant": true,
      "inputs": [],
      "name": "bonusEnds",
      "outputs": [
        {
          "name": "",
          "type": "uint256"
        }
      ],
      "payable": false,
      "stateMutability": "view",
      "type": "function"
    },
    {
      "constant": true,
      "inputs": [],
      "name": "icoState",
      "outputs": [
        {
          "name": "",
          "type": "uint8"
        }
      ],
      "payable": false,
      "stateMutability": "view",
      "type": "function"
    },
    {
      "constant": true,
      "inputs": [],
      "name": "bonusRate",
      "outputs": [
        {
          "name": "",
          "type": "uint256"
        }
      ],
      "payable": false,
      "stateMutability": "view",
      "type": "function"
    },
    {
      "constant": true,
      "inputs": [],
      "name": "validate",
      "outputs": [
        {
          "name": "",
          "type": "bool"
        }
      ],
      "payable": false,
      "stateMutability": "view",
      "type": "function"
    },
    {
      "constant": false,
      "inputs": [
        {
          "name": "_bot",
          "type": "address"
        }
      ],
      "name": "setBot",
      "outputs": [],
      "payable": false,
      "stateMutability": "nonpayable",
      "type": "function"
    },
    {
      "constant": true,
      "inputs": [],
      "name": "tokenName",
      "outputs": [
        {
          "name": "",
          "type": "bytes32"
        }
      ],
      "payable": false,
      "stateMutability": "view",
      "type": "function"
    },
    {
      "constant": true,
      "inputs": [
        {
          "name": "_tokenOwner",
          "type": "address"
        }
      ],
      "name": "balanceOf",
      "outputs": [
        {
          "name": "balance",
          "type": "uint256"
        }
      ],
      "payable": false,
      "stateMutability": "view",
      "type": "function"
    },
    {
      "constant": false,
      "inputs": [],
      "name": "startIco",
      "outputs": [],
      "payable": false,
      "stateMutability": "nonpayable",
      "type": "function"
    },
    {
      "constant": true,
      "inputs": [],
      "name": "owner",
      "outputs": [
        {
          "name": "",
          "type": "address"
        }
      ],
      "payable": false,
      "stateMutability": "view",
      "type": "function"
    },
    {
      "constant": true,
      "inputs": [],
      "name": "symbol",
      "outputs": [
        {
          "name": "",
          "type": "bytes32"
        }
      ],
      "payable": false,
      "stateMutability": "view",
      "type": "function"
    },
    {
      "constant": false,
      "inputs": [
        {
          "name": "_to",
          "type": "address"
        },
        {
          "name": "_tokens",
          "type": "uint256"
        }
      ],
      "name": "transfer",
      "outputs": [
        {
          "name": "success",
          "type": "bool"
        }
      ],
      "payable": false,
      "stateMutability": "nonpayable",
      "type": "function"
    },
    {
      "constant": true,
      "inputs": [],
      "name": "endDate",
      "outputs": [
        {
          "name": "",
          "type": "uint256"
        }
      ],
      "payable": false,
      "stateMutability": "view",
      "type": "function"
    },
    {
      "constant": false,
      "inputs": [],
      "name": "pauseIco",
      "outputs": [],
      "payable": false,
      "stateMutability": "nonpayable",
      "type": "function"
    },
    {
      "constant": true,
      "inputs": [
        {
          "name": "_tokenOwner",
          "type": "address"
        },
        {
          "name": "_spender",
          "type": "address"
        }
      ],
      "name": "allowance",
      "outputs": [
        {
          "name": "remaining",
          "type": "uint256"
        }
      ],
      "payable": false,
      "stateMutability": "view",
      "type": "function"
    },
    {
      "constant": false,
      "inputs": [],
      "name": "finishIco",
      "outputs": [],
      "payable": false,
      "stateMutability": "nonpayable",
      "type": "function"
    },
    {
      "constant": false,
      "inputs": [
        {
          "name": "newOwner",
          "type": "address"
        }
      ],
      "name": "transferOwnership",
      "outputs": [],
      "payable": false,
      "stateMutability": "nonpayable",
      "type": "function"
    },
    {
      "inputs": [],
      "payable": false,
      "stateMutability": "nonpayable",
      "type": "constructor"
    },
    {
      "payable": true,
      "stateMutability": "payable",
      "type": "fallback"
    },
    {
      "anonymous": false,
      "inputs": [],
      "name": "RunIco",
      "type": "event"
    },
    {
      "anonymous": false,
      "inputs": [],
      "name": "PauseIco",
      "type": "event"
    },
    {
      "anonymous": false,
      "inputs": [],
      "name": "FinishIco",
      "type": "event"
    },
    {
      "anonymous": false,
      "inputs": [
        {
          "indexed": true,
          "name": "previousOwner",
          "type": "address"
        },
        {
          "indexed": true,
          "name": "newOwner",
          "type": "address"
        }
      ],
      "name": "OwnershipTransferred",
      "type": "event"
    },
    {
      "anonymous": false,
      "inputs": [
        {
          "indexed": true,
          "name": "from",
          "type": "address"
        },
        {
          "indexed": true,
          "name": "to",
          "type": "address"
        },
        {
          "indexed": false,
          "name": "value",
          "type": "uint256"
        }
      ],
      "name": "Transfer",
      "type": "event"
    },
    {
      "anonymous": false,
      "inputs": [
        {
          "indexed": true,
          "name": "owner",
          "type": "address"
        },
        {
          "indexed": true,
          "name": "spender",
          "type": "address"
        },
        {
          "indexed": false,
          "name": "value",
          "type": "uint256"
        }
      ],
      "name": "Approval",
      "type": "event"
    },
    {
      "constant": true,
      "inputs": [],
      "name": "hasClosed",
      "outputs": [
        {
          "name": "",
          "type": "bool"
        }
      ],
      "payable": false,
      "stateMutability": "view",
      "type": "function"
    },
    {
      "constant": true,
      "inputs": [],
      "name": "capReached",
      "outputs": [
        {
          "name": "",
          "type": "bool"
        }
      ],
      "payable": false,
      "stateMutability": "view",
      "type": "function"
    },
    {
      "constant": false,
      "inputs": [
        {
          "name": "_spender",
          "type": "address"
        },
        {
          "name": "_tokens",
          "type": "uint256"
        },
        {
          "name": "_data",
          "type": "bytes"
        }
      ],
      "name": "approveAndCall",
      "outputs": [
        {
          "name": "success",
          "type": "bool"
        }
      ],
      "payable": false,
      "stateMutability": "nonpayable",
      "type": "function"
    },
    {
      "constant": false,
      "inputs": [
        {
          "name": "_spender",
          "type": "address"
        },
        {
          "name": "_addedValue",
          "type": "uint256"
        }
      ],
      "name": "increaseApproval",
      "outputs": [
        {
          "name": "",
          "type": "bool"
        }
      ],
      "payable": false,
      "stateMutability": "nonpayable",
      "type": "function"
    },
    {
      "constant": false,
      "inputs": [
        {
          "name": "_spender",
          "type": "address"
        },
        {
          "name": "_subtractedValue",
          "type": "uint256"
        }
      ],
      "name": "decreaseApproval",
      "outputs": [
        {
          "name": "",
          "type": "bool"
        }
      ],
      "payable": false,
      "stateMutability": "nonpayable",
      "type": "function"
    },
    {
      "constant": false,
      "inputs": [
        {
          "name": "_tokenOwner",
          "type": "address"
        }
      ],
      "name": "reclaimToken",
      "outputs": [
        {
          "name": "",
          "type": "bool"
        }
      ],
      "payable": false,
      "stateMutability": "nonpayable",
      "type": "function"
    },
    {
      "constant": false,
      "inputs": [
        {
          "name": "_beneficiary",
          "type": "address"
        }
      ],
      "name": "addToWhitelist",
      "outputs": [],
      "payable": false,
      "stateMutability": "nonpayable",
      "type": "function"
    },
    {
      "constant": false,
      "inputs": [
        {
          "name": "_beneficiaries",
          "type": "address[]"
        }
      ],
      "name": "addManyToWhitelist",
      "outputs": [],
      "payable": false,
      "stateMutability": "nonpayable",
      "type": "function"
    },
    {
      "constant": false,
      "inputs": [
        {
          "name": "_beneficiary",
          "type": "address"
        }
      ],
      "name": "removeFromWhitelist",
      "outputs": [],
      "payable": false,
      "stateMutability": "nonpayable",
      "type": "function"
    },
    {
      "constant": false,
      "inputs": [
        {
          "name": "_beneficiary",
          "type": "address"
        }
      ],
      "name": "getWhitelistStatus",
      "outputs": [
        {
          "name": "",
          "type": "bool"
        }
      ],
      "payable": false,
      "stateMutability": "nonpayable",
      "type": "function"
    }
  ],
  "bytecode": "0x60606040526004805460a060020a60ff0219169055600f805460ff19169055341561002957600080fd5b60038054600160a060020a03191633600160a060020a03161790557f50575000000000000000000000000000000000000000000000000000000000006005557f506f7765725069706572546f6b656e000000000000000000000000000000000060065560078054601260ff199091161790554260c88101600855622e248081016009556301dfe20001600a55611388600b5569021e19e0c9bab2400000600d55611770600c55611382806100de6000396000f3006060604052600436106101c15763ffffffff7c0100000000000000000000000000000000000000000000000000000000600035041663095ea7b381146103435780630b97bc861461037957806310814c371461039e5780631515bc2b146103cd57806317ffc320146103e057806318160ddd146103ff57806323b872dd146104125780632c4e722e1461043a578063313ce5671461044d578063355274ea146104765780633eaaf86b146104895780634042b66f1461049c57806340c65003146104af57806344f38756146104c25780634f935945146104f95780635af123f41461050c578063661884631461051f5780636901f668146105415780636b5caec4146105545780636c02a9311461057557806370a082311461058857806389311e6f146105a75780638ab1d681146105ba5780638c10671c146105d95780638da5cb5b1461062857806395d89b411461063b578063a9059cbb1461064e578063c24a0f8b14610670578063c4fdc6b814610683578063cae9ca5114610696578063d73dd623146106fb578063d9ba32fc1461071d578063dd62ed3e1461073c578063e43252d714610761578063ec42f82f14610780578063f2fde38b14610793575b34336000600160a060020a03821615156101da57600080fd5b8215156101e657600080fd5b60085442101580156101fa5750600a544211155b151561020557600080fd5b600d54610214600e54856107b2565b111561021f57600080fd5b600954421161023b5761023434600c546107cf565b905061024a565b61024734600b546107cf565b90505b600f5460ff161561025a57600080fd5b600f805460ff19166001179055600160a060020a03821660009081526020819052604090205461028a90826107b2565b600160a060020a0383166000908152602081905260409020556002546102b090826107b2565b600255600160a060020a03821660007fddf252ad1be2c89b69c2b068fc378daa952ba7f163c4a11628f55a4df523b3ef8360405190815260200160405180910390a3600354600160a060020a031683156108fc0284604051600060405180830381858888f19350505050151561032557600080fd5b610331600e54846107b2565b600e555050600f805460ff1916905550005b341561034e57600080fd5b610365600160a060020a03600435166024356107fd565b604051901515815260200160405180910390f35b341561038457600080fd5b61038c610857565b60405190815260200160405180910390f35b34156103a957600080fd5b6103b161085d565b604051600160a060020a03909116815260200160405180910390f35b34156103d857600080fd5b61036561086c565b34156103eb57600080fd5b610365600160a060020a0360043516610874565b341561040a57600080fd5b61038c6108bc565b341561041d57600080fd5b610365600160a060020a03600435811690602435166044356108ed565b341561044557600080fd5b61038c610a5a565b341561045857600080fd5b610460610a60565b60405160ff909116815260200160405180910390f35b341561048157600080fd5b61038c610a69565b341561049457600080fd5b61038c610a6f565b34156104a757600080fd5b61038c610a75565b34156104ba57600080fd5b61038c610a7b565b34156104cd57600080fd5b6104d5610a81565b604051808260038111156104e557fe5b60ff16815260200191505060405180910390f35b341561050457600080fd5b610365610a91565b341561051757600080fd5b61038c610a9c565b341561052a57600080fd5b610365600160a060020a0360043516602435610aa2565b341561054c57600080fd5b610365610b84565b341561055f57600080fd5b610573600160a060020a0360043516610b99565b005b341561058057600080fd5b61038c610be3565b341561059357600080fd5b61038c600160a060020a0360043516610be9565b34156105b257600080fd5b610573610c04565b34156105c557600080fd5b610573600160a060020a0360043516610cc1565b34156105e457600080fd5b6105736004602481358181019083013580602081810201604051908101604052809392919081815260200183836020028082843750949650610cfd95505050505050565b341561063357600080fd5b6103b1610d78565b341561064657600080fd5b61038c610d87565b341561065957600080fd5b610365600160a060020a0360043516602435610d8d565b341561067b57600080fd5b61038c610ea1565b341561068e57600080fd5b610573610ea7565b34156106a157600080fd5b61036560048035600160a060020a03169060248035919060649060443590810190830135806020601f82018190048102016040519081016040528181529291906020840183838082843750949650610f4995505050505050565b341561070657600080fd5b610365600160a060020a03600435166024356110b3565b341561072857600080fd5b610365600160a060020a036004351661113f565b341561074757600080fd5b61038c600160a060020a036004358116906024351661117c565b341561076c57600080fd5b610573600160a060020a03600435166111a7565b341561078b57600080fd5b6105736111e6565b341561079e57600080fd5b610573600160a060020a0360043516611274565b6000828201838110156107c457600080fd5b8091505b5092915050565b6000808315156107e257600091506107c8565b508282028284828115156107f257fe5b04146107c457600080fd5b600160a060020a03338116600081815260016020908152604080832094871680845294909152808220859055909291906000805160206113378339815191529085905190815260200160405180910390a350600192915050565b60085481565b600454600160a060020a031681565b600a54421190565b600354600090819033600160a060020a0390811691161461089457600080fd5b61089d83610be9565b6003549091506108b690600160a060020a03168261130f565b50919050565b60008080526020527fad3228b676f7d3cd4284a5443f17f1962b36e491b30a40b2405849e597ba5fb5546002540390565b6000600160a060020a038316151561090457600080fd5b600160a060020a03841660009081526020819052604090205482111561092957600080fd5b600160a060020a038085166000908152600160209081526040808320339094168352929052205482111561095c57600080fd5b600160a060020a03841660009081526020819052604090205461097f9083611321565b600160a060020a0380861660009081526020818152604080832094909455600181528382203390931682529190915220546109ba9083611321565b600160a060020a038086166000908152600160209081526040808320338516845282528083209490945591861681529081905220546109f990836107b2565b600160a060020a03808516600081815260208190526040908190209390935591908616907fddf252ad1be2c89b69c2b068fc378daa952ba7f163c4a11628f55a4df523b3ef9085905190815260200160405180910390a35060019392505050565b600b5481565b60075460ff1681565b600d5481565b60025481565b600e5481565b60095481565b60045460a060020a900460ff1681565b600d54600e54101590565b600c5481565b600160a060020a03338116600090815260016020908152604080832093861683529290529081205480831115610aff57600160a060020a033381166000908152600160209081526040808320938816835292905290812055610b30565b610b098184611321565b600160a060020a033381166000908152600160209081526040808320938916835292905220555b600160a060020a033381166000818152600160209081526040808320948916808452949091529081902054600080516020611337833981519152915190815260200160405180910390a35060019392505050565b60035433600160a060020a0390811691161490565b60035433600160a060020a03908116911614610bb457600080fd5b6004805473ffffffffffffffffffffffffffffffffffffffff1916600160a060020a0392909216919091179055565b60065481565b600160a060020a031660009081526020819052604090205490565b60035433600160a060020a03908116911614610c1f57600080fd5b600060045460a060020a900460ff166003811115610c3957fe5b1480610c5c5750600260045460a060020a900460ff166003811115610c5a57fe5b145b1515610c6757600080fd5b600480546001919074ff0000000000000000000000000000000000000000191660a060020a835b02179055507fd180ebcaa21eb03f90675218d2d628708ce938a4360f69ee8e74711cee01a99160405160405180910390a1565b60035433600160a060020a03908116911614610cdc57600080fd5b600160a060020a03166000908152601060205260409020805460ff19169055565b60035460009033600160a060020a03908116911614610d1b57600080fd5b5060005b8151811015610d7457600160106000848481518110610d3a57fe5b90602001906020020151600160a060020a031681526020810191909152604001600020805460ff1916911515919091179055600101610d1f565b5050565b600354600160a060020a031681565b60055481565b6000600160a060020a0383161515610da457600080fd5b600160a060020a0333166000908152602081905260409020548211801590610dcc5750600082115b1515610dd757600080fd5b600160a060020a033316600090815260208190526040902054610dfa9083611321565b600160a060020a033381166000908152602081905260408082209390935590851681522054610e2990836107b2565b60008085600160a060020a0316600160a060020a031681526020019081526020016000208190555082600160a060020a031633600160a060020a03167fddf252ad1be2c89b69c2b068fc378daa952ba7f163c4a11628f55a4df523b3ef8460405190815260200160405180910390a350600192915050565b600a5481565b60035433600160a060020a03908116911614610ec257600080fd5b600160045460a060020a900460ff166003811115610edc57fe5b14610ee657600080fd5b6004805474ff00000000000000000000000000000000000000001916740200000000000000000000000000000000000000001790557f8bb4b9f09f7571abfa7c9f11ae39a25d6b4c6f0798a3fe2c7c7d708f4edefebb60405160405180910390a1565b600160a060020a03338116600081815260016020908152604080832094881680845294909152808220869055909291906000805160206113378339815191529086905190815260200160405180910390a383600160a060020a0316638f4ffcb1338530866040518563ffffffff167c01000000000000000000000000000000000000000000000000000000000281526004018085600160a060020a0316600160a060020a0316815260200184815260200183600160a060020a0316600160a060020a0316815260200180602001828103825283818151815260200191508051906020019080838360005b8381101561104b578082015183820152602001611033565b50505050905090810190601f1680156110785780820380516001836020036101000a031916815260200191505b5095505050505050600060405180830381600087803b151561109957600080fd5b5af115156110a657600080fd5b5060019695505050505050565b600160a060020a0333811660009081526001602090815260408083209386168352929052908120546110e590836107b2565b600160a060020a03338116600081815260016020908152604080832094891680845294909152908190208490559192909160008051602061133783398151915291905190815260200160405180910390a350600192915050565b60035460009033600160a060020a0390811691161461115d57600080fd5b50600160a060020a031660009081526010602052604090205460ff1690565b600160a060020a03918216600090815260016020908152604080832093909416825291909152205490565b60035433600160a060020a039081169116146111c257600080fd5b600160a060020a03166000908152601060205260409020805460ff19166001179055565b60035433600160a060020a0390811691161461120157600080fd5b600160045460a060020a900460ff16600381111561121b57fe5b148061123e5750600260045460a060020a900460ff16600381111561123c57fe5b145b151561124957600080fd5b600480546003919074ff0000000000000000000000000000000000000000191660a060020a83610c8e565b60035433600160a060020a0390811691161461128f57600080fd5b600160a060020a03811615156112a457600080fd5b600354600160a060020a0380831691167f8be0079c531659141344cd1fd0a4f28419497f9722a3daafe3b4186f6b6457e060405160405180910390a36003805473ffffffffffffffffffffffffffffffffffffffff1916600160a060020a0392909216919091179055565b6113198282610d8d565b1515610d7457fe5b60008282111561133057600080fd5b5090039056008c5be1e5ebec7d5bd14f71427d1e84f3dd0314c0f7b2291e5b200ac8c7c3b925a165627a7a72305820e13f59e45ef47716641d41909fa468c5361aa3963b078cebc64f21531b9c53a10029",
  "source": "pragma solidity ^0.4.21;\r\n\r\nimport \"./templates/Ownable.sol\";\r\nimport \"./templates/Basic.sol\";\r\nimport \"./templates/ApproveAndCallFallBack.sol\";\r\nimport \"./templates/SafeMath.sol\";\r\nimport \"./templates/ICOManagement.sol\";\r\n\r\ncontract PowerPiperCrowdsale is Basic, Ownable, ICOManagement {\r\n\r\n    bytes32 public symbol;\r\n    bytes32 public  tokenName;\r\n    uint8 public decimals;\r\n    uint public startDate;\r\n    uint public bonusEnds;\r\n    uint public endDate;\r\n    uint public rate;\r\n    uint public bonusRate;\r\n    uint public cap;\r\n    uint public weiRaised;\r\n    bool private reentrancyLock = false;\r\n    mapping(address => bool) internal whitelist;\r\n\r\n    modifier isWhitelisted(address _beneficiary) {\r\n        require(whitelist[_beneficiary]);\r\n        _;\r\n    }\r\n\r\n    function PowerPiperCrowdsale() public {\r\n        symbol = \"PWP\";\r\n        tokenName = \"PowerPiperToken\";\r\n        decimals = 18;\r\n        startDate = now + 200 seconds;\r\n        bonusEnds = now + 5 weeks;\r\n        endDate = now + 52 weeks;\r\n        rate = 5000;\r\n        cap = 10000 ether;\r\n        bonusRate = 6000;\r\n    }\r\n\r\n    function hasClosed() public view returns (bool) {\r\n        return now > endDate;\r\n    }\r\n\r\n    function capReached() public view returns (bool) {\r\n        return weiRaised >= cap;\r\n    }\r\n\r\n    function approveAndCall(address _spender, uint _tokens, bytes _data) public returns (bool success) {\r\n        allowed[msg.sender][_spender] = _tokens;\r\n        emit Approval(msg.sender, _spender, _tokens);\r\n        ApproveAndCallFallBack(_spender).receiveApproval(msg.sender, _tokens, this, _data);\r\n        return true;\r\n    }\r\n\r\n    function increaseApproval(address _spender, uint _addedValue) public returns (bool) {\r\n        allowed[msg.sender][_spender] = SafeMath.add(allowed[msg.sender][_spender], _addedValue);\r\n        emit Approval(msg.sender, _spender, allowed[msg.sender][_spender]);\r\n        return true;\r\n    }\r\n\r\n    function decreaseApproval(address _spender, uint _subtractedValue) public returns (bool) {\r\n        uint oldValue = allowed[msg.sender][_spender];\r\n        if (_subtractedValue > oldValue) {\r\n            allowed[msg.sender][_spender] = 0;\r\n        } else {\r\n            allowed[msg.sender][_spender] = SafeMath.sub(oldValue, _subtractedValue);\r\n        }\r\n        emit Approval(msg.sender, _spender, allowed[msg.sender][_spender]);\r\n        return true;\r\n    }\r\n\r\n    function () public payable { // isWhitelisted(_beneficiary) - disabled temporarily\r\n        uint256 _weiAmount = msg.value;\r\n        address _beneficiary = msg.sender;\r\n        require(_beneficiary != address(0));\r\n        require(_weiAmount != 0);\r\n        require(now >= startDate && now <= endDate);\r\n        require(SafeMath.add(weiRaised, _weiAmount) <= cap);\r\n\r\n        uint tokens;\r\n\r\n        if (now <= bonusEnds) {\r\n            tokens = SafeMath.mul(msg.value, bonusRate);\r\n        } else {\r\n            tokens = SafeMath.mul(msg.value, rate);\r\n        }\r\n\r\n        require(!reentrancyLock);\r\n        reentrancyLock = true;\r\n        balances[_beneficiary] = SafeMath.add(balances[_beneficiary], tokens);\r\n        _totalSupply = SafeMath.add(_totalSupply, tokens);\r\n        emit Transfer(address(0), _beneficiary, tokens);\r\n        owner.transfer(_weiAmount);\r\n        weiRaised = SafeMath.add(weiRaised, _weiAmount);\r\n        reentrancyLock = false;\r\n    }\r\n\r\n    function safeTransfer(address _to, uint256 _tokens) internal {\r\n        assert(transfer(_to, _tokens));\r\n    }\r\n\r\n    function reclaimToken(address _tokenOwner) public onlyOwner returns (bool) {\r\n        uint256 balance = balanceOf(_tokenOwner);\r\n        safeTransfer(owner, balance);\r\n    }\r\n\r\n    function addToWhitelist(address _beneficiary) public onlyOwner {\r\n        whitelist[_beneficiary] = true;\r\n    }\r\n\r\n    function addManyToWhitelist(address[] _beneficiaries) public onlyOwner {\r\n        for (uint256 i = 0; i < _beneficiaries.length; i++) {\r\n            whitelist[_beneficiaries[i]] = true;\r\n        }\r\n    }\r\n\r\n    function removeFromWhitelist(address _beneficiary) public onlyOwner {\r\n        whitelist[_beneficiary] = false;\r\n    }\r\n\r\n    function getWhitelistStatus(address _beneficiary) public onlyOwner returns (bool) {\r\n        return whitelist[_beneficiary];\r\n    }\r\n\r\n}\r\n",
  "sourcePath": "C:\\Users\\DXenu\\Desktop\\box\\demo_contract\\contracts\\PowerPiperCrowdsale.sol",
  "compiler": {
    "name": "solc",
    "version": "0.4.21+commit.dfe3193c.Emscripten.clang"
  },
  "schemaVersion": "2.0.0",
  "updatedAt": "2018-04-21T04:17:09.988Z"
}