{
  "contractName": "RefundVault",
  "abi": [
    {
      "constant": true,
      "inputs": [],
      "name": "wallet",
      "outputs": [
        {
          "name": "",
          "type": "address"
        }
      ],
      "payable": false,
      "stateMutability": "view",
      "type": "function"
    },
    {
      "constant": true,
      "inputs": [],
      "name": "validate",
      "outputs": [
        {
          "name": "",
          "type": "bool"
        }
      ],
      "payable": false,
      "stateMutability": "view",
      "type": "function"
    },
    {
      "constant": true,
      "inputs": [],
      "name": "owner",
      "outputs": [
        {
          "name": "",
          "type": "address"
        }
      ],
      "payable": false,
      "stateMutability": "view",
      "type": "function"
    },
    {
      "constant": true,
      "inputs": [],
      "name": "state",
      "outputs": [
        {
          "name": "",
          "type": "uint8"
        }
      ],
      "payable": false,
      "stateMutability": "view",
      "type": "function"
    },
    {
      "constant": true,
      "inputs": [
        {
          "name": "",
          "type": "address"
        }
      ],
      "name": "deposited",
      "outputs": [
        {
          "name": "",
          "type": "uint256"
        }
      ],
      "payable": false,
      "stateMutability": "view",
      "type": "function"
    },
    {
      "constant": false,
      "inputs": [
        {
          "name": "newOwner",
          "type": "address"
        }
      ],
      "name": "transferOwnership",
      "outputs": [],
      "payable": false,
      "stateMutability": "nonpayable",
      "type": "function"
    },
    {
      "inputs": [
        {
          "name": "_wallet",
          "type": "address"
        }
      ],
      "payable": false,
      "stateMutability": "nonpayable",
      "type": "constructor"
    },
    {
      "anonymous": false,
      "inputs": [],
      "name": "Closed",
      "type": "event"
    },
    {
      "anonymous": false,
      "inputs": [],
      "name": "RefundsEnabled",
      "type": "event"
    },
    {
      "anonymous": false,
      "inputs": [
        {
          "indexed": true,
          "name": "beneficiary",
          "type": "address"
        },
        {
          "indexed": false,
          "name": "weiAmount",
          "type": "uint256"
        }
      ],
      "name": "Refunded",
      "type": "event"
    },
    {
      "anonymous": false,
      "inputs": [
        {
          "indexed": true,
          "name": "previousOwner",
          "type": "address"
        },
        {
          "indexed": true,
          "name": "newOwner",
          "type": "address"
        }
      ],
      "name": "OwnershipTransferred",
      "type": "event"
    },
    {
      "constant": false,
      "inputs": [
        {
          "name": "investor",
          "type": "address"
        }
      ],
      "name": "deposit",
      "outputs": [],
      "payable": true,
      "stateMutability": "payable",
      "type": "function"
    },
    {
      "constant": false,
      "inputs": [],
      "name": "close",
      "outputs": [],
      "payable": false,
      "stateMutability": "nonpayable",
      "type": "function"
    },
    {
      "constant": false,
      "inputs": [],
      "name": "enableRefunds",
      "outputs": [],
      "payable": false,
      "stateMutability": "nonpayable",
      "type": "function"
    },
    {
      "constant": false,
      "inputs": [
        {
          "name": "investor",
          "type": "address"
        }
      ],
      "name": "refund",
      "outputs": [],
      "payable": false,
      "stateMutability": "nonpayable",
      "type": "function"
    }
  ],
  "bytecode": "0x6060604052341561000f57600080fd5b6040516020806106568339810160405280805160008054600160a060020a03191633600160a060020a039081169190911790915590925082161515905061005557600080fd5b60028054600160a060020a031916600160a060020a03929092169190911760a060020a60ff02191690556105c88061008e6000396000f3006060604052600436106100a35763ffffffff7c010000000000000000000000000000000000000000000000000000000060003504166343d726d681146100a8578063521eb273146100bd5780636901f668146100ec5780638c52dc41146101135780638da5cb5b14610126578063c19d93fb14610139578063cb13cddb14610170578063f2fde38b146101a1578063f340fa01146101c0578063fa89401a146101d4575b600080fd5b34156100b357600080fd5b6100bb6101f3565b005b34156100c857600080fd5b6100d06102ce565b604051600160a060020a03909116815260200160405180910390f35b34156100f757600080fd5b6100ff6102dd565b604051901515815260200160405180910390f35b341561011e57600080fd5b6100bb6102f2565b341561013157600080fd5b6100d0610383565b341561014457600080fd5b61014c610392565b6040518082600281111561015c57fe5b60ff16815260200191505060405180910390f35b341561017b57600080fd5b61018f600160a060020a03600435166103a2565b60405190815260200160405180910390f35b34156101ac57600080fd5b6100bb600160a060020a03600435166103b4565b6100bb600160a060020a036004351661044f565b34156101df57600080fd5b6100bb600160a060020a03600435166104d3565b60005433600160a060020a0390811691161461020e57600080fd5b60006002805460a060020a900460ff169081111561022857fe5b1461023257600080fd5b6002805474ff00000000000000000000000000000000000000001916740200000000000000000000000000000000000000001790557f1cdde67b72a90f19919ac732a437ac2f7a10fc128d28c2a6e525d89ce5cd9d3a60405160405180910390a1600254600160a060020a039081169030163180156108fc0290604051600060405180830381858888f1935050505015156102cc57600080fd5b565b600254600160a060020a031681565b60005433600160a060020a0390811691161490565b60005433600160a060020a0390811691161461030d57600080fd5b60006002805460a060020a900460ff169081111561032757fe5b1461033157600080fd5b6002805474ff0000000000000000000000000000000000000000191660a060020a1790557f599d8e5a83cffb867d051598c4d70e805d59802d8081c1c7d6dffc5b6aca2b8960405160405180910390a1565b600054600160a060020a031681565b60025460a060020a900460ff1681565b60016020526000908152604090205481565b60005433600160a060020a039081169116146103cf57600080fd5b600160a060020a03811615156103e457600080fd5b600054600160a060020a0380831691167f8be0079c531659141344cd1fd0a4f28419497f9722a3daafe3b4186f6b6457e060405160405180910390a36000805473ffffffffffffffffffffffffffffffffffffffff1916600160a060020a0392909216919091179055565b60005433600160a060020a0390811691161461046a57600080fd5b60006002805460a060020a900460ff169081111561048457fe5b1461048e57600080fd5b600160a060020a0381166000908152600160205260409020546104b7903463ffffffff61058316565b600160a060020a03909116600090815260016020526040902055565b600060016002805460a060020a900460ff16908111156104ef57fe5b146104f957600080fd5b50600160a060020a038116600081815260016020526040808220805492905590919082156108fc0290839051600060405180830381858888f19350505050151561054257600080fd5b81600160a060020a03167fd7dee2702d63ad89917b6a4da9981c90c4d24f8c2bdfd64c604ecae57d8d06518260405190815260200160405180910390a25050565b60008282018381101561059557600080fd5b93925050505600a165627a7a72305820565c9089bf51b411ca77ef699dfc48260cf5268b5cbae64873e0cabe6451aaf10029",
  "source": "pragma solidity ^0.4.21;\r\n\r\nimport \".//SafeMath.sol\";\r\nimport \"./Ownable.sol\";\r\n\r\n\r\ncontract RefundVault is Ownable {\r\n    using SafeMath for uint256;\r\n\r\n    enum State { Active, Refunding, Closed }\r\n\r\n    mapping (address => uint256) public deposited;\r\n    address public wallet;\r\n    State public state;\r\n\r\n    event Closed();\r\n    event RefundsEnabled();\r\n    event Refunded(address indexed beneficiary, uint256 weiAmount);\r\n\r\n    function RefundVault(address _wallet) public {\r\n        require(_wallet != address(0));\r\n        wallet = _wallet;\r\n        state = State.Active;\r\n    }\r\n\r\n    function deposit(address investor) onlyOwner public payable {\r\n        require(state == State.Active);\r\n        deposited[investor] = deposited[investor].add(msg.value);\r\n    }\r\n\r\n    function close() onlyOwner public {\r\n        require(state == State.Active);\r\n        state = State.Closed;\r\n        emit Closed();\r\n        wallet.transfer(address(this).balance);\r\n    }\r\n\r\n    function enableRefunds() onlyOwner public {\r\n        require(state == State.Active);\r\n        state = State.Refunding;\r\n        emit RefundsEnabled();\r\n    }\r\n\r\n    function refund(address investor) public {\r\n        require(state == State.Refunding);\r\n        uint256 depositedValue = deposited[investor];\r\n        deposited[investor] = 0;\r\n        investor.transfer(depositedValue);\r\n        emit Refunded(investor, depositedValue);\r\n    }\r\n\r\n}\r\n",
  "sourcePath": "C:\\Users\\DXenu\\Desktop\\box\\demo_contract\\contracts\\zeppelin\\RefundVault.sol",
  "compiler": {
    "name": "solc",
    "version": "0.4.21+commit.dfe3193c.Emscripten.clang"
  },
  "schemaVersion": "2.0.0",
  "updatedAt": "2018-04-16T13:47:55.388Z"
}