{
  "contractName": "User",
  "abi": [
    {
      "constant": true,
      "inputs": [],
      "name": "validate",
      "outputs": [
        {
          "name": "",
          "type": "bool"
        }
      ],
      "payable": false,
      "stateMutability": "view",
      "type": "function"
    },
    {
      "constant": true,
      "inputs": [],
      "name": "owner",
      "outputs": [
        {
          "name": "",
          "type": "address"
        }
      ],
      "payable": false,
      "stateMutability": "view",
      "type": "function"
    },
    {
      "constant": false,
      "inputs": [
        {
          "name": "newOwner",
          "type": "address"
        }
      ],
      "name": "transferOwnership",
      "outputs": [],
      "payable": false,
      "stateMutability": "nonpayable",
      "type": "function"
    },
    {
      "inputs": [],
      "payable": false,
      "stateMutability": "nonpayable",
      "type": "constructor"
    },
    {
      "anonymous": false,
      "inputs": [
        {
          "indexed": true,
          "name": "_addr",
          "type": "address"
        },
        {
          "indexed": false,
          "name": "_index",
          "type": "uint256"
        },
        {
          "indexed": false,
          "name": "_email",
          "type": "bytes32"
        },
        {
          "indexed": false,
          "name": "_firstName",
          "type": "bytes32"
        },
        {
          "indexed": false,
          "name": "_lastName",
          "type": "bytes32"
        }
      ],
      "name": "NewUser",
      "type": "event"
    },
    {
      "anonymous": false,
      "inputs": [
        {
          "indexed": true,
          "name": "_addr",
          "type": "address"
        },
        {
          "indexed": false,
          "name": "_index",
          "type": "uint256"
        },
        {
          "indexed": false,
          "name": "_email",
          "type": "bytes32"
        },
        {
          "indexed": false,
          "name": "_firstName",
          "type": "bytes32"
        },
        {
          "indexed": false,
          "name": "_lastName",
          "type": "bytes32"
        }
      ],
      "name": "UpdateUser",
      "type": "event"
    },
    {
      "anonymous": false,
      "inputs": [
        {
          "indexed": true,
          "name": "_addr",
          "type": "address"
        },
        {
          "indexed": false,
          "name": "_index",
          "type": "uint256"
        }
      ],
      "name": "DeleteUser",
      "type": "event"
    },
    {
      "anonymous": false,
      "inputs": [
        {
          "indexed": true,
          "name": "previousOwner",
          "type": "address"
        },
        {
          "indexed": true,
          "name": "newOwner",
          "type": "address"
        }
      ],
      "name": "OwnershipTransferred",
      "type": "event"
    },
    {
      "constant": true,
      "inputs": [
        {
          "name": "_addr",
          "type": "address"
        }
      ],
      "name": "existsUser",
      "outputs": [
        {
          "name": "isIndexed",
          "type": "bool"
        }
      ],
      "payable": false,
      "stateMutability": "view",
      "type": "function"
    },
    {
      "constant": false,
      "inputs": [
        {
          "name": "_addr",
          "type": "address"
        },
        {
          "name": "_email",
          "type": "bytes32"
        },
        {
          "name": "_firstName",
          "type": "bytes32"
        },
        {
          "name": "_lastName",
          "type": "bytes32"
        }
      ],
      "name": "newtUser",
      "outputs": [
        {
          "name": "index",
          "type": "uint256"
        }
      ],
      "payable": false,
      "stateMutability": "nonpayable",
      "type": "function"
    },
    {
      "constant": true,
      "inputs": [
        {
          "name": "_addr",
          "type": "address"
        }
      ],
      "name": "getUser",
      "outputs": [
        {
          "name": "index",
          "type": "uint256"
        },
        {
          "name": "email",
          "type": "bytes32"
        },
        {
          "name": "firstName",
          "type": "bytes32"
        },
        {
          "name": "lastName",
          "type": "bytes32"
        }
      ],
      "payable": false,
      "stateMutability": "view",
      "type": "function"
    },
    {
      "constant": false,
      "inputs": [
        {
          "name": "_addr",
          "type": "address"
        },
        {
          "name": "_email",
          "type": "bytes32"
        },
        {
          "name": "_firstName",
          "type": "bytes32"
        },
        {
          "name": "_lastName",
          "type": "bytes32"
        }
      ],
      "name": "updateUser",
      "outputs": [
        {
          "name": "",
          "type": "bool"
        }
      ],
      "payable": false,
      "stateMutability": "nonpayable",
      "type": "function"
    },
    {
      "constant": false,
      "inputs": [
        {
          "name": "_addr",
          "type": "address"
        }
      ],
      "name": "deleteUser",
      "outputs": [
        {
          "name": "index",
          "type": "uint256"
        }
      ],
      "payable": false,
      "stateMutability": "nonpayable",
      "type": "function"
    },
    {
      "constant": true,
      "inputs": [],
      "name": "getUserCount",
      "outputs": [
        {
          "name": "count",
          "type": "uint256"
        }
      ],
      "payable": false,
      "stateMutability": "view",
      "type": "function"
    },
    {
      "constant": true,
      "inputs": [
        {
          "name": "index",
          "type": "uint256"
        }
      ],
      "name": "getUserAtIndex",
      "outputs": [
        {
          "name": "_addr",
          "type": "address"
        }
      ],
      "payable": false,
      "stateMutability": "view",
      "type": "function"
    }
  ],
  "bytecode": "0x6060604052341561000f57600080fd5b60008054600160a060020a033316600160a060020a03199091161790556108778061003b6000396000f3006060604052600436106100a35763ffffffff7c01000000000000000000000000000000000000000000000000000000006000350416635c60f22681146100a85780636901f668146100d95780636f77926b146101005780638da5cb5b1461014b5780639bd19ca91461017a578063b5cb15f7146101a2578063f2fde38b146101b5578063f409e87d146101d6578063f53f35ff146101f5578063ffcc7bbf1461021d575b600080fd5b34156100b357600080fd5b6100c7600160a060020a0360043516610233565b60405190815260200160405180910390f35b34156100e457600080fd5b6100ec6103fd565b604051901515815260200160405180910390f35b341561010b57600080fd5b61011f600160a060020a0360043516610413565b604051938452602084019290925260408084019190915260608301919091526080909101905180910390f35b341561015657600080fd5b61015e6104a9565b604051600160a060020a03909116815260200160405180910390f35b341561018557600080fd5b6100ec600160a060020a03600435166024356044356064356104b8565b34156101ad57600080fd5b6100c76105a0565b34156101c057600080fd5b6101d4600160a060020a03600435166105a6565b005b34156101e157600080fd5b6100ec600160a060020a0360043516610641565b341561020057600080fd5b6100c7600160a060020a036004351660243560443560643561069b565b341561022857600080fd5b61015e6004356107bf565b600080548190819033600160a060020a0390811691161461025357600080fd5b8380600160a060020a031633600160a060020a031614151561027457600080fd5b61027d85610641565b151560011461028b57600080fd5b600160a060020a038516600090815260016020526040902054600280549194509060001981019081106102ba57fe5b60009182526020909120015460028054600160a060020a0390921693508391859081106102e357fe5b6000918252602080832091909101805473ffffffffffffffffffffffffffffffffffffffff1916600160a060020a039485161790559184168152600190915260409020839055600280549061033c906000198301610804565b5084600160a060020a03167f117183c06981515bdfa0b70d0448d8eb6ba07648cda62ab7c2b4361eeff80a1b8460405190815260200160405180910390a2600160a060020a0382166000818152600160208190526040918290209081015460028201546003909201547f36cd692caa63e05d06ec64ae3a07dffe3b224fecb32af5fa7bc1469f5bcdde57938893919051938452602084019290925260408084019190915260608301919091526080909101905180910390a250909392505050565b60005433600160a060020a039081169116145b90565b6000805481908190819033600160a060020a0390811691161461043557600080fd5b8480600160a060020a031633600160a060020a031614151561045657600080fd5b61045f86610641565b151560011461046d57600080fd5b50505050600160a060020a0391909116600090815260016020819052604090912080549181015460028201546003909201549294909350909190565b600054600160a060020a031681565b6000805433600160a060020a039081169116146104d457600080fd5b8480600160a060020a031633600160a060020a03161415156104f557600080fd5b84848461050189610641565b151560011461050f57600080fd5b600160a060020a0389166000818152600160208190526040918290209081018b9055600281018a905560038101899055547f36cd692caa63e05d06ec64ae3a07dffe3b224fecb32af5fa7bc1469f5bcdde57918b908b908b9051938452602084019290925260408084019190915260608301919091526080909101905180910390a250600198975050505050505050565b60025490565b60005433600160a060020a039081169116146105c157600080fd5b600160a060020a03811615156105d657600080fd5b600054600160a060020a0380831691167f8be0079c531659141344cd1fd0a4f28419497f9722a3daafe3b4186f6b6457e060405160405180910390a36000805473ffffffffffffffffffffffffffffffffffffffff1916600160a060020a0392909216919091179055565b600254600090151561065557506000610696565b600160a060020a03821660008181526001602052604090205460028054909190811061067d57fe5b600091825260209091200154600160a060020a03161490505b919050565b60008360005433600160a060020a039081169116146106b957600080fd5b83836106c488610641565b156106ce57600080fd5b600160a060020a038816600090815260016020819052604090912080820189905560028082018990556003909101879055805480830161070e8382610804565b6000928352602080842092909201805473ffffffffffffffffffffffffffffffffffffffff1916600160a060020a038e16908117909155808452600190925260409283902093900392839055917f78b833eacd29aac1183e31c8289157ed550f3b1f9f1526bf2055ef195cac287f918a908a908a9051938452602084019290925260408084019190915260608301919091526080909101905180910390a25050600254600019019695505050505050565b6000805433600160a060020a039081169116146107db57600080fd5b60028054839081106107e957fe5b600091825260209091200154600160a060020a031692915050565b8154818355818115116108285760008381526020902061082891810190830161082d565b505050565b61041091905b808211156108475760008155600101610833565b50905600a165627a7a7230582087efe51d720d9ce612715027232fbeadff4428b5d8fd4e075f21b594b026b8bb0029",
  "source": "pragma solidity ^0.4.21;\r\n\r\nimport \"./zeppelin/SafeMath.sol\";\r\nimport \"./zeppelin/Ownable.sol\";\r\n\r\n\r\ncontract User is Ownable {\r\n\r\n    using SafeMath for uint256;\r\n\r\n    struct UserStruct {\r\n        uint256 index;\r\n        bytes32 email;\r\n        bytes32 firstName;\r\n        bytes32 lastName;\r\n        address[] placeId;\r\n        address[] equipmentId;\r\n    }\r\n\r\n    event NewUser(address indexed _addr, uint256 _index, bytes32 _email, bytes32 _firstName, bytes32 _lastName);\r\n    event UpdateUser(address indexed _addr,  uint256 _index, bytes32 _email, bytes32 _firstName, bytes32 _lastName);\r\n    event DeleteUser(address indexed _addr,  uint256 _index);\r\n    \r\n    mapping(address => UserStruct) users;\r\n    address[] private userIndex;\r\n\r\n    function User() public {\r\n    }\r\n\r\n    modifier nonEmpty(bytes32 _str) {\r\n        require(bytes32(_str).length > 5);\r\n        _;\r\n    }\r\n\r\n    function existsUser(address _addr) public constant returns(bool isIndexed) {\r\n        if(userIndex.length == 0) return false;\r\n        return (userIndex[users[_addr].index] == _addr);\r\n    }\r\n\r\n    function newtUser(address _addr, bytes32 _email, bytes32 _firstName, bytes32 _lastName)\r\n    nonEmpty(_email)\r\n    onlyOwner\r\n    public\r\n    nonEmpty(_firstName)\r\n    nonEmpty(_lastName)\r\n    returns(uint256 index) {\r\n        require(existsUser(_addr) == false);\r\n        users[_addr].email = _email;\r\n        users[_addr].firstName = _firstName;\r\n        users[_addr].lastName = _lastName;\r\n        users[_addr].index = userIndex.push(_addr) - 1;\r\n        emit NewUser(_addr, users[_addr].index,  _email, _firstName, _lastName);\r\n        return userIndex.length - 1;\r\n    }\r\n\r\n    function getUser(address _addr)\r\n    onlyOwner\r\n    onlyBy(_addr)\r\n    public\r\n    constant\r\n    returns(uint256 index, bytes32 email, bytes32 firstName, bytes32 lastName) {\r\n        require(existsUser(_addr) == true);\r\n        return(\r\n            users[_addr].index,\r\n            users[_addr].email,\r\n            users[_addr].firstName,\r\n            users[_addr].lastName\r\n        );\r\n    }\r\n\r\n    function updateUser(address _addr, bytes32 _email, bytes32 _firstName, bytes32 _lastName)\r\n    onlyOwner\r\n    onlyBy(_addr)\r\n    public\r\n    nonEmpty(_email)\r\n    nonEmpty(_firstName)\r\n    nonEmpty(_lastName)\r\n    returns(bool) {\r\n        require(existsUser(_addr) == true);\r\n        users[_addr].email = _email;\r\n        users[_addr].firstName = _firstName;\r\n        users[_addr].lastName = _lastName;\r\n        emit UpdateUser(_addr, users[_addr].index, _email, _firstName, _lastName);\r\n        return true;\r\n    }\r\n\r\n    function deleteUser(address _addr)\r\n    public\r\n    onlyOwner\r\n    onlyBy(_addr)\r\n    returns(uint256 index) {\r\n        require(existsUser(_addr) == true);\r\n        uint256 _rowToDelete = users[_addr].index;\r\n        address _keyToMove = userIndex[userIndex.length - 1];\r\n        userIndex[_rowToDelete] = _keyToMove;\r\n        users[_keyToMove].index = _rowToDelete; \r\n        userIndex.length--;\r\n        emit DeleteUser(_addr, _rowToDelete);\r\n        emit UpdateUser(_keyToMove, _rowToDelete, users[_keyToMove].email, users[_keyToMove].firstName, users[_keyToMove].lastName);\r\n        return _rowToDelete;\r\n    }\r\n\r\n    function getUserCount() public constant returns(uint count) {\r\n        return userIndex.length;\r\n    }\r\n\r\n    function getUserAtIndex(uint256 index)\r\n    public\r\n    onlyOwner\r\n    constant returns(address _addr) {\r\n        return userIndex[index];\r\n    }\r\n\r\n}\r\n",
  "sourcePath": "C:\\Users\\DXenu\\Desktop\\box\\demo_contract\\contracts\\User.sol",
  "compiler": {
    "name": "solc",
    "version": "0.4.21+commit.dfe3193c.Emscripten.clang"
  },
  "schemaVersion": "2.0.0",
  "updatedAt": "2018-04-16T19:29:05.675Z"
}