{
  "contractName": "Users",
  "abi": [
    {
      "constant": true,
      "inputs": [],
      "name": "validate",
      "outputs": [
        {
          "name": "",
          "type": "bool"
        }
      ],
      "payable": false,
      "stateMutability": "view",
      "type": "function"
    },
    {
      "constant": true,
      "inputs": [],
      "name": "owner",
      "outputs": [
        {
          "name": "",
          "type": "address"
        }
      ],
      "payable": false,
      "stateMutability": "view",
      "type": "function"
    },
    {
      "constant": true,
      "inputs": [
        {
          "name": "",
          "type": "address"
        }
      ],
      "name": "users",
      "outputs": [
        {
          "name": "index",
          "type": "uint256"
        },
        {
          "name": "_hash",
          "type": "string"
        }
      ],
      "payable": false,
      "stateMutability": "view",
      "type": "function"
    },
    {
      "constant": true,
      "inputs": [
        {
          "name": "",
          "type": "uint256"
        }
      ],
      "name": "userIndex",
      "outputs": [
        {
          "name": "",
          "type": "address"
        }
      ],
      "payable": false,
      "stateMutability": "view",
      "type": "function"
    },
    {
      "constant": false,
      "inputs": [
        {
          "name": "newOwner",
          "type": "address"
        }
      ],
      "name": "transferOwnership",
      "outputs": [],
      "payable": false,
      "stateMutability": "nonpayable",
      "type": "function"
    },
    {
      "anonymous": false,
      "inputs": [
        {
          "indexed": true,
          "name": "_addr",
          "type": "address"
        },
        {
          "indexed": false,
          "name": "_index",
          "type": "uint256"
        },
        {
          "indexed": false,
          "name": "_hash",
          "type": "string"
        }
      ],
      "name": "NewUser",
      "type": "event"
    },
    {
      "anonymous": false,
      "inputs": [
        {
          "indexed": true,
          "name": "_addr",
          "type": "address"
        },
        {
          "indexed": false,
          "name": "_index",
          "type": "uint256"
        },
        {
          "indexed": false,
          "name": "_hash",
          "type": "string"
        }
      ],
      "name": "UpdateUser",
      "type": "event"
    },
    {
      "anonymous": false,
      "inputs": [
        {
          "indexed": true,
          "name": "_addr",
          "type": "address"
        },
        {
          "indexed": false,
          "name": "_index",
          "type": "uint256"
        }
      ],
      "name": "DeleteUser",
      "type": "event"
    },
    {
      "anonymous": false,
      "inputs": [
        {
          "indexed": true,
          "name": "previousOwner",
          "type": "address"
        },
        {
          "indexed": true,
          "name": "newOwner",
          "type": "address"
        }
      ],
      "name": "OwnershipTransferred",
      "type": "event"
    },
    {
      "constant": true,
      "inputs": [
        {
          "name": "_addr",
          "type": "address"
        }
      ],
      "name": "getUser",
      "outputs": [
        {
          "name": "index",
          "type": "uint256"
        },
        {
          "name": "_hash",
          "type": "string"
        }
      ],
      "payable": false,
      "stateMutability": "view",
      "type": "function"
    },
    {
      "constant": true,
      "inputs": [
        {
          "name": "_addr",
          "type": "address"
        }
      ],
      "name": "existsUser",
      "outputs": [
        {
          "name": "isIndexed",
          "type": "bool"
        }
      ],
      "payable": false,
      "stateMutability": "view",
      "type": "function"
    },
    {
      "constant": false,
      "inputs": [
        {
          "name": "_hash",
          "type": "string"
        }
      ],
      "name": "newUser",
      "outputs": [
        {
          "name": "",
          "type": "bool"
        }
      ],
      "payable": false,
      "stateMutability": "nonpayable",
      "type": "function"
    },
    {
      "constant": false,
      "inputs": [
        {
          "name": "_addr",
          "type": "address"
        },
        {
          "name": "_hash",
          "type": "string"
        }
      ],
      "name": "updateUser",
      "outputs": [
        {
          "name": "",
          "type": "bool"
        }
      ],
      "payable": false,
      "stateMutability": "nonpayable",
      "type": "function"
    },
    {
      "constant": false,
      "inputs": [
        {
          "name": "_addr",
          "type": "address"
        }
      ],
      "name": "deleteUser",
      "outputs": [
        {
          "name": "index",
          "type": "uint256"
        }
      ],
      "payable": false,
      "stateMutability": "nonpayable",
      "type": "function"
    },
    {
      "constant": true,
      "inputs": [],
      "name": "getUsers",
      "outputs": [
        {
          "name": "",
          "type": "address[]"
        }
      ],
      "payable": false,
      "stateMutability": "view",
      "type": "function"
    },
    {
      "constant": true,
      "inputs": [],
      "name": "getUserCount",
      "outputs": [
        {
          "name": "count",
          "type": "uint256"
        }
      ],
      "payable": false,
      "stateMutability": "view",
      "type": "function"
    },
    {
      "constant": true,
      "inputs": [
        {
          "name": "index",
          "type": "uint256"
        }
      ],
      "name": "getUserAtIndex",
      "outputs": [
        {
          "name": "",
          "type": "uint256"
        },
        {
          "name": "",
          "type": "address"
        },
        {
          "name": "",
          "type": "string"
        }
      ],
      "payable": false,
      "stateMutability": "view",
      "type": "function"
    }
  ],
  "bytecode": "0x606060405260008054600160a060020a033316600160a060020a0319909116179055610f07806100306000396000f3006060604052600436106100c35763ffffffff7c0100000000000000000000000000000000000000000000000000000000600035041662ce8e3e81146100c85780631eed11921461012e5780635c60f226146101935780636901f668146101c45780636f77926b146101d75780638da5cb5b14610274578063a87430ba146102a3578063b0889819146102c2578063b5cb15f714610321578063c37dfd6e14610334578063f2fde38b1461034a578063f409e87d1461036b578063ffcc7bbf1461038a575b600080fd5b34156100d357600080fd5b6100db61042e565b60405160208082528190810183818151815260200191508051906020019060200280838360005b8381101561011a578082015183820152602001610102565b505050509050019250505060405180910390f35b341561013957600080fd5b61017f60046024813581810190830135806020601f820181900481020160405190810160405281815292919060208401838380828437509496506104b295505050505050565b604051901515815260200160405180910390f35b341561019e57600080fd5b6101b2600160a060020a0360043516610600565b60405190815260200160405180910390f35b34156101cf57600080fd5b61017f610817565b34156101e257600080fd5b6101f6600160a060020a036004351661082c565b60405182815260406020820181815290820183818151815260200191508051906020019080838360005b83811015610238578082015183820152602001610220565b50505050905090810190601f1680156102655780820380516001836020036101000a031916815260200191505b50935050505060405180910390f35b341561027f57600080fd5b610287610951565b604051600160a060020a03909116815260200160405180910390f35b34156102ae57600080fd5b6101f6600160a060020a0360043516610960565b34156102cd57600080fd5b61017f60048035600160a060020a03169060446024803590810190830135806020601f82018190048102016040519081016040528181529291906020840183838082843750949650610a1c95505050505050565b341561032c57600080fd5b6101b2610b48565b341561033f57600080fd5b610287600435610b6b565b341561035557600080fd5b610369600160a060020a0360043516610b93565b005b341561037657600080fd5b61017f600160a060020a0360043516610c2e565b341561039557600080fd5b6103a0600435610c86565b604051838152600160a060020a038316602082015260606040820181815290820183818151815260200191508051906020019080838360005b838110156103f15780820151838201526020016103d9565b50505050905090810190601f16801561041e5780820380516001836020036101000a031916815260200191505b5094505050505060405180910390f35b610436610e08565b60005433600160a060020a0390811691161461045157600080fd5b60028054806020026020016040519081016040528092919081815260200182805480156104a757602002820191906000526020600020905b8154600160a060020a03168152600190910190602001808311610489575b505050505090505b90565b60006104bd33610c2e565b156104c757600080fd5b60028054600181016104d98382610e1a565b506000918252602080832091909101805473ffffffffffffffffffffffffffffffffffffffff191633600160a060020a0316908117909155600254908352600191829052604090922060001990920182550182805161053c929160200190610e43565b50600160a060020a03331660008181526001602052604090819020547f3f5552bae26386a672ea708b076b62b1fb9a9f821b6d35469971faa1dec9a15e9185905182815260406020820181815290820183818151815260200191508051906020019080838360005b838110156105bc5780820151838201526020016105a4565b50505050905090810190601f1680156105e95780820380516001836020036101000a031916815260200191505b50935050505060405180910390a25060015b919050565b60008060008380600160a060020a031633600160a060020a031614151561062657600080fd5b61062f33610c2e565b151560011461063d57600080fd5b600160a060020a0333166000908152600160205260409020546002805491945090600019810190811061066c57fe5b60009182526020909120015460028054600160a060020a03909216935083918590811061069557fe5b6000918252602080832091909101805473ffffffffffffffffffffffffffffffffffffffff1916600160a060020a03948516179055918416815260019091526040902083905560028054906106ee906000198301610e1a565b5033600160a060020a03167f117183c06981515bdfa0b70d0448d8eb6ba07648cda62ab7c2b4361eeff80a1b8460405190815260200160405180910390a281600160a060020a03167f2b46302f47437b923a28e2b58ff2446c2a30a86f911fcf4a46395fa79a18e56a846001600086600160a060020a0316600160a060020a03168152602001908152602001600020600101604051828152604060208201818152835460026000196101006001841615020190911604918301829052906060830190849080156107ff5780601f106107d4576101008083540402835291602001916107ff565b820191906000526020600020905b8154815290600101906020018083116107e257829003601f168201915b5050935050505060405180910390a250909392505050565b60005433600160a060020a0390811691161490565b6000610836610e08565b8280600160a060020a031633600160a060020a03161480610865575060005433600160a060020a039081169116145b151561087057600080fd5b61087984610c2e565b151560011461088757600080fd5b600160a060020a0384166000908152600160208181526040928390208054908301805491949093849360029184161561010002600019019093160491601f8301819004810201905190810160405280929190818152602001828054600181600116156101000203166002900480156109405780601f1061091557610100808354040283529160200191610940565b820191906000526020600020905b81548152906001019060200180831161092357829003601f168201915b505050505090509250925050915091565b600054600160a060020a031681565b6001602052806000526040600020600091509050806000015490806001018054600181600116156101000203166002900480601f016020809104026020016040519081016040528092919081815260200182805460018160011615610100020316600290048015610a125780601f106109e757610100808354040283529160200191610a12565b820191906000526020600020905b8154815290600101906020018083116109f557829003601f168201915b5050505050905082565b60008280600160a060020a031633600160a060020a0316141515610a3f57600080fd5b610a4833610c2e565b1515600114610a5657600080fd5b600160a060020a033316600090815260016020819052604090912001838051610a83929160200190610e43565b50600160a060020a03331660008181526001602052604090819020547f2b46302f47437b923a28e2b58ff2446c2a30a86f911fcf4a46395fa79a18e56a9186905182815260406020820181815290820183818151815260200191508051906020019080838360005b83811015610b03578082015183820152602001610aeb565b50505050905090810190601f168015610b305780820380516001836020036101000a031916815260200191505b50935050505060405180910390a25060019392505050565b6000805433600160a060020a03908116911614610b6457600080fd5b5060025490565b6002805482908110610b7957fe5b600091825260209091200154600160a060020a0316905081565b60005433600160a060020a03908116911614610bae57600080fd5b600160a060020a0381161515610bc357600080fd5b600054600160a060020a0380831691167f8be0079c531659141344cd1fd0a4f28419497f9722a3daafe3b4186f6b6457e060405160405180910390a36000805473ffffffffffffffffffffffffffffffffffffffff1916600160a060020a0392909216919091179055565b6002546000901515610c42575060006105fb565b600160a060020a038216600081815260016020526040902054600280549091908110610c6a57fe5b600091825260209091200154600160a060020a03161492915050565b600080610c91610e08565b60005433600160a060020a03908116911614610cac57600080fd5b60016000600286815481101515610cbf57fe5b6000918252602080832090910154600160a060020a031683528201929092526040019020546002805486908110610cf257fe5b600091825260208220015460028054600160a060020a039092169260019290919089908110610d1d57fe5b906000526020600020900160009054906101000a9004600160a060020a0316600160a060020a0316600160a060020a03168152602001908152602001600020600101808054600181600116156101000203166002900480601f016020809104026020016040519081016040528092919081815260200182805460018160011615610100020316600290048015610df45780601f10610dc957610100808354040283529160200191610df4565b820191906000526020600020905b815481529060010190602001808311610dd757829003601f168201915b505050505090509250925092509193909250565b60206040519081016040526000815290565b815481835581811511610e3e57600083815260209020610e3e918101908301610ec1565b505050565b828054600181600116156101000203166002900490600052602060002090601f016020900481019282601f10610e8457805160ff1916838001178555610eb1565b82800160010185558215610eb1579182015b82811115610eb1578251825591602001919060010190610e96565b50610ebd929150610ec1565b5090565b6104af91905b80821115610ebd5760008155600101610ec75600a165627a7a7230582082fe6a09462cd74b7e8390ea6d061194a3bd34df43f5bb249b5da10ef39359e00029",
  "source": "pragma solidity ^0.4.21;\r\n\r\nimport \"./templates/Ownable.sol\";\r\n\r\n\r\ncontract Users is Ownable {\r\n\r\n    struct UserStruct {\r\n        uint index;\r\n        string _hash;\r\n    }\r\n\r\n    mapping(address => UserStruct) public users;\r\n    address[] public userIndex;\r\n\r\n    event NewUser(address indexed _addr, uint _index, string _hash);\r\n    event UpdateUser(address indexed _addr,  uint _index, string _hash);\r\n    event DeleteUser(address indexed _addr,  uint _index);\r\n\r\n    function getUser(address _addr)\r\n    onlyOwnerOrUser(_addr)\r\n    public\r\n    view\r\n    returns(uint index, string _hash) {\r\n        require(existsUser(_addr) == true);\r\n        return(\r\n            users[_addr].index,\r\n            users[_addr]._hash\r\n        );\r\n    }\r\n\r\n    function existsUser(address _addr) public view returns(bool isIndexed) {\r\n        if(userIndex.length == 0) {\r\n            return false;\r\n        }\r\n        return (userIndex[users[_addr].index] == _addr);\r\n    }\r\n\r\n    function newUser(string _hash)\r\n    public\r\n    returns(bool) {\r\n        require(existsUser(msg.sender) == false);\r\n        userIndex.push(msg.sender);\r\n        users[msg.sender].index = userIndex.length - 1;\r\n        users[msg.sender]._hash = _hash;\r\n\r\n        emit NewUser(msg.sender, users[msg.sender].index,  _hash);\r\n        return true;\r\n    }\r\n\r\n    function updateUser(address _addr, string _hash)\r\n    onlyBy(_addr)\r\n    public\r\n    returns(bool) {\r\n        require(existsUser(msg.sender) == true);\r\n        users[msg.sender]._hash = _hash;\r\n        emit UpdateUser(msg.sender, users[msg.sender].index, _hash);\r\n        return true;\r\n    }\r\n\r\n    function deleteUser(address _addr)\r\n    public\r\n    onlyBy(_addr)\r\n    returns(uint index) {\r\n        require(existsUser(msg.sender) == true);\r\n        uint _rowToDelete = users[msg.sender].index;\r\n        address _keyToMove = userIndex[userIndex.length - 1];\r\n        userIndex[_rowToDelete] = _keyToMove;\r\n        users[_keyToMove].index = _rowToDelete; \r\n        userIndex.length--;\r\n        emit DeleteUser(msg.sender, _rowToDelete);\r\n        emit UpdateUser(_keyToMove, _rowToDelete, users[_keyToMove]._hash);\r\n        return _rowToDelete;\r\n    }\r\n\r\n    function getUsers() public view onlyOwner returns(address[]) {\r\n        return userIndex;\r\n    }\r\n\r\n    function getUserCount() public view onlyOwner returns(uint count) {\r\n        return userIndex.length;\r\n    }\r\n\r\n    function getUserAtIndex(uint index)\r\n    public\r\n    onlyOwner\r\n    view returns(uint, address, string) {\r\n        return (\r\n            users[userIndex[index]].index,\r\n            userIndex[index],\r\n            users[userIndex[index]]._hash\r\n        );\r\n    }\r\n\r\n}\r\n",
  "sourcePath": "C:\\Users\\DXenu\\Desktop\\box\\demo_contract\\contracts\\Users.sol",
  "compiler": {
    "name": "solc",
    "version": "0.4.21+commit.dfe3193c.Emscripten.clang"
  },
  "schemaVersion": "2.0.0",
  "updatedAt": "2018-04-20T19:24:28.684Z"
}