{
  "contractName": "Whitelist",
  "abi": [
    {
      "constant": true,
      "inputs": [],
      "name": "validate",
      "outputs": [
        {
          "name": "",
          "type": "bool"
        }
      ],
      "payable": false,
      "stateMutability": "view",
      "type": "function"
    },
    {
      "constant": true,
      "inputs": [],
      "name": "owner",
      "outputs": [
        {
          "name": "",
          "type": "address"
        }
      ],
      "payable": false,
      "stateMutability": "view",
      "type": "function"
    },
    {
      "constant": true,
      "inputs": [
        {
          "name": "",
          "type": "address"
        }
      ],
      "name": "whitelist",
      "outputs": [
        {
          "name": "",
          "type": "bool"
        }
      ],
      "payable": false,
      "stateMutability": "view",
      "type": "function"
    },
    {
      "constant": false,
      "inputs": [
        {
          "name": "newOwner",
          "type": "address"
        }
      ],
      "name": "transferOwnership",
      "outputs": [],
      "payable": false,
      "stateMutability": "nonpayable",
      "type": "function"
    },
    {
      "anonymous": false,
      "inputs": [
        {
          "indexed": false,
          "name": "addr",
          "type": "address"
        }
      ],
      "name": "WhitelistedAddressAdded",
      "type": "event"
    },
    {
      "anonymous": false,
      "inputs": [
        {
          "indexed": false,
          "name": "addr",
          "type": "address"
        }
      ],
      "name": "WhitelistedAddressRemoved",
      "type": "event"
    },
    {
      "anonymous": false,
      "inputs": [
        {
          "indexed": true,
          "name": "previousOwner",
          "type": "address"
        },
        {
          "indexed": true,
          "name": "newOwner",
          "type": "address"
        }
      ],
      "name": "OwnershipTransferred",
      "type": "event"
    },
    {
      "constant": false,
      "inputs": [
        {
          "name": "addr",
          "type": "address"
        }
      ],
      "name": "addAddressToWhitelist",
      "outputs": [
        {
          "name": "success",
          "type": "bool"
        }
      ],
      "payable": false,
      "stateMutability": "nonpayable",
      "type": "function"
    },
    {
      "constant": false,
      "inputs": [
        {
          "name": "addrs",
          "type": "address[]"
        }
      ],
      "name": "addAddressesToWhitelist",
      "outputs": [
        {
          "name": "success",
          "type": "bool"
        }
      ],
      "payable": false,
      "stateMutability": "nonpayable",
      "type": "function"
    },
    {
      "constant": false,
      "inputs": [
        {
          "name": "addr",
          "type": "address"
        }
      ],
      "name": "removeAddressFromWhitelist",
      "outputs": [
        {
          "name": "success",
          "type": "bool"
        }
      ],
      "payable": false,
      "stateMutability": "nonpayable",
      "type": "function"
    },
    {
      "constant": false,
      "inputs": [
        {
          "name": "addrs",
          "type": "address[]"
        }
      ],
      "name": "removeAddressesFromWhitelist",
      "outputs": [
        {
          "name": "success",
          "type": "bool"
        }
      ],
      "payable": false,
      "stateMutability": "nonpayable",
      "type": "function"
    }
  ],
  "bytecode": "0x606060405260008054600160a060020a033316600160a060020a031990911617905561050f806100306000396000f30060606040526004361061008d5763ffffffff7c010000000000000000000000000000000000000000000000000000000060003504166324953eaa8114610092578063286dd3f5146100f55780636901f668146101145780637b9417c8146101275780638da5cb5b146101465780639b19251a14610175578063e2ec6ec314610194578063f2fde38b146101e3575b600080fd5b341561009d57600080fd5b6100e1600460248135818101908301358060208181020160405190810160405280939291908181526020018383602002808284375094965061020495505050505050565b604051901515815260200160405180910390f35b341561010057600080fd5b6100e1600160a060020a0360043516610265565b341561011f57600080fd5b6100e161030a565b341561013257600080fd5b6100e1600160a060020a036004351661031f565b341561015157600080fd5b6101596103c9565b604051600160a060020a03909116815260200160405180910390f35b341561018057600080fd5b6100e1600160a060020a03600435166103d8565b341561019f57600080fd5b6100e160046024813581810190830135806020818102016040519081016040528093929190818152602001838360200280828437509496506103ed95505050505050565b34156101ee57600080fd5b610202600160a060020a0360043516610448565b005b60008054819033600160a060020a0390811691161461022257600080fd5b5060005b825181101561025f5761024d83828151811061023e57fe5b90602001906020020151610265565b1561025757600191505b600101610226565b50919050565b6000805433600160a060020a0390811691161461028157600080fd5b600160a060020a03821660009081526001602052604090205460ff161561030557600160a060020a03821660009081526001602052604090819020805460ff191690557ff1abf01a1043b7c244d128e8595cf0c1d10743b022b03a02dffd8ca3bf729f5a90839051600160a060020a03909116815260200160405180910390a15060015b919050565b60005433600160a060020a0390811691161490565b6000805433600160a060020a0390811691161461033b57600080fd5b600160a060020a03821660009081526001602052604090205460ff16151561030557600160a060020a038216600090815260016020819052604091829020805460ff191690911790557fd1bba68c128cc3f427e5831b3c6f99f480b6efa6b9e80c757768f6124158cc3f90839051600160a060020a03909116815260200160405180910390a1506001919050565b600054600160a060020a031681565b60016020526000908152604090205460ff1681565b60008054819033600160a060020a0390811691161461040b57600080fd5b5060005b825181101561025f5761043683828151811061042757fe5b9060200190602002015161031f565b1561044057600191505b60010161040f565b60005433600160a060020a0390811691161461046357600080fd5b600160a060020a038116151561047857600080fd5b600054600160a060020a0380831691167f8be0079c531659141344cd1fd0a4f28419497f9722a3daafe3b4186f6b6457e060405160405180910390a36000805473ffffffffffffffffffffffffffffffffffffffff1916600160a060020a03929092169190911790555600a165627a7a72305820d6aac29ce64e4ebccf6cf1d20b318a747a1779755118816825cebfeb21e43fe70029",
  "source": "pragma solidity ^0.4.21;\r\n\r\nimport \"./Ownable.sol\";\r\n\r\n\r\ncontract Whitelist is Ownable {\r\n    mapping(address => bool) public whitelist;\r\n  \r\n    event WhitelistedAddressAdded(address addr);\r\n    event WhitelistedAddressRemoved(address addr);\r\n\r\n    modifier onlyWhitelisted() {\r\n        require(whitelist[msg.sender]);\r\n        _;\r\n    }\r\n\r\n    function addAddressToWhitelist(address addr) onlyOwner public returns(bool success) {\r\n        if (!whitelist[addr]) {\r\n            whitelist[addr] = true;\r\n            emit WhitelistedAddressAdded(addr);\r\n            success = true; \r\n        }\r\n    }\r\n\r\n    function addAddressesToWhitelist(address[] addrs) onlyOwner public returns(bool success) {\r\n        for (uint256 i = 0; i < addrs.length; i++) {\r\n            if (addAddressToWhitelist(addrs[i])) {\r\n                success = true;\r\n            }\r\n        }\r\n    }\r\n\r\n    function removeAddressFromWhitelist(address addr) onlyOwner public returns(bool success) {\r\n        if (whitelist[addr]) {\r\n            whitelist[addr] = false;\r\n            emit WhitelistedAddressRemoved(addr);\r\n            success = true;\r\n        }\r\n    }\r\n\r\n    function removeAddressesFromWhitelist(address[] addrs) onlyOwner public returns(bool success) {\r\n        for (uint256 i = 0; i < addrs.length; i++) {\r\n            if (removeAddressFromWhitelist(addrs[i])) {\r\n                success = true;\r\n            }\r\n        }\r\n    }\r\n\r\n}\r\n",
  "sourcePath": "C:\\Users\\DXenu\\Desktop\\box\\demo_contract\\contracts\\zeppelin\\Whitelist.sol",
  "compiler": {
    "name": "solc",
    "version": "0.4.21+commit.dfe3193c.Emscripten.clang"
  },
  "schemaVersion": "2.0.0",
  "updatedAt": "2018-04-16T13:47:53.898Z"
}